{
	"contracts/Twitter.sol": {
		"Twitter": {
			"abi": [
				{
					"inputs": [],
					"stateMutability": "nonpayable",
					"type": "constructor"
				},
				{
					"inputs": [],
					"name": "MAX_TWEET_LENGTH",
					"outputs": [
						{
							"internalType": "uint16",
							"name": "",
							"type": "uint16"
						}
					],
					"stateMutability": "view",
					"type": "function"
				},
				{
					"inputs": [
						{
							"internalType": "uint16",
							"name": "newTweetLength",
							"type": "uint16"
						}
					],
					"name": "changeTweetLenght",
					"outputs": [],
					"stateMutability": "nonpayable",
					"type": "function"
				},
				{
					"inputs": [
						{
							"internalType": "string",
							"name": "_tweetContent",
							"type": "string"
						}
					],
					"name": "createTweet",
					"outputs": [],
					"stateMutability": "nonpayable",
					"type": "function"
				},
				{
					"inputs": [
						{
							"internalType": "address",
							"name": "_owner",
							"type": "address"
						}
					],
					"name": "getAllTweets",
					"outputs": [
						{
							"components": [
								{
									"internalType": "uint256",
									"name": "id",
									"type": "uint256"
								},
								{
									"internalType": "address",
									"name": "author",
									"type": "address"
								},
								{
									"internalType": "string",
									"name": "content",
									"type": "string"
								},
								{
									"internalType": "uint256",
									"name": "timestamp",
									"type": "uint256"
								},
								{
									"internalType": "uint256",
									"name": "likes",
									"type": "uint256"
								}
							],
							"internalType": "struct Twitter.Tweet[]",
							"name": "",
							"type": "tuple[]"
						}
					],
					"stateMutability": "view",
					"type": "function"
				},
				{
					"inputs": [
						{
							"internalType": "address",
							"name": "_owner",
							"type": "address"
						},
						{
							"internalType": "uint256",
							"name": "_index",
							"type": "uint256"
						}
					],
					"name": "getTweet",
					"outputs": [
						{
							"internalType": "address",
							"name": "",
							"type": "address"
						},
						{
							"internalType": "string",
							"name": "",
							"type": "string"
						},
						{
							"internalType": "uint256",
							"name": "",
							"type": "uint256"
						},
						{
							"internalType": "uint256",
							"name": "",
							"type": "uint256"
						}
					],
					"stateMutability": "view",
					"type": "function"
				},
				{
					"inputs": [
						{
							"internalType": "address",
							"name": "author",
							"type": "address"
						},
						{
							"internalType": "uint256",
							"name": "id",
							"type": "uint256"
						}
					],
					"name": "likeTweet",
					"outputs": [],
					"stateMutability": "nonpayable",
					"type": "function"
				},
				{
					"inputs": [],
					"name": "owner",
					"outputs": [
						{
							"internalType": "address",
							"name": "",
							"type": "address"
						}
					],
					"stateMutability": "view",
					"type": "function"
				},
				{
					"inputs": [
						{
							"internalType": "address",
							"name": "",
							"type": "address"
						},
						{
							"internalType": "uint256",
							"name": "",
							"type": "uint256"
						}
					],
					"name": "tweets",
					"outputs": [
						{
							"internalType": "uint256",
							"name": "id",
							"type": "uint256"
						},
						{
							"internalType": "address",
							"name": "author",
							"type": "address"
						},
						{
							"internalType": "string",
							"name": "content",
							"type": "string"
						},
						{
							"internalType": "uint256",
							"name": "timestamp",
							"type": "uint256"
						},
						{
							"internalType": "uint256",
							"name": "likes",
							"type": "uint256"
						}
					],
					"stateMutability": "view",
					"type": "function"
				},
				{
					"inputs": [
						{
							"internalType": "address",
							"name": "author",
							"type": "address"
						},
						{
							"internalType": "uint256",
							"name": "id",
							"type": "uint256"
						}
					],
					"name": "unlikeTweet",
					"outputs": [],
					"stateMutability": "nonpayable",
					"type": "function"
				}
			],
			"devdoc": {
				"kind": "dev",
				"methods": {},
				"version": 1
			},
			"evm": {
				"assembly": "    /* \"contracts/Twitter.sol\":57:1909  contract Twitter {... */\n  mstore(0x40, 0x80)\n    /* \"contracts/Twitter.sol\":113:116  220 */\n  0xdc\n    /* \"contracts/Twitter.sol\":80:116  uint16 public MAX_TWEET_LENGTH = 220 */\n  0x00\n  dup1\n  0x0100\n  exp\n  dup2\n  sload\n  dup2\n  0xffff\n  mul\n  not\n  and\n  swap1\n  dup4\n  0xffff\n  and\n  mul\n  or\n  swap1\n  sstore\n  pop\n    /* \"contracts/Twitter.sol\":340:389  constructor() {... */\n  callvalue\n  dup1\n  iszero\n  tag_1\n  jumpi\n  0x00\n  dup1\n  revert\ntag_1:\n  pop\n    /* \"contracts/Twitter.sol\":372:382  msg.sender */\n  caller\n    /* \"contracts/Twitter.sol\":364:369  owner */\n  0x02\n  0x00\n    /* \"contracts/Twitter.sol\":364:382  owner = msg.sender */\n  0x0100\n  exp\n  dup2\n  sload\n  dup2\n  0xffffffffffffffffffffffffffffffffffffffff\n  mul\n  not\n  and\n  swap1\n  dup4\n  0xffffffffffffffffffffffffffffffffffffffff\n  and\n  mul\n  or\n  swap1\n  sstore\n  pop\n    /* \"contracts/Twitter.sol\":57:1909  contract Twitter {... */\n  dataSize(sub_0)\n  dup1\n  dataOffset(sub_0)\n  0x00\n  codecopy\n  0x00\n  return\nstop\n\nsub_0: assembly {\n        /* \"contracts/Twitter.sol\":57:1909  contract Twitter {... */\n      mstore(0x40, 0x80)\n      callvalue\n      dup1\n      iszero\n      tag_1\n      jumpi\n      0x00\n      dup1\n      revert\n    tag_1:\n      pop\n      jumpi(tag_2, lt(calldatasize, 0x04))\n      shr(0xe0, calldataload(0x00))\n      dup1\n      0x63378216\n      gt\n      tag_12\n      jumpi\n      dup1\n      0x63378216\n      eq\n      tag_7\n      jumpi\n      dup1\n      0x6eb10797\n      eq\n      tag_8\n      jumpi\n      dup1\n      0x7c9cd2bc\n      eq\n      tag_9\n      jumpi\n      dup1\n      0x8cde680b\n      eq\n      tag_10\n      jumpi\n      dup1\n      0x8da5cb5b\n      eq\n      tag_11\n      jumpi\n      jump(tag_2)\n    tag_12:\n      dup1\n      0x05a1b4a9\n      eq\n      tag_3\n      jumpi\n      dup1\n      0x112f54e3\n      eq\n      tag_4\n      jumpi\n      dup1\n      0x12e7ee1c\n      eq\n      tag_5\n      jumpi\n      dup1\n      0x3d9b569f\n      eq\n      tag_6\n      jumpi\n    tag_2:\n      0x00\n      dup1\n      revert\n        /* \"contracts/Twitter.sol\":267:308  mapping(address => Tweet[]) public tweets */\n    tag_3:\n      tag_13\n      0x04\n      dup1\n      calldatasize\n      sub\n      dup2\n      add\n      swap1\n      tag_14\n      swap2\n      swap1\n      tag_15\n      jump\t// in\n    tag_14:\n      tag_16\n      jump\t// in\n    tag_13:\n      mload(0x40)\n      tag_17\n      swap6\n      swap5\n      swap4\n      swap3\n      swap2\n      swap1\n      tag_18\n      jump\t// in\n    tag_17:\n      mload(0x40)\n      dup1\n      swap2\n      sub\n      swap1\n      return\n        /* \"contracts/Twitter.sol\":1517:1788  function getTweet(... */\n    tag_4:\n      tag_19\n      0x04\n      dup1\n      calldatasize\n      sub\n      dup2\n      add\n      swap1\n      tag_20\n      swap2\n      swap1\n      tag_15\n      jump\t// in\n    tag_20:\n      tag_21\n      jump\t// in\n    tag_19:\n      mload(0x40)\n      tag_22\n      swap5\n      swap4\n      swap3\n      swap2\n      swap1\n      tag_23\n      jump\t// in\n    tag_22:\n      mload(0x40)\n      dup1\n      swap2\n      sub\n      swap1\n      return\n        /* \"contracts/Twitter.sol\":1794:1907  function getAllTweets(address _owner) public view returns (Tweet[] memory) {... */\n    tag_5:\n      tag_24\n      0x04\n      dup1\n      calldatasize\n      sub\n      dup2\n      add\n      swap1\n      tag_25\n      swap2\n      swap1\n      tag_26\n      jump\t// in\n    tag_25:\n      tag_27\n      jump\t// in\n    tag_24:\n      mload(0x40)\n      tag_28\n      swap2\n      swap1\n      tag_29\n      jump\t// in\n    tag_28:\n      mload(0x40)\n      dup1\n      swap2\n      sub\n      swap1\n      return\n        /* \"contracts/Twitter.sol\":1272:1511  function unlikeTweet(address author, uint256 id) external {... */\n    tag_6:\n      tag_30\n      0x04\n      dup1\n      calldatasize\n      sub\n      dup2\n      add\n      swap1\n      tag_31\n      swap2\n      swap1\n      tag_15\n      jump\t// in\n    tag_31:\n      tag_32\n      jump\t// in\n    tag_30:\n      stop\n        /* \"contracts/Twitter.sol\":1099:1267  function likeTweet(address author, uint256 id) external {... */\n    tag_7:\n      tag_33\n      0x04\n      dup1\n      calldatasize\n      sub\n      dup2\n      add\n      swap1\n      tag_34\n      swap2\n      swap1\n      tag_15\n      jump\t// in\n    tag_34:\n      tag_35\n      jump\t// in\n    tag_33:\n      stop\n        /* \"contracts/Twitter.sol\":80:116  uint16 public MAX_TWEET_LENGTH = 220 */\n    tag_8:\n      tag_36\n      tag_37\n      jump\t// in\n    tag_36:\n      mload(0x40)\n      tag_38\n      swap2\n      swap1\n      tag_39\n      jump\t// in\n    tag_38:\n      mload(0x40)\n      dup1\n      swap2\n      sub\n      swap1\n      return\n        /* \"contracts/Twitter.sol\":630:1094  function createTweet(string memory _tweetContent) public {... */\n    tag_9:\n      tag_40\n      0x04\n      dup1\n      calldatasize\n      sub\n      dup2\n      add\n      swap1\n      tag_41\n      swap2\n      swap1\n      tag_42\n      jump\t// in\n    tag_41:\n      tag_43\n      jump\t// in\n    tag_40:\n      stop\n        /* \"contracts/Twitter.sol\":507:624  function changeTweetLenght(uint16 newTweetLength) public onlyOwner {... */\n    tag_10:\n      tag_44\n      0x04\n      dup1\n      calldatasize\n      sub\n      dup2\n      add\n      swap1\n      tag_45\n      swap2\n      swap1\n      tag_46\n      jump\t// in\n    tag_45:\n      tag_47\n      jump\t// in\n    tag_44:\n      stop\n        /* \"contracts/Twitter.sol\":314:334  address public owner */\n    tag_11:\n      tag_48\n      tag_49\n      jump\t// in\n    tag_48:\n      mload(0x40)\n      tag_50\n      swap2\n      swap1\n      tag_51\n      jump\t// in\n    tag_50:\n      mload(0x40)\n      dup1\n      swap2\n      sub\n      swap1\n      return\n        /* \"contracts/Twitter.sol\":267:308  mapping(address => Tweet[]) public tweets */\n    tag_16:\n      mstore(0x20, 0x01)\n      dup2\n      0x00\n      mstore\n      keccak256(0x00, 0x40)\n      dup2\n      dup2\n      sload\n      dup2\n      lt\n      tag_52\n      jumpi\n      0x00\n      dup1\n      revert\n    tag_52:\n      swap1\n      0x00\n      mstore\n      keccak256(0x00, 0x20)\n      swap1\n      0x05\n      mul\n      add\n      0x00\n      swap2\n      pop\n      swap2\n      pop\n      pop\n      dup1\n      0x00\n      add\n      sload\n      swap1\n      dup1\n      0x01\n      add\n      0x00\n      swap1\n      sload\n      swap1\n      0x0100\n      exp\n      swap1\n      div\n      0xffffffffffffffffffffffffffffffffffffffff\n      and\n      swap1\n      dup1\n      0x02\n      add\n      dup1\n      sload\n      tag_54\n      swap1\n      tag_55\n      jump\t// in\n    tag_54:\n      dup1\n      0x1f\n      add\n      0x20\n      dup1\n      swap2\n      div\n      mul\n      0x20\n      add\n      mload(0x40)\n      swap1\n      dup2\n      add\n      0x40\n      mstore\n      dup1\n      swap3\n      swap2\n      swap1\n      dup2\n      dup2\n      mstore\n      0x20\n      add\n      dup3\n      dup1\n      sload\n      tag_56\n      swap1\n      tag_55\n      jump\t// in\n    tag_56:\n      dup1\n      iszero\n      tag_57\n      jumpi\n      dup1\n      0x1f\n      lt\n      tag_58\n      jumpi\n      0x0100\n      dup1\n      dup4\n      sload\n      div\n      mul\n      dup4\n      mstore\n      swap2\n      0x20\n      add\n      swap2\n      jump(tag_57)\n    tag_58:\n      dup3\n      add\n      swap2\n      swap1\n      0x00\n      mstore\n      keccak256(0x00, 0x20)\n      swap1\n    tag_59:\n      dup2\n      sload\n      dup2\n      mstore\n      swap1\n      0x01\n      add\n      swap1\n      0x20\n      add\n      dup1\n      dup4\n      gt\n      tag_59\n      jumpi\n      dup3\n      swap1\n      sub\n      0x1f\n      and\n      dup3\n      add\n      swap2\n    tag_57:\n      pop\n      pop\n      pop\n      pop\n      pop\n      swap1\n      dup1\n      0x03\n      add\n      sload\n      swap1\n      dup1\n      0x04\n      add\n      sload\n      swap1\n      pop\n      dup6\n      jump\t// out\n        /* \"contracts/Twitter.sol\":1517:1788  function getTweet(... */\n    tag_21:\n        /* \"contracts/Twitter.sol\":1610:1617  address */\n      0x00\n        /* \"contracts/Twitter.sol\":1619:1632  string memory */\n      0x60\n        /* \"contracts/Twitter.sol\":1634:1641  uint256 */\n      0x00\n        /* \"contracts/Twitter.sol\":1643:1650  uint256 */\n      dup1\n        /* \"contracts/Twitter.sol\":1662:1680  Tweet memory tweet */\n      0x00\n        /* \"contracts/Twitter.sol\":1683:1689  tweets */\n      0x01\n        /* \"contracts/Twitter.sol\":1683:1697  tweets[_owner] */\n      0x00\n        /* \"contracts/Twitter.sol\":1690:1696  _owner */\n      dup9\n        /* \"contracts/Twitter.sol\":1683:1697  tweets[_owner] */\n      0xffffffffffffffffffffffffffffffffffffffff\n      and\n      0xffffffffffffffffffffffffffffffffffffffff\n      and\n      dup2\n      mstore\n      0x20\n      add\n      swap1\n      dup2\n      mstore\n      0x20\n      add\n      0x00\n      keccak256\n        /* \"contracts/Twitter.sol\":1698:1704  _index */\n      dup7\n        /* \"contracts/Twitter.sol\":1683:1705  tweets[_owner][_index] */\n      dup2\n      sload\n      dup2\n      lt\n      tag_61\n      jumpi\n      tag_62\n      tag_63\n      jump\t// in\n    tag_62:\n    tag_61:\n      swap1\n      0x00\n      mstore\n      keccak256(0x00, 0x20)\n      swap1\n      0x05\n      mul\n      add\n        /* \"contracts/Twitter.sol\":1662:1705  Tweet memory tweet = tweets[_owner][_index] */\n      mload(0x40)\n      dup1\n      0xa0\n      add\n      0x40\n      mstore\n      swap1\n      dup2\n      0x00\n      dup3\n      add\n      sload\n      dup2\n      mstore\n      0x20\n      add\n      0x01\n      dup3\n      add\n      0x00\n      swap1\n      sload\n      swap1\n      0x0100\n      exp\n      swap1\n      div\n      0xffffffffffffffffffffffffffffffffffffffff\n      and\n      0xffffffffffffffffffffffffffffffffffffffff\n      and\n      0xffffffffffffffffffffffffffffffffffffffff\n      and\n      dup2\n      mstore\n      0x20\n      add\n      0x02\n      dup3\n      add\n      dup1\n      sload\n      tag_65\n      swap1\n      tag_55\n      jump\t// in\n    tag_65:\n      dup1\n      0x1f\n      add\n      0x20\n      dup1\n      swap2\n      div\n      mul\n      0x20\n      add\n      mload(0x40)\n      swap1\n      dup2\n      add\n      0x40\n      mstore\n      dup1\n      swap3\n      swap2\n      swap1\n      dup2\n      dup2\n      mstore\n      0x20\n      add\n      dup3\n      dup1\n      sload\n      tag_66\n      swap1\n      tag_55\n      jump\t// in\n    tag_66:\n      dup1\n      iszero\n      tag_67\n      jumpi\n      dup1\n      0x1f\n      lt\n      tag_68\n      jumpi\n      0x0100\n      dup1\n      dup4\n      sload\n      div\n      mul\n      dup4\n      mstore\n      swap2\n      0x20\n      add\n      swap2\n      jump(tag_67)\n    tag_68:\n      dup3\n      add\n      swap2\n      swap1\n      0x00\n      mstore\n      keccak256(0x00, 0x20)\n      swap1\n    tag_69:\n      dup2\n      sload\n      dup2\n      mstore\n      swap1\n      0x01\n      add\n      swap1\n      0x20\n      add\n      dup1\n      dup4\n      gt\n      tag_69\n      jumpi\n      dup3\n      swap1\n      sub\n      0x1f\n      and\n      dup3\n      add\n      swap2\n    tag_67:\n      pop\n      pop\n      pop\n      pop\n      pop\n      dup2\n      mstore\n      0x20\n      add\n      0x03\n      dup3\n      add\n      sload\n      dup2\n      mstore\n      0x20\n      add\n      0x04\n      dup3\n      add\n      sload\n      dup2\n      mstore\n      pop\n      pop\n      swap1\n      pop\n        /* \"contracts/Twitter.sol\":1723:1728  tweet */\n      dup1\n        /* \"contracts/Twitter.sol\":1723:1735  tweet.author */\n      0x20\n      add\n      mload\n        /* \"contracts/Twitter.sol\":1737:1742  tweet */\n      dup2\n        /* \"contracts/Twitter.sol\":1737:1750  tweet.content */\n      0x40\n      add\n      mload\n        /* \"contracts/Twitter.sol\":1752:1757  tweet */\n      dup3\n        /* \"contracts/Twitter.sol\":1752:1767  tweet.timestamp */\n      0x60\n      add\n      mload\n        /* \"contracts/Twitter.sol\":1769:1774  tweet */\n      dup4\n        /* \"contracts/Twitter.sol\":1769:1780  tweet.likes */\n      0x80\n      add\n      mload\n        /* \"contracts/Twitter.sol\":1715:1781  return (tweet.author, tweet.content, tweet.timestamp, tweet.likes) */\n      swap5\n      pop\n      swap5\n      pop\n      swap5\n      pop\n      swap5\n      pop\n      pop\n        /* \"contracts/Twitter.sol\":1517:1788  function getTweet(... */\n      swap3\n      swap6\n      swap2\n      swap5\n      pop\n      swap3\n      pop\n      jump\t// out\n        /* \"contracts/Twitter.sol\":1794:1907  function getAllTweets(address _owner) public view returns (Tweet[] memory) {... */\n    tag_27:\n        /* \"contracts/Twitter.sol\":1853:1867  Tweet[] memory */\n      0x60\n        /* \"contracts/Twitter.sol\":1886:1892  tweets */\n      0x01\n        /* \"contracts/Twitter.sol\":1886:1900  tweets[_owner] */\n      0x00\n        /* \"contracts/Twitter.sol\":1893:1899  _owner */\n      dup4\n        /* \"contracts/Twitter.sol\":1886:1900  tweets[_owner] */\n      0xffffffffffffffffffffffffffffffffffffffff\n      and\n      0xffffffffffffffffffffffffffffffffffffffff\n      and\n      dup2\n      mstore\n      0x20\n      add\n      swap1\n      dup2\n      mstore\n      0x20\n      add\n      0x00\n      keccak256\n        /* \"contracts/Twitter.sol\":1879:1900  return tweets[_owner] */\n      dup1\n      sload\n      dup1\n      0x20\n      mul\n      0x20\n      add\n      mload(0x40)\n      swap1\n      dup2\n      add\n      0x40\n      mstore\n      dup1\n      swap3\n      swap2\n      swap1\n      dup2\n      dup2\n      mstore\n      0x20\n      add\n      0x00\n      swap1\n    tag_71:\n      dup3\n      dup3\n      lt\n      iszero\n      tag_72\n      jumpi\n      dup4\n      dup3\n      swap1\n      0x00\n      mstore\n      keccak256(0x00, 0x20)\n      swap1\n      0x05\n      mul\n      add\n      mload(0x40)\n      dup1\n      0xa0\n      add\n      0x40\n      mstore\n      swap1\n      dup2\n      0x00\n      dup3\n      add\n      sload\n      dup2\n      mstore\n      0x20\n      add\n      0x01\n      dup3\n      add\n      0x00\n      swap1\n      sload\n      swap1\n      0x0100\n      exp\n      swap1\n      div\n      0xffffffffffffffffffffffffffffffffffffffff\n      and\n      0xffffffffffffffffffffffffffffffffffffffff\n      and\n      0xffffffffffffffffffffffffffffffffffffffff\n      and\n      dup2\n      mstore\n      0x20\n      add\n      0x02\n      dup3\n      add\n      dup1\n      sload\n      tag_74\n      swap1\n      tag_55\n      jump\t// in\n    tag_74:\n      dup1\n      0x1f\n      add\n      0x20\n      dup1\n      swap2\n      div\n      mul\n      0x20\n      add\n      mload(0x40)\n      swap1\n      dup2\n      add\n      0x40\n      mstore\n      dup1\n      swap3\n      swap2\n      swap1\n      dup2\n      dup2\n      mstore\n      0x20\n      add\n      dup3\n      dup1\n      sload\n      tag_75\n      swap1\n      tag_55\n      jump\t// in\n    tag_75:\n      dup1\n      iszero\n      tag_76\n      jumpi\n      dup1\n      0x1f\n      lt\n      tag_77\n      jumpi\n      0x0100\n      dup1\n      dup4\n      sload\n      div\n      mul\n      dup4\n      mstore\n      swap2\n      0x20\n      add\n      swap2\n      jump(tag_76)\n    tag_77:\n      dup3\n      add\n      swap2\n      swap1\n      0x00\n      mstore\n      keccak256(0x00, 0x20)\n      swap1\n    tag_78:\n      dup2\n      sload\n      dup2\n      mstore\n      swap1\n      0x01\n      add\n      swap1\n      0x20\n      add\n      dup1\n      dup4\n      gt\n      tag_78\n      jumpi\n      dup3\n      swap1\n      sub\n      0x1f\n      and\n      dup3\n      add\n      swap2\n    tag_76:\n      pop\n      pop\n      pop\n      pop\n      pop\n      dup2\n      mstore\n      0x20\n      add\n      0x03\n      dup3\n      add\n      sload\n      dup2\n      mstore\n      0x20\n      add\n      0x04\n      dup3\n      add\n      sload\n      dup2\n      mstore\n      pop\n      pop\n      dup2\n      mstore\n      0x20\n      add\n      swap1\n      0x01\n      add\n      swap1\n      jump(tag_71)\n    tag_72:\n      pop\n      pop\n      pop\n      pop\n      swap1\n      pop\n        /* \"contracts/Twitter.sol\":1794:1907  function getAllTweets(address _owner) public view returns (Tweet[] memory) {... */\n      swap2\n      swap1\n      pop\n      jump\t// out\n        /* \"contracts/Twitter.sol\":1272:1511  function unlikeTweet(address author, uint256 id) external {... */\n    tag_32:\n        /* \"contracts/Twitter.sol\":1373:1375  id */\n      dup1\n        /* \"contracts/Twitter.sol\":1348:1354  tweets */\n      0x01\n        /* \"contracts/Twitter.sol\":1348:1362  tweets[author] */\n      0x00\n        /* \"contracts/Twitter.sol\":1355:1361  author */\n      dup5\n        /* \"contracts/Twitter.sol\":1348:1362  tweets[author] */\n      0xffffffffffffffffffffffffffffffffffffffff\n      and\n      0xffffffffffffffffffffffffffffffffffffffff\n      and\n      dup2\n      mstore\n      0x20\n      add\n      swap1\n      dup2\n      mstore\n      0x20\n      add\n      0x00\n      keccak256\n        /* \"contracts/Twitter.sol\":1363:1365  id */\n      dup3\n        /* \"contracts/Twitter.sol\":1348:1366  tweets[author][id] */\n      dup2\n      sload\n      dup2\n      lt\n      tag_80\n      jumpi\n      tag_81\n      tag_63\n      jump\t// in\n    tag_81:\n    tag_80:\n      swap1\n      0x00\n      mstore\n      keccak256(0x00, 0x20)\n      swap1\n      0x05\n      mul\n      add\n        /* \"contracts/Twitter.sol\":1348:1369  tweets[author][id].id */\n      0x00\n      add\n      sload\n        /* \"contracts/Twitter.sol\":1348:1375  tweets[author][id].id == id */\n      eq\n        /* \"contracts/Twitter.sol\":1340:1399  require(tweets[author][id].id == id, \"Tweet doesnt exists\") */\n      tag_83\n      jumpi\n      mload(0x40)\n      0x08c379a000000000000000000000000000000000000000000000000000000000\n      dup2\n      mstore\n      0x04\n      add\n      tag_84\n      swap1\n      tag_85\n      jump\t// in\n    tag_84:\n      mload(0x40)\n      dup1\n      swap2\n      sub\n      swap1\n      revert\n    tag_83:\n        /* \"contracts/Twitter.sol\":1444:1445  0 */\n      0x00\n        /* \"contracts/Twitter.sol\":1417:1423  tweets */\n      0x01\n        /* \"contracts/Twitter.sol\":1417:1431  tweets[author] */\n      0x00\n        /* \"contracts/Twitter.sol\":1424:1430  author */\n      dup5\n        /* \"contracts/Twitter.sol\":1417:1431  tweets[author] */\n      0xffffffffffffffffffffffffffffffffffffffff\n      and\n      0xffffffffffffffffffffffffffffffffffffffff\n      and\n      dup2\n      mstore\n      0x20\n      add\n      swap1\n      dup2\n      mstore\n      0x20\n      add\n      0x00\n      keccak256\n        /* \"contracts/Twitter.sol\":1432:1434  id */\n      dup3\n        /* \"contracts/Twitter.sol\":1417:1435  tweets[author][id] */\n      dup2\n      sload\n      dup2\n      lt\n      tag_86\n      jumpi\n      tag_87\n      tag_63\n      jump\t// in\n    tag_87:\n    tag_86:\n      swap1\n      0x00\n      mstore\n      keccak256(0x00, 0x20)\n      swap1\n      0x05\n      mul\n      add\n        /* \"contracts/Twitter.sol\":1417:1441  tweets[author][id].likes */\n      0x04\n      add\n      sload\n        /* \"contracts/Twitter.sol\":1417:1445  tweets[author][id].likes > 0 */\n      gt\n        /* \"contracts/Twitter.sol\":1409:1468  require(tweets[author][id].likes > 0, \"Tweet has no likes\") */\n      tag_89\n      jumpi\n      mload(0x40)\n      0x08c379a000000000000000000000000000000000000000000000000000000000\n      dup2\n      mstore\n      0x04\n      add\n      tag_90\n      swap1\n      tag_91\n      jump\t// in\n    tag_90:\n      mload(0x40)\n      dup1\n      swap2\n      sub\n      swap1\n      revert\n    tag_89:\n        /* \"contracts/Twitter.sol\":1478:1484  tweets */\n      0x01\n        /* \"contracts/Twitter.sol\":1478:1492  tweets[author] */\n      0x00\n        /* \"contracts/Twitter.sol\":1485:1491  author */\n      dup4\n        /* \"contracts/Twitter.sol\":1478:1492  tweets[author] */\n      0xffffffffffffffffffffffffffffffffffffffff\n      and\n      0xffffffffffffffffffffffffffffffffffffffff\n      and\n      dup2\n      mstore\n      0x20\n      add\n      swap1\n      dup2\n      mstore\n      0x20\n      add\n      0x00\n      keccak256\n        /* \"contracts/Twitter.sol\":1493:1495  id */\n      dup2\n        /* \"contracts/Twitter.sol\":1478:1496  tweets[author][id] */\n      dup2\n      sload\n      dup2\n      lt\n      tag_92\n      jumpi\n      tag_93\n      tag_63\n      jump\t// in\n    tag_93:\n    tag_92:\n      swap1\n      0x00\n      mstore\n      keccak256(0x00, 0x20)\n      swap1\n      0x05\n      mul\n      add\n        /* \"contracts/Twitter.sol\":1478:1502  tweets[author][id].likes */\n      0x04\n      add\n      0x00\n        /* \"contracts/Twitter.sol\":1478:1504  tweets[author][id].likes-- */\n      dup2\n      sload\n      dup1\n      swap3\n      swap2\n      swap1\n      tag_95\n      swap1\n      tag_96\n      jump\t// in\n    tag_95:\n      swap2\n      swap1\n      pop\n      sstore\n      pop\n        /* \"contracts/Twitter.sol\":1272:1511  function unlikeTweet(address author, uint256 id) external {... */\n      pop\n      pop\n      jump\t// out\n        /* \"contracts/Twitter.sol\":1099:1267  function likeTweet(address author, uint256 id) external {... */\n    tag_35:\n        /* \"contracts/Twitter.sol\":1198:1200  id */\n      dup1\n        /* \"contracts/Twitter.sol\":1173:1179  tweets */\n      0x01\n        /* \"contracts/Twitter.sol\":1173:1187  tweets[author] */\n      0x00\n        /* \"contracts/Twitter.sol\":1180:1186  author */\n      dup5\n        /* \"contracts/Twitter.sol\":1173:1187  tweets[author] */\n      0xffffffffffffffffffffffffffffffffffffffff\n      and\n      0xffffffffffffffffffffffffffffffffffffffff\n      and\n      dup2\n      mstore\n      0x20\n      add\n      swap1\n      dup2\n      mstore\n      0x20\n      add\n      0x00\n      keccak256\n        /* \"contracts/Twitter.sol\":1188:1190  id */\n      dup3\n        /* \"contracts/Twitter.sol\":1173:1191  tweets[author][id] */\n      dup2\n      sload\n      dup2\n      lt\n      tag_98\n      jumpi\n      tag_99\n      tag_63\n      jump\t// in\n    tag_99:\n    tag_98:\n      swap1\n      0x00\n      mstore\n      keccak256(0x00, 0x20)\n      swap1\n      0x05\n      mul\n      add\n        /* \"contracts/Twitter.sol\":1173:1194  tweets[author][id].id */\n      0x00\n      add\n      sload\n        /* \"contracts/Twitter.sol\":1173:1200  tweets[author][id].id == id */\n      eq\n        /* \"contracts/Twitter.sol\":1165:1224  require(tweets[author][id].id == id, \"Tweet doesnt exists\") */\n      tag_101\n      jumpi\n      mload(0x40)\n      0x08c379a000000000000000000000000000000000000000000000000000000000\n      dup2\n      mstore\n      0x04\n      add\n      tag_102\n      swap1\n      tag_85\n      jump\t// in\n    tag_102:\n      mload(0x40)\n      dup1\n      swap2\n      sub\n      swap1\n      revert\n    tag_101:\n        /* \"contracts/Twitter.sol\":1234:1240  tweets */\n      0x01\n        /* \"contracts/Twitter.sol\":1234:1248  tweets[author] */\n      0x00\n        /* \"contracts/Twitter.sol\":1241:1247  author */\n      dup4\n        /* \"contracts/Twitter.sol\":1234:1248  tweets[author] */\n      0xffffffffffffffffffffffffffffffffffffffff\n      and\n      0xffffffffffffffffffffffffffffffffffffffff\n      and\n      dup2\n      mstore\n      0x20\n      add\n      swap1\n      dup2\n      mstore\n      0x20\n      add\n      0x00\n      keccak256\n        /* \"contracts/Twitter.sol\":1249:1251  id */\n      dup2\n        /* \"contracts/Twitter.sol\":1234:1252  tweets[author][id] */\n      dup2\n      sload\n      dup2\n      lt\n      tag_103\n      jumpi\n      tag_104\n      tag_63\n      jump\t// in\n    tag_104:\n    tag_103:\n      swap1\n      0x00\n      mstore\n      keccak256(0x00, 0x20)\n      swap1\n      0x05\n      mul\n      add\n        /* \"contracts/Twitter.sol\":1234:1258  tweets[author][id].likes */\n      0x04\n      add\n      0x00\n        /* \"contracts/Twitter.sol\":1234:1260  tweets[author][id].likes++ */\n      dup2\n      sload\n      dup1\n      swap3\n      swap2\n      swap1\n      tag_106\n      swap1\n      tag_107\n      jump\t// in\n    tag_106:\n      swap2\n      swap1\n      pop\n      sstore\n      pop\n        /* \"contracts/Twitter.sol\":1099:1267  function likeTweet(address author, uint256 id) external {... */\n      pop\n      pop\n      jump\t// out\n        /* \"contracts/Twitter.sol\":80:116  uint16 public MAX_TWEET_LENGTH = 220 */\n    tag_37:\n      0x00\n      dup1\n      sload\n      swap1\n      0x0100\n      exp\n      swap1\n      div\n      0xffff\n      and\n      dup2\n      jump\t// out\n        /* \"contracts/Twitter.sol\":630:1094  function createTweet(string memory _tweetContent) public {... */\n    tag_43:\n        /* \"contracts/Twitter.sol\":749:765  MAX_TWEET_LENGTH */\n      0x00\n      dup1\n      sload\n      swap1\n      0x0100\n      exp\n      swap1\n      div\n      0xffff\n      and\n        /* \"contracts/Twitter.sol\":718:765  bytes(_tweetContent).length <= MAX_TWEET_LENGTH */\n      0xffff\n      and\n        /* \"contracts/Twitter.sol\":724:737  _tweetContent */\n      dup2\n        /* \"contracts/Twitter.sol\":718:745  bytes(_tweetContent).length */\n      mload\n        /* \"contracts/Twitter.sol\":718:765  bytes(_tweetContent).length <= MAX_TWEET_LENGTH */\n      gt\n      iszero\n        /* \"contracts/Twitter.sol\":697:820  require(... */\n      tag_109\n      jumpi\n      mload(0x40)\n      0x08c379a000000000000000000000000000000000000000000000000000000000\n      dup2\n      mstore\n      0x04\n      add\n      tag_110\n      swap1\n      tag_111\n      jump\t// in\n    tag_110:\n      mload(0x40)\n      dup1\n      swap2\n      sub\n      swap1\n      revert\n    tag_109:\n        /* \"contracts/Twitter.sol\":830:851  Tweet memory newTweet */\n      0x00\n        /* \"contracts/Twitter.sol\":854:1044  Tweet({... */\n      mload(0x40)\n      dup1\n      0xa0\n      add\n      0x40\n      mstore\n      dup1\n        /* \"contracts/Twitter.sol\":878:884  tweets */\n      0x01\n        /* \"contracts/Twitter.sol\":878:896  tweets[msg.sender] */\n      0x00\n        /* \"contracts/Twitter.sol\":885:895  msg.sender */\n      caller\n        /* \"contracts/Twitter.sol\":878:896  tweets[msg.sender] */\n      0xffffffffffffffffffffffffffffffffffffffff\n      and\n      0xffffffffffffffffffffffffffffffffffffffff\n      and\n      dup2\n      mstore\n      0x20\n      add\n      swap1\n      dup2\n      mstore\n      0x20\n      add\n      0x00\n      keccak256\n        /* \"contracts/Twitter.sol\":878:903  tweets[msg.sender].length */\n      dup1\n      sload\n      swap1\n      pop\n        /* \"contracts/Twitter.sol\":854:1044  Tweet({... */\n      dup2\n      mstore\n      0x20\n      add\n        /* \"contracts/Twitter.sol\":925:935  msg.sender */\n      caller\n        /* \"contracts/Twitter.sol\":854:1044  Tweet({... */\n      0xffffffffffffffffffffffffffffffffffffffff\n      and\n      dup2\n      mstore\n      0x20\n      add\n        /* \"contracts/Twitter.sol\":958:971  _tweetContent */\n      dup4\n        /* \"contracts/Twitter.sol\":854:1044  Tweet({... */\n      dup2\n      mstore\n      0x20\n      add\n        /* \"contracts/Twitter.sol\":996:1011  block.timestamp */\n      timestamp\n        /* \"contracts/Twitter.sol\":854:1044  Tweet({... */\n      dup2\n      mstore\n      0x20\n      add\n        /* \"contracts/Twitter.sol\":1032:1033  0 */\n      0x00\n        /* \"contracts/Twitter.sol\":854:1044  Tweet({... */\n      dup2\n      mstore\n      pop\n        /* \"contracts/Twitter.sol\":830:1044  Tweet memory newTweet = Tweet({... */\n      swap1\n      pop\n        /* \"contracts/Twitter.sol\":1054:1060  tweets */\n      0x01\n        /* \"contracts/Twitter.sol\":1054:1072  tweets[msg.sender] */\n      0x00\n        /* \"contracts/Twitter.sol\":1061:1071  msg.sender */\n      caller\n        /* \"contracts/Twitter.sol\":1054:1072  tweets[msg.sender] */\n      0xffffffffffffffffffffffffffffffffffffffff\n      and\n      0xffffffffffffffffffffffffffffffffffffffff\n      and\n      dup2\n      mstore\n      0x20\n      add\n      swap1\n      dup2\n      mstore\n      0x20\n      add\n      0x00\n      keccak256\n        /* \"contracts/Twitter.sol\":1078:1086  newTweet */\n      dup2\n        /* \"contracts/Twitter.sol\":1054:1087  tweets[msg.sender].push(newTweet) */\n      swap1\n      dup1\n      0x01\n      dup2\n      sload\n      add\n      dup1\n      dup3\n      sstore\n      dup1\n      swap2\n      pop\n      pop\n      0x01\n      swap1\n      sub\n      swap1\n      0x00\n      mstore\n      keccak256(0x00, 0x20)\n      swap1\n      0x05\n      mul\n      add\n      0x00\n      swap1\n      swap2\n      swap1\n      swap2\n      swap1\n      swap2\n      pop\n      0x00\n      dup3\n      add\n      mload\n      dup2\n      0x00\n      add\n      sstore\n      0x20\n      dup3\n      add\n      mload\n      dup2\n      0x01\n      add\n      exp(0x0100, 0x00)\n      dup2\n      sload\n      dup2\n      0xffffffffffffffffffffffffffffffffffffffff\n      mul\n      not\n      and\n      swap1\n      dup4\n      0xffffffffffffffffffffffffffffffffffffffff\n      and\n      mul\n      or\n      swap1\n      sstore\n      pop\n      0x40\n      dup3\n      add\n      mload\n      dup2\n      0x02\n      add\n      swap1\n      dup2\n      tag_113\n      swap2\n      swap1\n      tag_114\n      jump\t// in\n    tag_113:\n      pop\n      0x60\n      dup3\n      add\n      mload\n      dup2\n      0x03\n      add\n      sstore\n      0x80\n      dup3\n      add\n      mload\n      dup2\n      0x04\n      add\n      sstore\n      pop\n      pop\n        /* \"contracts/Twitter.sol\":687:1094  {... */\n      pop\n        /* \"contracts/Twitter.sol\":630:1094  function createTweet(string memory _tweetContent) public {... */\n      pop\n      jump\t// out\n        /* \"contracts/Twitter.sol\":507:624  function changeTweetLenght(uint16 newTweetLength) public onlyOwner {... */\n    tag_47:\n        /* \"contracts/Twitter.sol\":447:452  owner */\n      0x02\n      0x00\n      swap1\n      sload\n      swap1\n      0x0100\n      exp\n      swap1\n      div\n      0xffffffffffffffffffffffffffffffffffffffff\n      and\n        /* \"contracts/Twitter.sol\":433:452  msg.sender == owner */\n      0xffffffffffffffffffffffffffffffffffffffff\n      and\n        /* \"contracts/Twitter.sol\":433:443  msg.sender */\n      caller\n        /* \"contracts/Twitter.sol\":433:452  msg.sender == owner */\n      0xffffffffffffffffffffffffffffffffffffffff\n      and\n      eq\n        /* \"contracts/Twitter.sol\":425:483  require(msg.sender == owner, \"Hey, You are not the Owner\") */\n      tag_116\n      jumpi\n      mload(0x40)\n      0x08c379a000000000000000000000000000000000000000000000000000000000\n      dup2\n      mstore\n      0x04\n      add\n      tag_117\n      swap1\n      tag_118\n      jump\t// in\n    tag_117:\n      mload(0x40)\n      dup1\n      swap2\n      sub\n      swap1\n      revert\n    tag_116:\n        /* \"contracts/Twitter.sol\":603:617  newTweetLength */\n      dup1\n        /* \"contracts/Twitter.sol\":584:600  MAX_TWEET_LENGTH */\n      0x00\n      dup1\n        /* \"contracts/Twitter.sol\":584:617  MAX_TWEET_LENGTH = newTweetLength */\n      0x0100\n      exp\n      dup2\n      sload\n      dup2\n      0xffff\n      mul\n      not\n      and\n      swap1\n      dup4\n      0xffff\n      and\n      mul\n      or\n      swap1\n      sstore\n      pop\n        /* \"contracts/Twitter.sol\":507:624  function changeTweetLenght(uint16 newTweetLength) public onlyOwner {... */\n      pop\n      jump\t// out\n        /* \"contracts/Twitter.sol\":314:334  address public owner */\n    tag_49:\n      0x02\n      0x00\n      swap1\n      sload\n      swap1\n      0x0100\n      exp\n      swap1\n      div\n      0xffffffffffffffffffffffffffffffffffffffff\n      and\n      dup2\n      jump\t// out\n        /* \"#utility.yul\":7:82   */\n    tag_120:\n        /* \"#utility.yul\":40:46   */\n      0x00\n        /* \"#utility.yul\":73:75   */\n      0x40\n        /* \"#utility.yul\":67:76   */\n      mload\n        /* \"#utility.yul\":57:76   */\n      swap1\n      pop\n        /* \"#utility.yul\":7:82   */\n      swap1\n      jump\t// out\n        /* \"#utility.yul\":88:205   */\n    tag_121:\n        /* \"#utility.yul\":197:198   */\n      0x00\n        /* \"#utility.yul\":194:195   */\n      dup1\n        /* \"#utility.yul\":187:199   */\n      revert\n        /* \"#utility.yul\":211:328   */\n    tag_122:\n        /* \"#utility.yul\":320:321   */\n      0x00\n        /* \"#utility.yul\":317:318   */\n      dup1\n        /* \"#utility.yul\":310:322   */\n      revert\n        /* \"#utility.yul\":334:460   */\n    tag_123:\n        /* \"#utility.yul\":371:378   */\n      0x00\n        /* \"#utility.yul\":411:453   */\n      0xffffffffffffffffffffffffffffffffffffffff\n        /* \"#utility.yul\":404:409   */\n      dup3\n        /* \"#utility.yul\":400:454   */\n      and\n        /* \"#utility.yul\":389:454   */\n      swap1\n      pop\n        /* \"#utility.yul\":334:460   */\n      swap2\n      swap1\n      pop\n      jump\t// out\n        /* \"#utility.yul\":466:562   */\n    tag_124:\n        /* \"#utility.yul\":503:510   */\n      0x00\n        /* \"#utility.yul\":532:556   */\n      tag_192\n        /* \"#utility.yul\":550:555   */\n      dup3\n        /* \"#utility.yul\":532:556   */\n      tag_123\n      jump\t// in\n    tag_192:\n        /* \"#utility.yul\":521:556   */\n      swap1\n      pop\n        /* \"#utility.yul\":466:562   */\n      swap2\n      swap1\n      pop\n      jump\t// out\n        /* \"#utility.yul\":568:690   */\n    tag_125:\n        /* \"#utility.yul\":641:665   */\n      tag_194\n        /* \"#utility.yul\":659:664   */\n      dup2\n        /* \"#utility.yul\":641:665   */\n      tag_124\n      jump\t// in\n    tag_194:\n        /* \"#utility.yul\":634:639   */\n      dup2\n        /* \"#utility.yul\":631:666   */\n      eq\n        /* \"#utility.yul\":621:684   */\n      tag_195\n      jumpi\n        /* \"#utility.yul\":680:681   */\n      0x00\n        /* \"#utility.yul\":677:678   */\n      dup1\n        /* \"#utility.yul\":670:682   */\n      revert\n        /* \"#utility.yul\":621:684   */\n    tag_195:\n        /* \"#utility.yul\":568:690   */\n      pop\n      jump\t// out\n        /* \"#utility.yul\":696:835   */\n    tag_126:\n        /* \"#utility.yul\":742:747   */\n      0x00\n        /* \"#utility.yul\":780:786   */\n      dup2\n        /* \"#utility.yul\":767:787   */\n      calldataload\n        /* \"#utility.yul\":758:787   */\n      swap1\n      pop\n        /* \"#utility.yul\":796:829   */\n      tag_197\n        /* \"#utility.yul\":823:828   */\n      dup2\n        /* \"#utility.yul\":796:829   */\n      tag_125\n      jump\t// in\n    tag_197:\n        /* \"#utility.yul\":696:835   */\n      swap3\n      swap2\n      pop\n      pop\n      jump\t// out\n        /* \"#utility.yul\":841:918   */\n    tag_127:\n        /* \"#utility.yul\":878:885   */\n      0x00\n        /* \"#utility.yul\":907:912   */\n      dup2\n        /* \"#utility.yul\":896:912   */\n      swap1\n      pop\n        /* \"#utility.yul\":841:918   */\n      swap2\n      swap1\n      pop\n      jump\t// out\n        /* \"#utility.yul\":924:1046   */\n    tag_128:\n        /* \"#utility.yul\":997:1021   */\n      tag_200\n        /* \"#utility.yul\":1015:1020   */\n      dup2\n        /* \"#utility.yul\":997:1021   */\n      tag_127\n      jump\t// in\n    tag_200:\n        /* \"#utility.yul\":990:995   */\n      dup2\n        /* \"#utility.yul\":987:1022   */\n      eq\n        /* \"#utility.yul\":977:1040   */\n      tag_201\n      jumpi\n        /* \"#utility.yul\":1036:1037   */\n      0x00\n        /* \"#utility.yul\":1033:1034   */\n      dup1\n        /* \"#utility.yul\":1026:1038   */\n      revert\n        /* \"#utility.yul\":977:1040   */\n    tag_201:\n        /* \"#utility.yul\":924:1046   */\n      pop\n      jump\t// out\n        /* \"#utility.yul\":1052:1191   */\n    tag_129:\n        /* \"#utility.yul\":1098:1103   */\n      0x00\n        /* \"#utility.yul\":1136:1142   */\n      dup2\n        /* \"#utility.yul\":1123:1143   */\n      calldataload\n        /* \"#utility.yul\":1114:1143   */\n      swap1\n      pop\n        /* \"#utility.yul\":1152:1185   */\n      tag_203\n        /* \"#utility.yul\":1179:1184   */\n      dup2\n        /* \"#utility.yul\":1152:1185   */\n      tag_128\n      jump\t// in\n    tag_203:\n        /* \"#utility.yul\":1052:1191   */\n      swap3\n      swap2\n      pop\n      pop\n      jump\t// out\n        /* \"#utility.yul\":1197:1671   */\n    tag_15:\n        /* \"#utility.yul\":1265:1271   */\n      0x00\n        /* \"#utility.yul\":1273:1279   */\n      dup1\n        /* \"#utility.yul\":1322:1324   */\n      0x40\n        /* \"#utility.yul\":1310:1319   */\n      dup4\n        /* \"#utility.yul\":1301:1308   */\n      dup6\n        /* \"#utility.yul\":1297:1320   */\n      sub\n        /* \"#utility.yul\":1293:1325   */\n      slt\n        /* \"#utility.yul\":1290:1409   */\n      iszero\n      tag_205\n      jumpi\n        /* \"#utility.yul\":1328:1407   */\n      tag_206\n      tag_121\n      jump\t// in\n    tag_206:\n        /* \"#utility.yul\":1290:1409   */\n    tag_205:\n        /* \"#utility.yul\":1448:1449   */\n      0x00\n        /* \"#utility.yul\":1473:1526   */\n      tag_207\n        /* \"#utility.yul\":1518:1525   */\n      dup6\n        /* \"#utility.yul\":1509:1515   */\n      dup3\n        /* \"#utility.yul\":1498:1507   */\n      dup7\n        /* \"#utility.yul\":1494:1516   */\n      add\n        /* \"#utility.yul\":1473:1526   */\n      tag_126\n      jump\t// in\n    tag_207:\n        /* \"#utility.yul\":1463:1526   */\n      swap3\n      pop\n        /* \"#utility.yul\":1419:1536   */\n      pop\n        /* \"#utility.yul\":1575:1577   */\n      0x20\n        /* \"#utility.yul\":1601:1654   */\n      tag_208\n        /* \"#utility.yul\":1646:1653   */\n      dup6\n        /* \"#utility.yul\":1637:1643   */\n      dup3\n        /* \"#utility.yul\":1626:1635   */\n      dup7\n        /* \"#utility.yul\":1622:1644   */\n      add\n        /* \"#utility.yul\":1601:1654   */\n      tag_129\n      jump\t// in\n    tag_208:\n        /* \"#utility.yul\":1591:1654   */\n      swap2\n      pop\n        /* \"#utility.yul\":1546:1664   */\n      pop\n        /* \"#utility.yul\":1197:1671   */\n      swap3\n      pop\n      swap3\n      swap1\n      pop\n      jump\t// out\n        /* \"#utility.yul\":1677:1795   */\n    tag_130:\n        /* \"#utility.yul\":1764:1788   */\n      tag_210\n        /* \"#utility.yul\":1782:1787   */\n      dup2\n        /* \"#utility.yul\":1764:1788   */\n      tag_127\n      jump\t// in\n    tag_210:\n        /* \"#utility.yul\":1759:1762   */\n      dup3\n        /* \"#utility.yul\":1752:1789   */\n      mstore\n        /* \"#utility.yul\":1677:1795   */\n      pop\n      pop\n      jump\t// out\n        /* \"#utility.yul\":1801:1919   */\n    tag_131:\n        /* \"#utility.yul\":1888:1912   */\n      tag_212\n        /* \"#utility.yul\":1906:1911   */\n      dup2\n        /* \"#utility.yul\":1888:1912   */\n      tag_124\n      jump\t// in\n    tag_212:\n        /* \"#utility.yul\":1883:1886   */\n      dup3\n        /* \"#utility.yul\":1876:1913   */\n      mstore\n        /* \"#utility.yul\":1801:1919   */\n      pop\n      pop\n      jump\t// out\n        /* \"#utility.yul\":1925:2024   */\n    tag_132:\n        /* \"#utility.yul\":1977:1983   */\n      0x00\n        /* \"#utility.yul\":2011:2016   */\n      dup2\n        /* \"#utility.yul\":2005:2017   */\n      mload\n        /* \"#utility.yul\":1995:2017   */\n      swap1\n      pop\n        /* \"#utility.yul\":1925:2024   */\n      swap2\n      swap1\n      pop\n      jump\t// out\n        /* \"#utility.yul\":2030:2199   */\n    tag_133:\n        /* \"#utility.yul\":2114:2125   */\n      0x00\n        /* \"#utility.yul\":2148:2154   */\n      dup3\n        /* \"#utility.yul\":2143:2146   */\n      dup3\n        /* \"#utility.yul\":2136:2155   */\n      mstore\n        /* \"#utility.yul\":2188:2192   */\n      0x20\n        /* \"#utility.yul\":2183:2186   */\n      dup3\n        /* \"#utility.yul\":2179:2193   */\n      add\n        /* \"#utility.yul\":2164:2193   */\n      swap1\n      pop\n        /* \"#utility.yul\":2030:2199   */\n      swap3\n      swap2\n      pop\n      pop\n      jump\t// out\n        /* \"#utility.yul\":2205:2344   */\n    tag_134:\n        /* \"#utility.yul\":2294:2300   */\n      dup3\n        /* \"#utility.yul\":2289:2292   */\n      dup2\n        /* \"#utility.yul\":2284:2287   */\n      dup4\n        /* \"#utility.yul\":2278:2301   */\n      mcopy\n        /* \"#utility.yul\":2335:2336   */\n      0x00\n        /* \"#utility.yul\":2326:2332   */\n      dup4\n        /* \"#utility.yul\":2321:2324   */\n      dup4\n        /* \"#utility.yul\":2317:2333   */\n      add\n        /* \"#utility.yul\":2310:2337   */\n      mstore\n        /* \"#utility.yul\":2205:2344   */\n      pop\n      pop\n      pop\n      jump\t// out\n        /* \"#utility.yul\":2350:2452   */\n    tag_135:\n        /* \"#utility.yul\":2391:2397   */\n      0x00\n        /* \"#utility.yul\":2442:2444   */\n      0x1f\n        /* \"#utility.yul\":2438:2445   */\n      not\n        /* \"#utility.yul\":2433:2435   */\n      0x1f\n        /* \"#utility.yul\":2426:2431   */\n      dup4\n        /* \"#utility.yul\":2422:2436   */\n      add\n        /* \"#utility.yul\":2418:2446   */\n      and\n        /* \"#utility.yul\":2408:2446   */\n      swap1\n      pop\n        /* \"#utility.yul\":2350:2452   */\n      swap2\n      swap1\n      pop\n      jump\t// out\n        /* \"#utility.yul\":2458:2835   */\n    tag_136:\n        /* \"#utility.yul\":2546:2549   */\n      0x00\n        /* \"#utility.yul\":2574:2613   */\n      tag_218\n        /* \"#utility.yul\":2607:2612   */\n      dup3\n        /* \"#utility.yul\":2574:2613   */\n      tag_132\n      jump\t// in\n    tag_218:\n        /* \"#utility.yul\":2629:2700   */\n      tag_219\n        /* \"#utility.yul\":2693:2699   */\n      dup2\n        /* \"#utility.yul\":2688:2691   */\n      dup6\n        /* \"#utility.yul\":2629:2700   */\n      tag_133\n      jump\t// in\n    tag_219:\n        /* \"#utility.yul\":2622:2700   */\n      swap4\n      pop\n        /* \"#utility.yul\":2709:2774   */\n      tag_220\n        /* \"#utility.yul\":2767:2773   */\n      dup2\n        /* \"#utility.yul\":2762:2765   */\n      dup6\n        /* \"#utility.yul\":2755:2759   */\n      0x20\n        /* \"#utility.yul\":2748:2753   */\n      dup7\n        /* \"#utility.yul\":2744:2760   */\n      add\n        /* \"#utility.yul\":2709:2774   */\n      tag_134\n      jump\t// in\n    tag_220:\n        /* \"#utility.yul\":2799:2828   */\n      tag_221\n        /* \"#utility.yul\":2821:2827   */\n      dup2\n        /* \"#utility.yul\":2799:2828   */\n      tag_135\n      jump\t// in\n    tag_221:\n        /* \"#utility.yul\":2794:2797   */\n      dup5\n        /* \"#utility.yul\":2790:2829   */\n      add\n        /* \"#utility.yul\":2783:2829   */\n      swap2\n      pop\n        /* \"#utility.yul\":2550:2835   */\n      pop\n        /* \"#utility.yul\":2458:2835   */\n      swap3\n      swap2\n      pop\n      pop\n      jump\t// out\n        /* \"#utility.yul\":2841:3596   */\n    tag_18:\n        /* \"#utility.yul\":3066:3070   */\n      0x00\n        /* \"#utility.yul\":3104:3107   */\n      0xa0\n        /* \"#utility.yul\":3093:3102   */\n      dup3\n        /* \"#utility.yul\":3089:3108   */\n      add\n        /* \"#utility.yul\":3081:3108   */\n      swap1\n      pop\n        /* \"#utility.yul\":3118:3189   */\n      tag_223\n        /* \"#utility.yul\":3186:3187   */\n      0x00\n        /* \"#utility.yul\":3175:3184   */\n      dup4\n        /* \"#utility.yul\":3171:3188   */\n      add\n        /* \"#utility.yul\":3162:3168   */\n      dup9\n        /* \"#utility.yul\":3118:3189   */\n      tag_130\n      jump\t// in\n    tag_223:\n        /* \"#utility.yul\":3199:3271   */\n      tag_224\n        /* \"#utility.yul\":3267:3269   */\n      0x20\n        /* \"#utility.yul\":3256:3265   */\n      dup4\n        /* \"#utility.yul\":3252:3270   */\n      add\n        /* \"#utility.yul\":3243:3249   */\n      dup8\n        /* \"#utility.yul\":3199:3271   */\n      tag_131\n      jump\t// in\n    tag_224:\n        /* \"#utility.yul\":3318:3327   */\n      dup2\n        /* \"#utility.yul\":3312:3316   */\n      dup2\n        /* \"#utility.yul\":3308:3328   */\n      sub\n        /* \"#utility.yul\":3303:3305   */\n      0x40\n        /* \"#utility.yul\":3292:3301   */\n      dup4\n        /* \"#utility.yul\":3288:3306   */\n      add\n        /* \"#utility.yul\":3281:3329   */\n      mstore\n        /* \"#utility.yul\":3346:3424   */\n      tag_225\n        /* \"#utility.yul\":3419:3423   */\n      dup2\n        /* \"#utility.yul\":3410:3416   */\n      dup7\n        /* \"#utility.yul\":3346:3424   */\n      tag_136\n      jump\t// in\n    tag_225:\n        /* \"#utility.yul\":3338:3424   */\n      swap1\n      pop\n        /* \"#utility.yul\":3434:3506   */\n      tag_226\n        /* \"#utility.yul\":3502:3504   */\n      0x60\n        /* \"#utility.yul\":3491:3500   */\n      dup4\n        /* \"#utility.yul\":3487:3505   */\n      add\n        /* \"#utility.yul\":3478:3484   */\n      dup6\n        /* \"#utility.yul\":3434:3506   */\n      tag_130\n      jump\t// in\n    tag_226:\n        /* \"#utility.yul\":3516:3589   */\n      tag_227\n        /* \"#utility.yul\":3584:3587   */\n      0x80\n        /* \"#utility.yul\":3573:3582   */\n      dup4\n        /* \"#utility.yul\":3569:3588   */\n      add\n        /* \"#utility.yul\":3560:3566   */\n      dup5\n        /* \"#utility.yul\":3516:3589   */\n      tag_130\n      jump\t// in\n    tag_227:\n        /* \"#utility.yul\":2841:3596   */\n      swap7\n      swap6\n      pop\n      pop\n      pop\n      pop\n      pop\n      pop\n      jump\t// out\n        /* \"#utility.yul\":3602:4246   */\n    tag_23:\n        /* \"#utility.yul\":3799:3803   */\n      0x00\n        /* \"#utility.yul\":3837:3840   */\n      0x80\n        /* \"#utility.yul\":3826:3835   */\n      dup3\n        /* \"#utility.yul\":3822:3841   */\n      add\n        /* \"#utility.yul\":3814:3841   */\n      swap1\n      pop\n        /* \"#utility.yul\":3851:3922   */\n      tag_229\n        /* \"#utility.yul\":3919:3920   */\n      0x00\n        /* \"#utility.yul\":3908:3917   */\n      dup4\n        /* \"#utility.yul\":3904:3921   */\n      add\n        /* \"#utility.yul\":3895:3901   */\n      dup8\n        /* \"#utility.yul\":3851:3922   */\n      tag_131\n      jump\t// in\n    tag_229:\n        /* \"#utility.yul\":3969:3978   */\n      dup2\n        /* \"#utility.yul\":3963:3967   */\n      dup2\n        /* \"#utility.yul\":3959:3979   */\n      sub\n        /* \"#utility.yul\":3954:3956   */\n      0x20\n        /* \"#utility.yul\":3943:3952   */\n      dup4\n        /* \"#utility.yul\":3939:3957   */\n      add\n        /* \"#utility.yul\":3932:3980   */\n      mstore\n        /* \"#utility.yul\":3997:4075   */\n      tag_230\n        /* \"#utility.yul\":4070:4074   */\n      dup2\n        /* \"#utility.yul\":4061:4067   */\n      dup7\n        /* \"#utility.yul\":3997:4075   */\n      tag_136\n      jump\t// in\n    tag_230:\n        /* \"#utility.yul\":3989:4075   */\n      swap1\n      pop\n        /* \"#utility.yul\":4085:4157   */\n      tag_231\n        /* \"#utility.yul\":4153:4155   */\n      0x40\n        /* \"#utility.yul\":4142:4151   */\n      dup4\n        /* \"#utility.yul\":4138:4156   */\n      add\n        /* \"#utility.yul\":4129:4135   */\n      dup6\n        /* \"#utility.yul\":4085:4157   */\n      tag_130\n      jump\t// in\n    tag_231:\n        /* \"#utility.yul\":4167:4239   */\n      tag_232\n        /* \"#utility.yul\":4235:4237   */\n      0x60\n        /* \"#utility.yul\":4224:4233   */\n      dup4\n        /* \"#utility.yul\":4220:4238   */\n      add\n        /* \"#utility.yul\":4211:4217   */\n      dup5\n        /* \"#utility.yul\":4167:4239   */\n      tag_130\n      jump\t// in\n    tag_232:\n        /* \"#utility.yul\":3602:4246   */\n      swap6\n      swap5\n      pop\n      pop\n      pop\n      pop\n      pop\n      jump\t// out\n        /* \"#utility.yul\":4252:4581   */\n    tag_26:\n        /* \"#utility.yul\":4311:4317   */\n      0x00\n        /* \"#utility.yul\":4360:4362   */\n      0x20\n        /* \"#utility.yul\":4348:4357   */\n      dup3\n        /* \"#utility.yul\":4339:4346   */\n      dup5\n        /* \"#utility.yul\":4335:4358   */\n      sub\n        /* \"#utility.yul\":4331:4363   */\n      slt\n        /* \"#utility.yul\":4328:4447   */\n      iszero\n      tag_234\n      jumpi\n        /* \"#utility.yul\":4366:4445   */\n      tag_235\n      tag_121\n      jump\t// in\n    tag_235:\n        /* \"#utility.yul\":4328:4447   */\n    tag_234:\n        /* \"#utility.yul\":4486:4487   */\n      0x00\n        /* \"#utility.yul\":4511:4564   */\n      tag_236\n        /* \"#utility.yul\":4556:4563   */\n      dup5\n        /* \"#utility.yul\":4547:4553   */\n      dup3\n        /* \"#utility.yul\":4536:4545   */\n      dup6\n        /* \"#utility.yul\":4532:4554   */\n      add\n        /* \"#utility.yul\":4511:4564   */\n      tag_126\n      jump\t// in\n    tag_236:\n        /* \"#utility.yul\":4501:4564   */\n      swap2\n      pop\n        /* \"#utility.yul\":4457:4574   */\n      pop\n        /* \"#utility.yul\":4252:4581   */\n      swap3\n      swap2\n      pop\n      pop\n      jump\t// out\n        /* \"#utility.yul\":4587:4722   */\n    tag_137:\n        /* \"#utility.yul\":4675:4681   */\n      0x00\n        /* \"#utility.yul\":4709:4714   */\n      dup2\n        /* \"#utility.yul\":4703:4715   */\n      mload\n        /* \"#utility.yul\":4693:4715   */\n      swap1\n      pop\n        /* \"#utility.yul\":4587:4722   */\n      swap2\n      swap1\n      pop\n      jump\t// out\n        /* \"#utility.yul\":4728:4933   */\n    tag_138:\n        /* \"#utility.yul\":4848:4859   */\n      0x00\n        /* \"#utility.yul\":4882:4888   */\n      dup3\n        /* \"#utility.yul\":4877:4880   */\n      dup3\n        /* \"#utility.yul\":4870:4889   */\n      mstore\n        /* \"#utility.yul\":4922:4926   */\n      0x20\n        /* \"#utility.yul\":4917:4920   */\n      dup3\n        /* \"#utility.yul\":4913:4927   */\n      add\n        /* \"#utility.yul\":4898:4927   */\n      swap1\n      pop\n        /* \"#utility.yul\":4728:4933   */\n      swap3\n      swap2\n      pop\n      pop\n      jump\t// out\n        /* \"#utility.yul\":4939:5092   */\n    tag_139:\n        /* \"#utility.yul\":5027:5031   */\n      0x00\n        /* \"#utility.yul\":5050:5053   */\n      dup2\n        /* \"#utility.yul\":5042:5053   */\n      swap1\n      pop\n        /* \"#utility.yul\":5080:5084   */\n      0x20\n        /* \"#utility.yul\":5075:5078   */\n      dup3\n        /* \"#utility.yul\":5071:5085   */\n      add\n        /* \"#utility.yul\":5063:5085   */\n      swap1\n      pop\n        /* \"#utility.yul\":4939:5092   */\n      swap2\n      swap1\n      pop\n      jump\t// out\n        /* \"#utility.yul\":5098:5206   */\n    tag_140:\n        /* \"#utility.yul\":5175:5199   */\n      tag_241\n        /* \"#utility.yul\":5193:5198   */\n      dup2\n        /* \"#utility.yul\":5175:5199   */\n      tag_127\n      jump\t// in\n    tag_241:\n        /* \"#utility.yul\":5170:5173   */\n      dup3\n        /* \"#utility.yul\":5163:5200   */\n      mstore\n        /* \"#utility.yul\":5098:5206   */\n      pop\n      pop\n      jump\t// out\n        /* \"#utility.yul\":5212:5320   */\n    tag_141:\n        /* \"#utility.yul\":5289:5313   */\n      tag_243\n        /* \"#utility.yul\":5307:5312   */\n      dup2\n        /* \"#utility.yul\":5289:5313   */\n      tag_124\n      jump\t// in\n    tag_243:\n        /* \"#utility.yul\":5284:5287   */\n      dup3\n        /* \"#utility.yul\":5277:5314   */\n      mstore\n        /* \"#utility.yul\":5212:5320   */\n      pop\n      pop\n      jump\t// out\n        /* \"#utility.yul\":5326:5485   */\n    tag_142:\n        /* \"#utility.yul\":5400:5411   */\n      0x00\n        /* \"#utility.yul\":5434:5440   */\n      dup3\n        /* \"#utility.yul\":5429:5432   */\n      dup3\n        /* \"#utility.yul\":5422:5441   */\n      mstore\n        /* \"#utility.yul\":5474:5478   */\n      0x20\n        /* \"#utility.yul\":5469:5472   */\n      dup3\n        /* \"#utility.yul\":5465:5479   */\n      add\n        /* \"#utility.yul\":5450:5479   */\n      swap1\n      pop\n        /* \"#utility.yul\":5326:5485   */\n      swap3\n      swap2\n      pop\n      pop\n      jump\t// out\n        /* \"#utility.yul\":5491:5848   */\n    tag_143:\n        /* \"#utility.yul\":5569:5572   */\n      0x00\n        /* \"#utility.yul\":5597:5636   */\n      tag_246\n        /* \"#utility.yul\":5630:5635   */\n      dup3\n        /* \"#utility.yul\":5597:5636   */\n      tag_132\n      jump\t// in\n    tag_246:\n        /* \"#utility.yul\":5652:5713   */\n      tag_247\n        /* \"#utility.yul\":5706:5712   */\n      dup2\n        /* \"#utility.yul\":5701:5704   */\n      dup6\n        /* \"#utility.yul\":5652:5713   */\n      tag_142\n      jump\t// in\n    tag_247:\n        /* \"#utility.yul\":5645:5713   */\n      swap4\n      pop\n        /* \"#utility.yul\":5722:5787   */\n      tag_248\n        /* \"#utility.yul\":5780:5786   */\n      dup2\n        /* \"#utility.yul\":5775:5778   */\n      dup6\n        /* \"#utility.yul\":5768:5772   */\n      0x20\n        /* \"#utility.yul\":5761:5766   */\n      dup7\n        /* \"#utility.yul\":5757:5773   */\n      add\n        /* \"#utility.yul\":5722:5787   */\n      tag_134\n      jump\t// in\n    tag_248:\n        /* \"#utility.yul\":5812:5841   */\n      tag_249\n        /* \"#utility.yul\":5834:5840   */\n      dup2\n        /* \"#utility.yul\":5812:5841   */\n      tag_135\n      jump\t// in\n    tag_249:\n        /* \"#utility.yul\":5807:5810   */\n      dup5\n        /* \"#utility.yul\":5803:5842   */\n      add\n        /* \"#utility.yul\":5796:5842   */\n      swap2\n      pop\n        /* \"#utility.yul\":5573:5848   */\n      pop\n        /* \"#utility.yul\":5491:5848   */\n      swap3\n      swap2\n      pop\n      pop\n      jump\t// out\n        /* \"#utility.yul\":5906:7025   */\n    tag_144:\n        /* \"#utility.yul\":6007:6010   */\n      0x00\n        /* \"#utility.yul\":6043:6047   */\n      0xa0\n        /* \"#utility.yul\":6038:6041   */\n      dup4\n        /* \"#utility.yul\":6034:6048   */\n      add\n        /* \"#utility.yul\":6128:6132   */\n      0x00\n        /* \"#utility.yul\":6121:6126   */\n      dup4\n        /* \"#utility.yul\":6117:6133   */\n      add\n        /* \"#utility.yul\":6111:6134   */\n      mload\n        /* \"#utility.yul\":6147:6210   */\n      tag_251\n        /* \"#utility.yul\":6204:6208   */\n      0x00\n        /* \"#utility.yul\":6199:6202   */\n      dup7\n        /* \"#utility.yul\":6195:6209   */\n      add\n        /* \"#utility.yul\":6181:6193   */\n      dup3\n        /* \"#utility.yul\":6147:6210   */\n      tag_140\n      jump\t// in\n    tag_251:\n        /* \"#utility.yul\":6058:6220   */\n      pop\n        /* \"#utility.yul\":6304:6308   */\n      0x20\n        /* \"#utility.yul\":6297:6302   */\n      dup4\n        /* \"#utility.yul\":6293:6309   */\n      add\n        /* \"#utility.yul\":6287:6310   */\n      mload\n        /* \"#utility.yul\":6323:6386   */\n      tag_252\n        /* \"#utility.yul\":6380:6384   */\n      0x20\n        /* \"#utility.yul\":6375:6378   */\n      dup7\n        /* \"#utility.yul\":6371:6385   */\n      add\n        /* \"#utility.yul\":6357:6369   */\n      dup3\n        /* \"#utility.yul\":6323:6386   */\n      tag_141\n      jump\t// in\n    tag_252:\n        /* \"#utility.yul\":6230:6396   */\n      pop\n        /* \"#utility.yul\":6481:6485   */\n      0x40\n        /* \"#utility.yul\":6474:6479   */\n      dup4\n        /* \"#utility.yul\":6470:6486   */\n      add\n        /* \"#utility.yul\":6464:6487   */\n      mload\n        /* \"#utility.yul\":6534:6537   */\n      dup5\n        /* \"#utility.yul\":6528:6532   */\n      dup3\n        /* \"#utility.yul\":6524:6538   */\n      sub\n        /* \"#utility.yul\":6517:6521   */\n      0x40\n        /* \"#utility.yul\":6512:6515   */\n      dup7\n        /* \"#utility.yul\":6508:6522   */\n      add\n        /* \"#utility.yul\":6501:6539   */\n      mstore\n        /* \"#utility.yul\":6560:6633   */\n      tag_253\n        /* \"#utility.yul\":6628:6632   */\n      dup3\n        /* \"#utility.yul\":6614:6626   */\n      dup3\n        /* \"#utility.yul\":6560:6633   */\n      tag_143\n      jump\t// in\n    tag_253:\n        /* \"#utility.yul\":6552:6633   */\n      swap2\n      pop\n        /* \"#utility.yul\":6406:6644   */\n      pop\n        /* \"#utility.yul\":6731:6735   */\n      0x60\n        /* \"#utility.yul\":6724:6729   */\n      dup4\n        /* \"#utility.yul\":6720:6736   */\n      add\n        /* \"#utility.yul\":6714:6737   */\n      mload\n        /* \"#utility.yul\":6750:6813   */\n      tag_254\n        /* \"#utility.yul\":6807:6811   */\n      0x60\n        /* \"#utility.yul\":6802:6805   */\n      dup7\n        /* \"#utility.yul\":6798:6812   */\n      add\n        /* \"#utility.yul\":6784:6796   */\n      dup3\n        /* \"#utility.yul\":6750:6813   */\n      tag_140\n      jump\t// in\n    tag_254:\n        /* \"#utility.yul\":6654:6823   */\n      pop\n        /* \"#utility.yul\":6906:6910   */\n      0x80\n        /* \"#utility.yul\":6899:6904   */\n      dup4\n        /* \"#utility.yul\":6895:6911   */\n      add\n        /* \"#utility.yul\":6889:6912   */\n      mload\n        /* \"#utility.yul\":6925:6988   */\n      tag_255\n        /* \"#utility.yul\":6982:6986   */\n      0x80\n        /* \"#utility.yul\":6977:6980   */\n      dup7\n        /* \"#utility.yul\":6973:6987   */\n      add\n        /* \"#utility.yul\":6959:6971   */\n      dup3\n        /* \"#utility.yul\":6925:6988   */\n      tag_140\n      jump\t// in\n    tag_255:\n        /* \"#utility.yul\":6833:6998   */\n      pop\n        /* \"#utility.yul\":7015:7019   */\n      dup1\n        /* \"#utility.yul\":7008:7019   */\n      swap2\n      pop\n        /* \"#utility.yul\":6012:7025   */\n      pop\n        /* \"#utility.yul\":5906:7025   */\n      swap3\n      swap2\n      pop\n      pop\n      jump\t// out\n        /* \"#utility.yul\":7031:7271   */\n    tag_145:\n        /* \"#utility.yul\":7142:7152   */\n      0x00\n        /* \"#utility.yul\":7177:7265   */\n      tag_257\n        /* \"#utility.yul\":7261:7264   */\n      dup4\n        /* \"#utility.yul\":7253:7259   */\n      dup4\n        /* \"#utility.yul\":7177:7265   */\n      tag_144\n      jump\t// in\n    tag_257:\n        /* \"#utility.yul\":7163:7265   */\n      swap1\n      pop\n        /* \"#utility.yul\":7031:7271   */\n      swap3\n      swap2\n      pop\n      pop\n      jump\t// out\n        /* \"#utility.yul\":7277:7411   */\n    tag_146:\n        /* \"#utility.yul\":7368:7372   */\n      0x00\n        /* \"#utility.yul\":7400:7404   */\n      0x20\n        /* \"#utility.yul\":7395:7398   */\n      dup3\n        /* \"#utility.yul\":7391:7405   */\n      add\n        /* \"#utility.yul\":7383:7405   */\n      swap1\n      pop\n        /* \"#utility.yul\":7277:7411   */\n      swap2\n      swap1\n      pop\n      jump\t// out\n        /* \"#utility.yul\":7473:8552   */\n    tag_147:\n        /* \"#utility.yul\":7634:7637   */\n      0x00\n        /* \"#utility.yul\":7663:7738   */\n      tag_260\n        /* \"#utility.yul\":7732:7737   */\n      dup3\n        /* \"#utility.yul\":7663:7738   */\n      tag_137\n      jump\t// in\n    tag_260:\n        /* \"#utility.yul\":7754:7861   */\n      tag_261\n        /* \"#utility.yul\":7854:7860   */\n      dup2\n        /* \"#utility.yul\":7849:7852   */\n      dup6\n        /* \"#utility.yul\":7754:7861   */\n      tag_138\n      jump\t// in\n    tag_261:\n        /* \"#utility.yul\":7747:7861   */\n      swap4\n      pop\n        /* \"#utility.yul\":7887:7890   */\n      dup4\n        /* \"#utility.yul\":7932:7936   */\n      0x20\n        /* \"#utility.yul\":7924:7930   */\n      dup3\n        /* \"#utility.yul\":7920:7937   */\n      mul\n        /* \"#utility.yul\":7915:7918   */\n      dup6\n        /* \"#utility.yul\":7911:7938   */\n      add\n        /* \"#utility.yul\":7962:8039   */\n      tag_262\n        /* \"#utility.yul\":8033:8038   */\n      dup6\n        /* \"#utility.yul\":7962:8039   */\n      tag_139\n      jump\t// in\n    tag_262:\n        /* \"#utility.yul\":8062:8069   */\n      dup1\n        /* \"#utility.yul\":8093:8094   */\n      0x00\n        /* \"#utility.yul\":8078:8507   */\n    tag_263:\n        /* \"#utility.yul\":8103:8109   */\n      dup6\n        /* \"#utility.yul\":8100:8101   */\n      dup2\n        /* \"#utility.yul\":8097:8110   */\n      lt\n        /* \"#utility.yul\":8078:8507   */\n      iszero\n      tag_265\n      jumpi\n        /* \"#utility.yul\":8174:8183   */\n      dup5\n        /* \"#utility.yul\":8168:8172   */\n      dup5\n        /* \"#utility.yul\":8164:8184   */\n      sub\n        /* \"#utility.yul\":8159:8162   */\n      dup10\n        /* \"#utility.yul\":8152:8185   */\n      mstore\n        /* \"#utility.yul\":8225:8231   */\n      dup2\n        /* \"#utility.yul\":8219:8232   */\n      mload\n        /* \"#utility.yul\":8253:8359   */\n      tag_266\n        /* \"#utility.yul\":8354:8358   */\n      dup6\n        /* \"#utility.yul\":8339:8352   */\n      dup3\n        /* \"#utility.yul\":8253:8359   */\n      tag_145\n      jump\t// in\n    tag_266:\n        /* \"#utility.yul\":8245:8359   */\n      swap5\n      pop\n        /* \"#utility.yul\":8382:8463   */\n      tag_267\n        /* \"#utility.yul\":8456:8462   */\n      dup4\n        /* \"#utility.yul\":8382:8463   */\n      tag_146\n      jump\t// in\n    tag_267:\n        /* \"#utility.yul\":8372:8463   */\n      swap3\n      pop\n        /* \"#utility.yul\":8492:8496   */\n      0x20\n        /* \"#utility.yul\":8487:8490   */\n      dup11\n        /* \"#utility.yul\":8483:8497   */\n      add\n        /* \"#utility.yul\":8476:8497   */\n      swap10\n      pop\n        /* \"#utility.yul\":8138:8507   */\n      pop\n        /* \"#utility.yul\":8125:8126   */\n      0x01\n        /* \"#utility.yul\":8122:8123   */\n      dup2\n        /* \"#utility.yul\":8118:8127   */\n      add\n        /* \"#utility.yul\":8113:8127   */\n      swap1\n      pop\n        /* \"#utility.yul\":8078:8507   */\n      jump(tag_263)\n    tag_265:\n        /* \"#utility.yul\":8082:8096   */\n      pop\n        /* \"#utility.yul\":8523:8527   */\n      dup3\n        /* \"#utility.yul\":8516:8527   */\n      swap8\n      pop\n        /* \"#utility.yul\":8543:8546   */\n      dup8\n        /* \"#utility.yul\":8536:8546   */\n      swap6\n      pop\n        /* \"#utility.yul\":7639:8552   */\n      pop\n      pop\n      pop\n      pop\n      pop\n        /* \"#utility.yul\":7473:8552   */\n      swap3\n      swap2\n      pop\n      pop\n      jump\t// out\n        /* \"#utility.yul\":8558:9015   */\n    tag_29:\n        /* \"#utility.yul\":8743:8747   */\n      0x00\n        /* \"#utility.yul\":8781:8783   */\n      0x20\n        /* \"#utility.yul\":8770:8779   */\n      dup3\n        /* \"#utility.yul\":8766:8784   */\n      add\n        /* \"#utility.yul\":8758:8784   */\n      swap1\n      pop\n        /* \"#utility.yul\":8830:8839   */\n      dup2\n        /* \"#utility.yul\":8824:8828   */\n      dup2\n        /* \"#utility.yul\":8820:8840   */\n      sub\n        /* \"#utility.yul\":8816:8817   */\n      0x00\n        /* \"#utility.yul\":8805:8814   */\n      dup4\n        /* \"#utility.yul\":8801:8818   */\n      add\n        /* \"#utility.yul\":8794:8841   */\n      mstore\n        /* \"#utility.yul\":8858:9008   */\n      tag_269\n        /* \"#utility.yul\":9003:9007   */\n      dup2\n        /* \"#utility.yul\":8994:9000   */\n      dup5\n        /* \"#utility.yul\":8858:9008   */\n      tag_147\n      jump\t// in\n    tag_269:\n        /* \"#utility.yul\":8850:9008   */\n      swap1\n      pop\n        /* \"#utility.yul\":8558:9015   */\n      swap3\n      swap2\n      pop\n      pop\n      jump\t// out\n        /* \"#utility.yul\":9021:9110   */\n    tag_148:\n        /* \"#utility.yul\":9057:9064   */\n      0x00\n        /* \"#utility.yul\":9097:9103   */\n      0xffff\n        /* \"#utility.yul\":9090:9095   */\n      dup3\n        /* \"#utility.yul\":9086:9104   */\n      and\n        /* \"#utility.yul\":9075:9104   */\n      swap1\n      pop\n        /* \"#utility.yul\":9021:9110   */\n      swap2\n      swap1\n      pop\n      jump\t// out\n        /* \"#utility.yul\":9116:9231   */\n    tag_149:\n        /* \"#utility.yul\":9201:9224   */\n      tag_272\n        /* \"#utility.yul\":9218:9223   */\n      dup2\n        /* \"#utility.yul\":9201:9224   */\n      tag_148\n      jump\t// in\n    tag_272:\n        /* \"#utility.yul\":9196:9199   */\n      dup3\n        /* \"#utility.yul\":9189:9225   */\n      mstore\n        /* \"#utility.yul\":9116:9231   */\n      pop\n      pop\n      jump\t// out\n        /* \"#utility.yul\":9237:9455   */\n    tag_39:\n        /* \"#utility.yul\":9328:9332   */\n      0x00\n        /* \"#utility.yul\":9366:9368   */\n      0x20\n        /* \"#utility.yul\":9355:9364   */\n      dup3\n        /* \"#utility.yul\":9351:9369   */\n      add\n        /* \"#utility.yul\":9343:9369   */\n      swap1\n      pop\n        /* \"#utility.yul\":9379:9448   */\n      tag_274\n        /* \"#utility.yul\":9445:9446   */\n      0x00\n        /* \"#utility.yul\":9434:9443   */\n      dup4\n        /* \"#utility.yul\":9430:9447   */\n      add\n        /* \"#utility.yul\":9421:9427   */\n      dup5\n        /* \"#utility.yul\":9379:9448   */\n      tag_149\n      jump\t// in\n    tag_274:\n        /* \"#utility.yul\":9237:9455   */\n      swap3\n      swap2\n      pop\n      pop\n      jump\t// out\n        /* \"#utility.yul\":9461:9578   */\n    tag_150:\n        /* \"#utility.yul\":9570:9571   */\n      0x00\n        /* \"#utility.yul\":9567:9568   */\n      dup1\n        /* \"#utility.yul\":9560:9572   */\n      revert\n        /* \"#utility.yul\":9584:9701   */\n    tag_151:\n        /* \"#utility.yul\":9693:9694   */\n      0x00\n        /* \"#utility.yul\":9690:9691   */\n      dup1\n        /* \"#utility.yul\":9683:9695   */\n      revert\n        /* \"#utility.yul\":9707:9887   */\n    tag_152:\n        /* \"#utility.yul\":9755:9832   */\n      0x4e487b7100000000000000000000000000000000000000000000000000000000\n        /* \"#utility.yul\":9752:9753   */\n      0x00\n        /* \"#utility.yul\":9745:9833   */\n      mstore\n        /* \"#utility.yul\":9852:9856   */\n      0x41\n        /* \"#utility.yul\":9849:9850   */\n      0x04\n        /* \"#utility.yul\":9842:9857   */\n      mstore\n        /* \"#utility.yul\":9876:9880   */\n      0x24\n        /* \"#utility.yul\":9873:9874   */\n      0x00\n        /* \"#utility.yul\":9866:9881   */\n      revert\n        /* \"#utility.yul\":9893:10174   */\n    tag_153:\n        /* \"#utility.yul\":9976:10003   */\n      tag_279\n        /* \"#utility.yul\":9998:10002   */\n      dup3\n        /* \"#utility.yul\":9976:10003   */\n      tag_135\n      jump\t// in\n    tag_279:\n        /* \"#utility.yul\":9968:9974   */\n      dup2\n        /* \"#utility.yul\":9964:10004   */\n      add\n        /* \"#utility.yul\":10106:10112   */\n      dup2\n        /* \"#utility.yul\":10094:10104   */\n      dup2\n        /* \"#utility.yul\":10091:10113   */\n      lt\n        /* \"#utility.yul\":10070:10088   */\n      0xffffffffffffffff\n        /* \"#utility.yul\":10058:10068   */\n      dup3\n        /* \"#utility.yul\":10055:10089   */\n      gt\n        /* \"#utility.yul\":10052:10114   */\n      or\n        /* \"#utility.yul\":10049:10137   */\n      iszero\n      tag_280\n      jumpi\n        /* \"#utility.yul\":10117:10135   */\n      tag_281\n      tag_152\n      jump\t// in\n    tag_281:\n        /* \"#utility.yul\":10049:10137   */\n    tag_280:\n        /* \"#utility.yul\":10157:10167   */\n      dup1\n        /* \"#utility.yul\":10153:10155   */\n      0x40\n        /* \"#utility.yul\":10146:10168   */\n      mstore\n        /* \"#utility.yul\":9936:10174   */\n      pop\n        /* \"#utility.yul\":9893:10174   */\n      pop\n      pop\n      jump\t// out\n        /* \"#utility.yul\":10180:10309   */\n    tag_154:\n        /* \"#utility.yul\":10214:10220   */\n      0x00\n        /* \"#utility.yul\":10241:10261   */\n      tag_283\n      tag_120\n      jump\t// in\n    tag_283:\n        /* \"#utility.yul\":10231:10261   */\n      swap1\n      pop\n        /* \"#utility.yul\":10270:10303   */\n      tag_284\n        /* \"#utility.yul\":10298:10302   */\n      dup3\n        /* \"#utility.yul\":10290:10296   */\n      dup3\n        /* \"#utility.yul\":10270:10303   */\n      tag_153\n      jump\t// in\n    tag_284:\n        /* \"#utility.yul\":10180:10309   */\n      swap2\n      swap1\n      pop\n      jump\t// out\n        /* \"#utility.yul\":10315:10623   */\n    tag_155:\n        /* \"#utility.yul\":10377:10381   */\n      0x00\n        /* \"#utility.yul\":10467:10485   */\n      0xffffffffffffffff\n        /* \"#utility.yul\":10459:10465   */\n      dup3\n        /* \"#utility.yul\":10456:10486   */\n      gt\n        /* \"#utility.yul\":10453:10509   */\n      iszero\n      tag_286\n      jumpi\n        /* \"#utility.yul\":10489:10507   */\n      tag_287\n      tag_152\n      jump\t// in\n    tag_287:\n        /* \"#utility.yul\":10453:10509   */\n    tag_286:\n        /* \"#utility.yul\":10527:10556   */\n      tag_288\n        /* \"#utility.yul\":10549:10555   */\n      dup3\n        /* \"#utility.yul\":10527:10556   */\n      tag_135\n      jump\t// in\n    tag_288:\n        /* \"#utility.yul\":10519:10556   */\n      swap1\n      pop\n        /* \"#utility.yul\":10611:10615   */\n      0x20\n        /* \"#utility.yul\":10605:10609   */\n      dup2\n        /* \"#utility.yul\":10601:10616   */\n      add\n        /* \"#utility.yul\":10593:10616   */\n      swap1\n      pop\n        /* \"#utility.yul\":10315:10623   */\n      swap2\n      swap1\n      pop\n      jump\t// out\n        /* \"#utility.yul\":10629:10777   */\n    tag_156:\n        /* \"#utility.yul\":10727:10733   */\n      dup3\n        /* \"#utility.yul\":10722:10725   */\n      dup2\n        /* \"#utility.yul\":10717:10720   */\n      dup4\n        /* \"#utility.yul\":10704:10734   */\n      calldatacopy\n        /* \"#utility.yul\":10768:10769   */\n      0x00\n        /* \"#utility.yul\":10759:10765   */\n      dup4\n        /* \"#utility.yul\":10754:10757   */\n      dup4\n        /* \"#utility.yul\":10750:10766   */\n      add\n        /* \"#utility.yul\":10743:10770   */\n      mstore\n        /* \"#utility.yul\":10629:10777   */\n      pop\n      pop\n      pop\n      jump\t// out\n        /* \"#utility.yul\":10783:11208   */\n    tag_157:\n        /* \"#utility.yul\":10861:10866   */\n      0x00\n        /* \"#utility.yul\":10886:10952   */\n      tag_291\n        /* \"#utility.yul\":10902:10951   */\n      tag_292\n        /* \"#utility.yul\":10944:10950   */\n      dup5\n        /* \"#utility.yul\":10902:10951   */\n      tag_155\n      jump\t// in\n    tag_292:\n        /* \"#utility.yul\":10886:10952   */\n      tag_154\n      jump\t// in\n    tag_291:\n        /* \"#utility.yul\":10877:10952   */\n      swap1\n      pop\n        /* \"#utility.yul\":10975:10981   */\n      dup3\n        /* \"#utility.yul\":10968:10973   */\n      dup2\n        /* \"#utility.yul\":10961:10982   */\n      mstore\n        /* \"#utility.yul\":11013:11017   */\n      0x20\n        /* \"#utility.yul\":11006:11011   */\n      dup2\n        /* \"#utility.yul\":11002:11018   */\n      add\n        /* \"#utility.yul\":11051:11054   */\n      dup5\n        /* \"#utility.yul\":11042:11048   */\n      dup5\n        /* \"#utility.yul\":11037:11040   */\n      dup5\n        /* \"#utility.yul\":11033:11049   */\n      add\n        /* \"#utility.yul\":11030:11055   */\n      gt\n        /* \"#utility.yul\":11027:11139   */\n      iszero\n      tag_293\n      jumpi\n        /* \"#utility.yul\":11058:11137   */\n      tag_294\n      tag_151\n      jump\t// in\n    tag_294:\n        /* \"#utility.yul\":11027:11139   */\n    tag_293:\n        /* \"#utility.yul\":11148:11202   */\n      tag_295\n        /* \"#utility.yul\":11195:11201   */\n      dup5\n        /* \"#utility.yul\":11190:11193   */\n      dup3\n        /* \"#utility.yul\":11185:11188   */\n      dup6\n        /* \"#utility.yul\":11148:11202   */\n      tag_156\n      jump\t// in\n    tag_295:\n        /* \"#utility.yul\":10867:11208   */\n      pop\n        /* \"#utility.yul\":10783:11208   */\n      swap4\n      swap3\n      pop\n      pop\n      pop\n      jump\t// out\n        /* \"#utility.yul\":11228:11568   */\n    tag_158:\n        /* \"#utility.yul\":11284:11289   */\n      0x00\n        /* \"#utility.yul\":11333:11336   */\n      dup3\n        /* \"#utility.yul\":11326:11330   */\n      0x1f\n        /* \"#utility.yul\":11318:11324   */\n      dup4\n        /* \"#utility.yul\":11314:11331   */\n      add\n        /* \"#utility.yul\":11310:11337   */\n      slt\n        /* \"#utility.yul\":11300:11422   */\n      tag_297\n      jumpi\n        /* \"#utility.yul\":11341:11420   */\n      tag_298\n      tag_150\n      jump\t// in\n    tag_298:\n        /* \"#utility.yul\":11300:11422   */\n    tag_297:\n        /* \"#utility.yul\":11458:11464   */\n      dup2\n        /* \"#utility.yul\":11445:11465   */\n      calldataload\n        /* \"#utility.yul\":11483:11562   */\n      tag_299\n        /* \"#utility.yul\":11558:11561   */\n      dup5\n        /* \"#utility.yul\":11550:11556   */\n      dup3\n        /* \"#utility.yul\":11543:11547   */\n      0x20\n        /* \"#utility.yul\":11535:11541   */\n      dup7\n        /* \"#utility.yul\":11531:11548   */\n      add\n        /* \"#utility.yul\":11483:11562   */\n      tag_157\n      jump\t// in\n    tag_299:\n        /* \"#utility.yul\":11474:11562   */\n      swap2\n      pop\n        /* \"#utility.yul\":11290:11568   */\n      pop\n        /* \"#utility.yul\":11228:11568   */\n      swap3\n      swap2\n      pop\n      pop\n      jump\t// out\n        /* \"#utility.yul\":11574:12083   */\n    tag_42:\n        /* \"#utility.yul\":11643:11649   */\n      0x00\n        /* \"#utility.yul\":11692:11694   */\n      0x20\n        /* \"#utility.yul\":11680:11689   */\n      dup3\n        /* \"#utility.yul\":11671:11678   */\n      dup5\n        /* \"#utility.yul\":11667:11690   */\n      sub\n        /* \"#utility.yul\":11663:11695   */\n      slt\n        /* \"#utility.yul\":11660:11779   */\n      iszero\n      tag_301\n      jumpi\n        /* \"#utility.yul\":11698:11777   */\n      tag_302\n      tag_121\n      jump\t// in\n    tag_302:\n        /* \"#utility.yul\":11660:11779   */\n    tag_301:\n        /* \"#utility.yul\":11846:11847   */\n      0x00\n        /* \"#utility.yul\":11835:11844   */\n      dup3\n        /* \"#utility.yul\":11831:11848   */\n      add\n        /* \"#utility.yul\":11818:11849   */\n      calldataload\n        /* \"#utility.yul\":11876:11894   */\n      0xffffffffffffffff\n        /* \"#utility.yul\":11868:11874   */\n      dup2\n        /* \"#utility.yul\":11865:11895   */\n      gt\n        /* \"#utility.yul\":11862:11979   */\n      iszero\n      tag_303\n      jumpi\n        /* \"#utility.yul\":11898:11977   */\n      tag_304\n      tag_122\n      jump\t// in\n    tag_304:\n        /* \"#utility.yul\":11862:11979   */\n    tag_303:\n        /* \"#utility.yul\":12003:12066   */\n      tag_305\n        /* \"#utility.yul\":12058:12065   */\n      dup5\n        /* \"#utility.yul\":12049:12055   */\n      dup3\n        /* \"#utility.yul\":12038:12047   */\n      dup6\n        /* \"#utility.yul\":12034:12056   */\n      add\n        /* \"#utility.yul\":12003:12066   */\n      tag_158\n      jump\t// in\n    tag_305:\n        /* \"#utility.yul\":11993:12066   */\n      swap2\n      pop\n        /* \"#utility.yul\":11789:12076   */\n      pop\n        /* \"#utility.yul\":11574:12083   */\n      swap3\n      swap2\n      pop\n      pop\n      jump\t// out\n        /* \"#utility.yul\":12089:12209   */\n    tag_159:\n        /* \"#utility.yul\":12161:12184   */\n      tag_307\n        /* \"#utility.yul\":12178:12183   */\n      dup2\n        /* \"#utility.yul\":12161:12184   */\n      tag_148\n      jump\t// in\n    tag_307:\n        /* \"#utility.yul\":12154:12159   */\n      dup2\n        /* \"#utility.yul\":12151:12185   */\n      eq\n        /* \"#utility.yul\":12141:12203   */\n      tag_308\n      jumpi\n        /* \"#utility.yul\":12199:12200   */\n      0x00\n        /* \"#utility.yul\":12196:12197   */\n      dup1\n        /* \"#utility.yul\":12189:12201   */\n      revert\n        /* \"#utility.yul\":12141:12203   */\n    tag_308:\n        /* \"#utility.yul\":12089:12209   */\n      pop\n      jump\t// out\n        /* \"#utility.yul\":12215:12352   */\n    tag_160:\n        /* \"#utility.yul\":12260:12265   */\n      0x00\n        /* \"#utility.yul\":12298:12304   */\n      dup2\n        /* \"#utility.yul\":12285:12305   */\n      calldataload\n        /* \"#utility.yul\":12276:12305   */\n      swap1\n      pop\n        /* \"#utility.yul\":12314:12346   */\n      tag_310\n        /* \"#utility.yul\":12340:12345   */\n      dup2\n        /* \"#utility.yul\":12314:12346   */\n      tag_159\n      jump\t// in\n    tag_310:\n        /* \"#utility.yul\":12215:12352   */\n      swap3\n      swap2\n      pop\n      pop\n      jump\t// out\n        /* \"#utility.yul\":12358:12685   */\n    tag_46:\n        /* \"#utility.yul\":12416:12422   */\n      0x00\n        /* \"#utility.yul\":12465:12467   */\n      0x20\n        /* \"#utility.yul\":12453:12462   */\n      dup3\n        /* \"#utility.yul\":12444:12451   */\n      dup5\n        /* \"#utility.yul\":12440:12463   */\n      sub\n        /* \"#utility.yul\":12436:12468   */\n      slt\n        /* \"#utility.yul\":12433:12552   */\n      iszero\n      tag_312\n      jumpi\n        /* \"#utility.yul\":12471:12550   */\n      tag_313\n      tag_121\n      jump\t// in\n    tag_313:\n        /* \"#utility.yul\":12433:12552   */\n    tag_312:\n        /* \"#utility.yul\":12591:12592   */\n      0x00\n        /* \"#utility.yul\":12616:12668   */\n      tag_314\n        /* \"#utility.yul\":12660:12667   */\n      dup5\n        /* \"#utility.yul\":12651:12657   */\n      dup3\n        /* \"#utility.yul\":12640:12649   */\n      dup6\n        /* \"#utility.yul\":12636:12658   */\n      add\n        /* \"#utility.yul\":12616:12668   */\n      tag_160\n      jump\t// in\n    tag_314:\n        /* \"#utility.yul\":12606:12668   */\n      swap2\n      pop\n        /* \"#utility.yul\":12562:12678   */\n      pop\n        /* \"#utility.yul\":12358:12685   */\n      swap3\n      swap2\n      pop\n      pop\n      jump\t// out\n        /* \"#utility.yul\":12691:12913   */\n    tag_51:\n        /* \"#utility.yul\":12784:12788   */\n      0x00\n        /* \"#utility.yul\":12822:12824   */\n      0x20\n        /* \"#utility.yul\":12811:12820   */\n      dup3\n        /* \"#utility.yul\":12807:12825   */\n      add\n        /* \"#utility.yul\":12799:12825   */\n      swap1\n      pop\n        /* \"#utility.yul\":12835:12906   */\n      tag_316\n        /* \"#utility.yul\":12903:12904   */\n      0x00\n        /* \"#utility.yul\":12892:12901   */\n      dup4\n        /* \"#utility.yul\":12888:12905   */\n      add\n        /* \"#utility.yul\":12879:12885   */\n      dup5\n        /* \"#utility.yul\":12835:12906   */\n      tag_131\n      jump\t// in\n    tag_316:\n        /* \"#utility.yul\":12691:12913   */\n      swap3\n      swap2\n      pop\n      pop\n      jump\t// out\n        /* \"#utility.yul\":12919:13099   */\n    tag_161:\n        /* \"#utility.yul\":12967:13044   */\n      0x4e487b7100000000000000000000000000000000000000000000000000000000\n        /* \"#utility.yul\":12964:12965   */\n      0x00\n        /* \"#utility.yul\":12957:13045   */\n      mstore\n        /* \"#utility.yul\":13064:13068   */\n      0x22\n        /* \"#utility.yul\":13061:13062   */\n      0x04\n        /* \"#utility.yul\":13054:13069   */\n      mstore\n        /* \"#utility.yul\":13088:13092   */\n      0x24\n        /* \"#utility.yul\":13085:13086   */\n      0x00\n        /* \"#utility.yul\":13078:13093   */\n      revert\n        /* \"#utility.yul\":13105:13425   */\n    tag_55:\n        /* \"#utility.yul\":13149:13155   */\n      0x00\n        /* \"#utility.yul\":13186:13187   */\n      0x02\n        /* \"#utility.yul\":13180:13184   */\n      dup3\n        /* \"#utility.yul\":13176:13188   */\n      div\n        /* \"#utility.yul\":13166:13188   */\n      swap1\n      pop\n        /* \"#utility.yul\":13233:13234   */\n      0x01\n        /* \"#utility.yul\":13227:13231   */\n      dup3\n        /* \"#utility.yul\":13223:13235   */\n      and\n        /* \"#utility.yul\":13254:13272   */\n      dup1\n        /* \"#utility.yul\":13244:13325   */\n      tag_319\n      jumpi\n        /* \"#utility.yul\":13310:13314   */\n      0x7f\n        /* \"#utility.yul\":13302:13308   */\n      dup3\n        /* \"#utility.yul\":13298:13315   */\n      and\n        /* \"#utility.yul\":13288:13315   */\n      swap2\n      pop\n        /* \"#utility.yul\":13244:13325   */\n    tag_319:\n        /* \"#utility.yul\":13372:13374   */\n      0x20\n        /* \"#utility.yul\":13364:13370   */\n      dup3\n        /* \"#utility.yul\":13361:13375   */\n      lt\n        /* \"#utility.yul\":13341:13359   */\n      dup2\n        /* \"#utility.yul\":13338:13376   */\n      sub\n        /* \"#utility.yul\":13335:13419   */\n      tag_320\n      jumpi\n        /* \"#utility.yul\":13391:13409   */\n      tag_321\n      tag_161\n      jump\t// in\n    tag_321:\n        /* \"#utility.yul\":13335:13419   */\n    tag_320:\n        /* \"#utility.yul\":13156:13425   */\n      pop\n        /* \"#utility.yul\":13105:13425   */\n      swap2\n      swap1\n      pop\n      jump\t// out\n        /* \"#utility.yul\":13431:13611   */\n    tag_63:\n        /* \"#utility.yul\":13479:13556   */\n      0x4e487b7100000000000000000000000000000000000000000000000000000000\n        /* \"#utility.yul\":13476:13477   */\n      0x00\n        /* \"#utility.yul\":13469:13557   */\n      mstore\n        /* \"#utility.yul\":13576:13580   */\n      0x32\n        /* \"#utility.yul\":13573:13574   */\n      0x04\n        /* \"#utility.yul\":13566:13581   */\n      mstore\n        /* \"#utility.yul\":13600:13604   */\n      0x24\n        /* \"#utility.yul\":13597:13598   */\n      0x00\n        /* \"#utility.yul\":13590:13605   */\n      revert\n        /* \"#utility.yul\":13617:13786   */\n    tag_162:\n        /* \"#utility.yul\":13757:13778   */\n      0x547765657420646f65736e742065786973747300000000000000000000000000\n        /* \"#utility.yul\":13753:13754   */\n      0x00\n        /* \"#utility.yul\":13745:13751   */\n      dup3\n        /* \"#utility.yul\":13741:13755   */\n      add\n        /* \"#utility.yul\":13734:13779   */\n      mstore\n        /* \"#utility.yul\":13617:13786   */\n      pop\n      jump\t// out\n        /* \"#utility.yul\":13792:14158   */\n    tag_163:\n        /* \"#utility.yul\":13934:13937   */\n      0x00\n        /* \"#utility.yul\":13955:14022   */\n      tag_325\n        /* \"#utility.yul\":14019:14021   */\n      0x13\n        /* \"#utility.yul\":14014:14017   */\n      dup4\n        /* \"#utility.yul\":13955:14022   */\n      tag_133\n      jump\t// in\n    tag_325:\n        /* \"#utility.yul\":13948:14022   */\n      swap2\n      pop\n        /* \"#utility.yul\":14031:14124   */\n      tag_326\n        /* \"#utility.yul\":14120:14123   */\n      dup3\n        /* \"#utility.yul\":14031:14124   */\n      tag_162\n      jump\t// in\n    tag_326:\n        /* \"#utility.yul\":14149:14151   */\n      0x20\n        /* \"#utility.yul\":14144:14147   */\n      dup3\n        /* \"#utility.yul\":14140:14152   */\n      add\n        /* \"#utility.yul\":14133:14152   */\n      swap1\n      pop\n        /* \"#utility.yul\":13792:14158   */\n      swap2\n      swap1\n      pop\n      jump\t// out\n        /* \"#utility.yul\":14164:14583   */\n    tag_85:\n        /* \"#utility.yul\":14330:14334   */\n      0x00\n        /* \"#utility.yul\":14368:14370   */\n      0x20\n        /* \"#utility.yul\":14357:14366   */\n      dup3\n        /* \"#utility.yul\":14353:14371   */\n      add\n        /* \"#utility.yul\":14345:14371   */\n      swap1\n      pop\n        /* \"#utility.yul\":14417:14426   */\n      dup2\n        /* \"#utility.yul\":14411:14415   */\n      dup2\n        /* \"#utility.yul\":14407:14427   */\n      sub\n        /* \"#utility.yul\":14403:14404   */\n      0x00\n        /* \"#utility.yul\":14392:14401   */\n      dup4\n        /* \"#utility.yul\":14388:14405   */\n      add\n        /* \"#utility.yul\":14381:14428   */\n      mstore\n        /* \"#utility.yul\":14445:14576   */\n      tag_328\n        /* \"#utility.yul\":14571:14575   */\n      dup2\n        /* \"#utility.yul\":14445:14576   */\n      tag_163\n      jump\t// in\n    tag_328:\n        /* \"#utility.yul\":14437:14576   */\n      swap1\n      pop\n        /* \"#utility.yul\":14164:14583   */\n      swap2\n      swap1\n      pop\n      jump\t// out\n        /* \"#utility.yul\":14589:14757   */\n    tag_164:\n        /* \"#utility.yul\":14729:14749   */\n      0x547765657420686173206e6f206c696b65730000000000000000000000000000\n        /* \"#utility.yul\":14725:14726   */\n      0x00\n        /* \"#utility.yul\":14717:14723   */\n      dup3\n        /* \"#utility.yul\":14713:14727   */\n      add\n        /* \"#utility.yul\":14706:14750   */\n      mstore\n        /* \"#utility.yul\":14589:14757   */\n      pop\n      jump\t// out\n        /* \"#utility.yul\":14763:15129   */\n    tag_165:\n        /* \"#utility.yul\":14905:14908   */\n      0x00\n        /* \"#utility.yul\":14926:14993   */\n      tag_331\n        /* \"#utility.yul\":14990:14992   */\n      0x12\n        /* \"#utility.yul\":14985:14988   */\n      dup4\n        /* \"#utility.yul\":14926:14993   */\n      tag_133\n      jump\t// in\n    tag_331:\n        /* \"#utility.yul\":14919:14993   */\n      swap2\n      pop\n        /* \"#utility.yul\":15002:15095   */\n      tag_332\n        /* \"#utility.yul\":15091:15094   */\n      dup3\n        /* \"#utility.yul\":15002:15095   */\n      tag_164\n      jump\t// in\n    tag_332:\n        /* \"#utility.yul\":15120:15122   */\n      0x20\n        /* \"#utility.yul\":15115:15118   */\n      dup3\n        /* \"#utility.yul\":15111:15123   */\n      add\n        /* \"#utility.yul\":15104:15123   */\n      swap1\n      pop\n        /* \"#utility.yul\":14763:15129   */\n      swap2\n      swap1\n      pop\n      jump\t// out\n        /* \"#utility.yul\":15135:15554   */\n    tag_91:\n        /* \"#utility.yul\":15301:15305   */\n      0x00\n        /* \"#utility.yul\":15339:15341   */\n      0x20\n        /* \"#utility.yul\":15328:15337   */\n      dup3\n        /* \"#utility.yul\":15324:15342   */\n      add\n        /* \"#utility.yul\":15316:15342   */\n      swap1\n      pop\n        /* \"#utility.yul\":15388:15397   */\n      dup2\n        /* \"#utility.yul\":15382:15386   */\n      dup2\n        /* \"#utility.yul\":15378:15398   */\n      sub\n        /* \"#utility.yul\":15374:15375   */\n      0x00\n        /* \"#utility.yul\":15363:15372   */\n      dup4\n        /* \"#utility.yul\":15359:15376   */\n      add\n        /* \"#utility.yul\":15352:15399   */\n      mstore\n        /* \"#utility.yul\":15416:15547   */\n      tag_334\n        /* \"#utility.yul\":15542:15546   */\n      dup2\n        /* \"#utility.yul\":15416:15547   */\n      tag_165\n      jump\t// in\n    tag_334:\n        /* \"#utility.yul\":15408:15547   */\n      swap1\n      pop\n        /* \"#utility.yul\":15135:15554   */\n      swap2\n      swap1\n      pop\n      jump\t// out\n        /* \"#utility.yul\":15560:15740   */\n    tag_166:\n        /* \"#utility.yul\":15608:15685   */\n      0x4e487b7100000000000000000000000000000000000000000000000000000000\n        /* \"#utility.yul\":15605:15606   */\n      0x00\n        /* \"#utility.yul\":15598:15686   */\n      mstore\n        /* \"#utility.yul\":15705:15709   */\n      0x11\n        /* \"#utility.yul\":15702:15703   */\n      0x04\n        /* \"#utility.yul\":15695:15710   */\n      mstore\n        /* \"#utility.yul\":15729:15733   */\n      0x24\n        /* \"#utility.yul\":15726:15727   */\n      0x00\n        /* \"#utility.yul\":15719:15734   */\n      revert\n        /* \"#utility.yul\":15746:15917   */\n    tag_96:\n        /* \"#utility.yul\":15785:15788   */\n      0x00\n        /* \"#utility.yul\":15808:15832   */\n      tag_337\n        /* \"#utility.yul\":15826:15831   */\n      dup3\n        /* \"#utility.yul\":15808:15832   */\n      tag_127\n      jump\t// in\n    tag_337:\n        /* \"#utility.yul\":15799:15832   */\n      swap2\n      pop\n        /* \"#utility.yul\":15854:15858   */\n      0x00\n        /* \"#utility.yul\":15847:15852   */\n      dup3\n        /* \"#utility.yul\":15844:15859   */\n      sub\n        /* \"#utility.yul\":15841:15882   */\n      tag_338\n      jumpi\n        /* \"#utility.yul\":15862:15880   */\n      tag_339\n      tag_166\n      jump\t// in\n    tag_339:\n        /* \"#utility.yul\":15841:15882   */\n    tag_338:\n        /* \"#utility.yul\":15909:15910   */\n      0x01\n        /* \"#utility.yul\":15902:15907   */\n      dup3\n        /* \"#utility.yul\":15898:15911   */\n      sub\n        /* \"#utility.yul\":15891:15911   */\n      swap1\n      pop\n        /* \"#utility.yul\":15746:15917   */\n      swap2\n      swap1\n      pop\n      jump\t// out\n        /* \"#utility.yul\":15923:16156   */\n    tag_107:\n        /* \"#utility.yul\":15962:15965   */\n      0x00\n        /* \"#utility.yul\":15985:16009   */\n      tag_341\n        /* \"#utility.yul\":16003:16008   */\n      dup3\n        /* \"#utility.yul\":15985:16009   */\n      tag_127\n      jump\t// in\n    tag_341:\n        /* \"#utility.yul\":15976:16009   */\n      swap2\n      pop\n        /* \"#utility.yul\":16031:16097   */\n      0xffffffffffffffffffffffffffffffffffffffffffffffffffffffffffffffff\n        /* \"#utility.yul\":16024:16029   */\n      dup3\n        /* \"#utility.yul\":16021:16098   */\n      sub\n        /* \"#utility.yul\":16018:16121   */\n      tag_342\n      jumpi\n        /* \"#utility.yul\":16101:16119   */\n      tag_343\n      tag_166\n      jump\t// in\n    tag_343:\n        /* \"#utility.yul\":16018:16121   */\n    tag_342:\n        /* \"#utility.yul\":16148:16149   */\n      0x01\n        /* \"#utility.yul\":16141:16146   */\n      dup3\n        /* \"#utility.yul\":16137:16150   */\n      add\n        /* \"#utility.yul\":16130:16150   */\n      swap1\n      pop\n        /* \"#utility.yul\":15923:16156   */\n      swap2\n      swap1\n      pop\n      jump\t// out\n        /* \"#utility.yul\":16162:16341   */\n    tag_167:\n        /* \"#utility.yul\":16302:16333   */\n      0x547765657420697320746f6f6f6f6f206c6f6e672062726f7468657221000000\n        /* \"#utility.yul\":16298:16299   */\n      0x00\n        /* \"#utility.yul\":16290:16296   */\n      dup3\n        /* \"#utility.yul\":16286:16300   */\n      add\n        /* \"#utility.yul\":16279:16334   */\n      mstore\n        /* \"#utility.yul\":16162:16341   */\n      pop\n      jump\t// out\n        /* \"#utility.yul\":16347:16713   */\n    tag_168:\n        /* \"#utility.yul\":16489:16492   */\n      0x00\n        /* \"#utility.yul\":16510:16577   */\n      tag_346\n        /* \"#utility.yul\":16574:16576   */\n      0x1d\n        /* \"#utility.yul\":16569:16572   */\n      dup4\n        /* \"#utility.yul\":16510:16577   */\n      tag_133\n      jump\t// in\n    tag_346:\n        /* \"#utility.yul\":16503:16577   */\n      swap2\n      pop\n        /* \"#utility.yul\":16586:16679   */\n      tag_347\n        /* \"#utility.yul\":16675:16678   */\n      dup3\n        /* \"#utility.yul\":16586:16679   */\n      tag_167\n      jump\t// in\n    tag_347:\n        /* \"#utility.yul\":16704:16706   */\n      0x20\n        /* \"#utility.yul\":16699:16702   */\n      dup3\n        /* \"#utility.yul\":16695:16707   */\n      add\n        /* \"#utility.yul\":16688:16707   */\n      swap1\n      pop\n        /* \"#utility.yul\":16347:16713   */\n      swap2\n      swap1\n      pop\n      jump\t// out\n        /* \"#utility.yul\":16719:17138   */\n    tag_111:\n        /* \"#utility.yul\":16885:16889   */\n      0x00\n        /* \"#utility.yul\":16923:16925   */\n      0x20\n        /* \"#utility.yul\":16912:16921   */\n      dup3\n        /* \"#utility.yul\":16908:16926   */\n      add\n        /* \"#utility.yul\":16900:16926   */\n      swap1\n      pop\n        /* \"#utility.yul\":16972:16981   */\n      dup2\n        /* \"#utility.yul\":16966:16970   */\n      dup2\n        /* \"#utility.yul\":16962:16982   */\n      sub\n        /* \"#utility.yul\":16958:16959   */\n      0x00\n        /* \"#utility.yul\":16947:16956   */\n      dup4\n        /* \"#utility.yul\":16943:16960   */\n      add\n        /* \"#utility.yul\":16936:16983   */\n      mstore\n        /* \"#utility.yul\":17000:17131   */\n      tag_349\n        /* \"#utility.yul\":17126:17130   */\n      dup2\n        /* \"#utility.yul\":17000:17131   */\n      tag_168\n      jump\t// in\n    tag_349:\n        /* \"#utility.yul\":16992:17131   */\n      swap1\n      pop\n        /* \"#utility.yul\":16719:17138   */\n      swap2\n      swap1\n      pop\n      jump\t// out\n        /* \"#utility.yul\":17144:17285   */\n    tag_169:\n        /* \"#utility.yul\":17193:17197   */\n      0x00\n        /* \"#utility.yul\":17216:17219   */\n      dup2\n        /* \"#utility.yul\":17208:17219   */\n      swap1\n      pop\n        /* \"#utility.yul\":17239:17242   */\n      dup2\n        /* \"#utility.yul\":17236:17237   */\n      0x00\n        /* \"#utility.yul\":17229:17243   */\n      mstore\n        /* \"#utility.yul\":17273:17277   */\n      0x20\n        /* \"#utility.yul\":17270:17271   */\n      0x00\n        /* \"#utility.yul\":17260:17278   */\n      keccak256\n        /* \"#utility.yul\":17252:17278   */\n      swap1\n      pop\n        /* \"#utility.yul\":17144:17285   */\n      swap2\n      swap1\n      pop\n      jump\t// out\n        /* \"#utility.yul\":17291:17384   */\n    tag_170:\n        /* \"#utility.yul\":17328:17334   */\n      0x00\n        /* \"#utility.yul\":17375:17377   */\n      0x20\n        /* \"#utility.yul\":17370:17372   */\n      0x1f\n        /* \"#utility.yul\":17363:17368   */\n      dup4\n        /* \"#utility.yul\":17359:17373   */\n      add\n        /* \"#utility.yul\":17355:17378   */\n      div\n        /* \"#utility.yul\":17345:17378   */\n      swap1\n      pop\n        /* \"#utility.yul\":17291:17384   */\n      swap2\n      swap1\n      pop\n      jump\t// out\n        /* \"#utility.yul\":17390:17497   */\n    tag_171:\n        /* \"#utility.yul\":17434:17442   */\n      0x00\n        /* \"#utility.yul\":17484:17489   */\n      dup3\n        /* \"#utility.yul\":17478:17482   */\n      dup3\n        /* \"#utility.yul\":17474:17490   */\n      shl\n        /* \"#utility.yul\":17453:17490   */\n      swap1\n      pop\n        /* \"#utility.yul\":17390:17497   */\n      swap3\n      swap2\n      pop\n      pop\n      jump\t// out\n        /* \"#utility.yul\":17503:17896   */\n    tag_172:\n        /* \"#utility.yul\":17572:17578   */\n      0x00\n        /* \"#utility.yul\":17622:17623   */\n      0x08\n        /* \"#utility.yul\":17610:17620   */\n      dup4\n        /* \"#utility.yul\":17606:17624   */\n      mul\n        /* \"#utility.yul\":17645:17742   */\n      tag_354\n        /* \"#utility.yul\":17675:17741   */\n      0xffffffffffffffffffffffffffffffffffffffffffffffffffffffffffffffff\n        /* \"#utility.yul\":17664:17673   */\n      dup3\n        /* \"#utility.yul\":17645:17742   */\n      tag_171\n      jump\t// in\n    tag_354:\n        /* \"#utility.yul\":17763:17802   */\n      tag_355\n        /* \"#utility.yul\":17793:17801   */\n      dup7\n        /* \"#utility.yul\":17782:17791   */\n      dup4\n        /* \"#utility.yul\":17763:17802   */\n      tag_171\n      jump\t// in\n    tag_355:\n        /* \"#utility.yul\":17751:17802   */\n      swap6\n      pop\n        /* \"#utility.yul\":17835:17839   */\n      dup1\n        /* \"#utility.yul\":17831:17840   */\n      not\n        /* \"#utility.yul\":17824:17829   */\n      dup5\n        /* \"#utility.yul\":17820:17841   */\n      and\n        /* \"#utility.yul\":17811:17841   */\n      swap4\n      pop\n        /* \"#utility.yul\":17884:17888   */\n      dup1\n        /* \"#utility.yul\":17874:17882   */\n      dup7\n        /* \"#utility.yul\":17870:17889   */\n      and\n        /* \"#utility.yul\":17863:17868   */\n      dup5\n        /* \"#utility.yul\":17860:17890   */\n      or\n        /* \"#utility.yul\":17850:17890   */\n      swap3\n      pop\n        /* \"#utility.yul\":17579:17896   */\n      pop\n      pop\n        /* \"#utility.yul\":17503:17896   */\n      swap4\n      swap3\n      pop\n      pop\n      pop\n      jump\t// out\n        /* \"#utility.yul\":17902:17962   */\n    tag_173:\n        /* \"#utility.yul\":17930:17933   */\n      0x00\n        /* \"#utility.yul\":17951:17956   */\n      dup2\n        /* \"#utility.yul\":17944:17956   */\n      swap1\n      pop\n        /* \"#utility.yul\":17902:17962   */\n      swap2\n      swap1\n      pop\n      jump\t// out\n        /* \"#utility.yul\":17968:18110   */\n    tag_174:\n        /* \"#utility.yul\":18018:18027   */\n      0x00\n        /* \"#utility.yul\":18051:18104   */\n      tag_358\n        /* \"#utility.yul\":18069:18103   */\n      tag_359\n        /* \"#utility.yul\":18078:18102   */\n      tag_360\n        /* \"#utility.yul\":18096:18101   */\n      dup5\n        /* \"#utility.yul\":18078:18102   */\n      tag_127\n      jump\t// in\n    tag_360:\n        /* \"#utility.yul\":18069:18103   */\n      tag_173\n      jump\t// in\n    tag_359:\n        /* \"#utility.yul\":18051:18104   */\n      tag_127\n      jump\t// in\n    tag_358:\n        /* \"#utility.yul\":18038:18104   */\n      swap1\n      pop\n        /* \"#utility.yul\":17968:18110   */\n      swap2\n      swap1\n      pop\n      jump\t// out\n        /* \"#utility.yul\":18116:18191   */\n    tag_175:\n        /* \"#utility.yul\":18159:18162   */\n      0x00\n        /* \"#utility.yul\":18180:18185   */\n      dup2\n        /* \"#utility.yul\":18173:18185   */\n      swap1\n      pop\n        /* \"#utility.yul\":18116:18191   */\n      swap2\n      swap1\n      pop\n      jump\t// out\n        /* \"#utility.yul\":18197:18466   */\n    tag_176:\n        /* \"#utility.yul\":18307:18346   */\n      tag_363\n        /* \"#utility.yul\":18338:18345   */\n      dup4\n        /* \"#utility.yul\":18307:18346   */\n      tag_174\n      jump\t// in\n    tag_363:\n        /* \"#utility.yul\":18368:18459   */\n      tag_364\n        /* \"#utility.yul\":18417:18458   */\n      tag_365\n        /* \"#utility.yul\":18441:18457   */\n      dup3\n        /* \"#utility.yul\":18417:18458   */\n      tag_175\n      jump\t// in\n    tag_365:\n        /* \"#utility.yul\":18409:18415   */\n      dup5\n        /* \"#utility.yul\":18402:18406   */\n      dup5\n        /* \"#utility.yul\":18396:18407   */\n      sload\n        /* \"#utility.yul\":18368:18459   */\n      tag_172\n      jump\t// in\n    tag_364:\n        /* \"#utility.yul\":18362:18366   */\n      dup3\n        /* \"#utility.yul\":18355:18460   */\n      sstore\n        /* \"#utility.yul\":18273:18466   */\n      pop\n        /* \"#utility.yul\":18197:18466   */\n      pop\n      pop\n      pop\n      jump\t// out\n        /* \"#utility.yul\":18472:18545   */\n    tag_177:\n        /* \"#utility.yul\":18517:18520   */\n      0x00\n        /* \"#utility.yul\":18472:18545   */\n      swap1\n      jump\t// out\n        /* \"#utility.yul\":18551:18740   */\n    tag_178:\n        /* \"#utility.yul\":18628:18660   */\n      tag_368\n      tag_177\n      jump\t// in\n    tag_368:\n        /* \"#utility.yul\":18669:18734   */\n      tag_369\n        /* \"#utility.yul\":18727:18733   */\n      dup2\n        /* \"#utility.yul\":18719:18725   */\n      dup5\n        /* \"#utility.yul\":18713:18717   */\n      dup5\n        /* \"#utility.yul\":18669:18734   */\n      tag_176\n      jump\t// in\n    tag_369:\n        /* \"#utility.yul\":18604:18740   */\n      pop\n        /* \"#utility.yul\":18551:18740   */\n      pop\n      pop\n      jump\t// out\n        /* \"#utility.yul\":18746:18932   */\n    tag_179:\n        /* \"#utility.yul\":18806:18926   */\n    tag_371:\n        /* \"#utility.yul\":18823:18826   */\n      dup2\n        /* \"#utility.yul\":18816:18821   */\n      dup2\n        /* \"#utility.yul\":18813:18827   */\n      lt\n        /* \"#utility.yul\":18806:18926   */\n      iszero\n      tag_373\n      jumpi\n        /* \"#utility.yul\":18877:18916   */\n      tag_374\n        /* \"#utility.yul\":18914:18915   */\n      0x00\n        /* \"#utility.yul\":18907:18912   */\n      dup3\n        /* \"#utility.yul\":18877:18916   */\n      tag_178\n      jump\t// in\n    tag_374:\n        /* \"#utility.yul\":18850:18851   */\n      0x01\n        /* \"#utility.yul\":18843:18848   */\n      dup2\n        /* \"#utility.yul\":18839:18852   */\n      add\n        /* \"#utility.yul\":18830:18852   */\n      swap1\n      pop\n        /* \"#utility.yul\":18806:18926   */\n      jump(tag_371)\n    tag_373:\n        /* \"#utility.yul\":18746:18932   */\n      pop\n      pop\n      jump\t// out\n        /* \"#utility.yul\":18938:19481   */\n    tag_180:\n        /* \"#utility.yul\":19039:19041   */\n      0x1f\n        /* \"#utility.yul\":19034:19037   */\n      dup3\n        /* \"#utility.yul\":19031:19042   */\n      gt\n        /* \"#utility.yul\":19028:19474   */\n      iszero\n      tag_376\n      jumpi\n        /* \"#utility.yul\":19073:19111   */\n      tag_377\n        /* \"#utility.yul\":19105:19110   */\n      dup2\n        /* \"#utility.yul\":19073:19111   */\n      tag_169\n      jump\t// in\n    tag_377:\n        /* \"#utility.yul\":19157:19186   */\n      tag_378\n        /* \"#utility.yul\":19175:19185   */\n      dup5\n        /* \"#utility.yul\":19157:19186   */\n      tag_170\n      jump\t// in\n    tag_378:\n        /* \"#utility.yul\":19147:19155   */\n      dup2\n        /* \"#utility.yul\":19143:19187   */\n      add\n        /* \"#utility.yul\":19340:19342   */\n      0x20\n        /* \"#utility.yul\":19328:19338   */\n      dup6\n        /* \"#utility.yul\":19325:19343   */\n      lt\n        /* \"#utility.yul\":19322:19371   */\n      iszero\n      tag_379\n      jumpi\n        /* \"#utility.yul\":19361:19369   */\n      dup2\n        /* \"#utility.yul\":19346:19369   */\n      swap1\n      pop\n        /* \"#utility.yul\":19322:19371   */\n    tag_379:\n        /* \"#utility.yul\":19384:19464   */\n      tag_380\n        /* \"#utility.yul\":19440:19462   */\n      tag_381\n        /* \"#utility.yul\":19458:19461   */\n      dup6\n        /* \"#utility.yul\":19440:19462   */\n      tag_170\n      jump\t// in\n    tag_381:\n        /* \"#utility.yul\":19430:19438   */\n      dup4\n        /* \"#utility.yul\":19426:19463   */\n      add\n        /* \"#utility.yul\":19413:19424   */\n      dup3\n        /* \"#utility.yul\":19384:19464   */\n      tag_179\n      jump\t// in\n    tag_380:\n        /* \"#utility.yul\":19043:19474   */\n      pop\n      pop\n        /* \"#utility.yul\":19028:19474   */\n    tag_376:\n        /* \"#utility.yul\":18938:19481   */\n      pop\n      pop\n      pop\n      jump\t// out\n        /* \"#utility.yul\":19487:19604   */\n    tag_181:\n        /* \"#utility.yul\":19541:19549   */\n      0x00\n        /* \"#utility.yul\":19591:19596   */\n      dup3\n        /* \"#utility.yul\":19585:19589   */\n      dup3\n        /* \"#utility.yul\":19581:19597   */\n      shr\n        /* \"#utility.yul\":19560:19597   */\n      swap1\n      pop\n        /* \"#utility.yul\":19487:19604   */\n      swap3\n      swap2\n      pop\n      pop\n      jump\t// out\n        /* \"#utility.yul\":19610:19779   */\n    tag_182:\n        /* \"#utility.yul\":19654:19660   */\n      0x00\n        /* \"#utility.yul\":19687:19738   */\n      tag_384\n        /* \"#utility.yul\":19735:19736   */\n      0x00\n        /* \"#utility.yul\":19731:19737   */\n      not\n        /* \"#utility.yul\":19723:19728   */\n      dup5\n        /* \"#utility.yul\":19720:19721   */\n      0x08\n        /* \"#utility.yul\":19716:19729   */\n      mul\n        /* \"#utility.yul\":19687:19738   */\n      tag_181\n      jump\t// in\n    tag_384:\n        /* \"#utility.yul\":19683:19739   */\n      not\n        /* \"#utility.yul\":19768:19772   */\n      dup1\n        /* \"#utility.yul\":19762:19766   */\n      dup4\n        /* \"#utility.yul\":19758:19773   */\n      and\n        /* \"#utility.yul\":19748:19773   */\n      swap2\n      pop\n        /* \"#utility.yul\":19661:19779   */\n      pop\n        /* \"#utility.yul\":19610:19779   */\n      swap3\n      swap2\n      pop\n      pop\n      jump\t// out\n        /* \"#utility.yul\":19784:20079   */\n    tag_183:\n        /* \"#utility.yul\":19860:19864   */\n      0x00\n        /* \"#utility.yul\":20006:20035   */\n      tag_386\n        /* \"#utility.yul\":20031:20034   */\n      dup4\n        /* \"#utility.yul\":20025:20029   */\n      dup4\n        /* \"#utility.yul\":20006:20035   */\n      tag_182\n      jump\t// in\n    tag_386:\n        /* \"#utility.yul\":19998:20035   */\n      swap2\n      pop\n        /* \"#utility.yul\":20068:20071   */\n      dup3\n        /* \"#utility.yul\":20065:20066   */\n      0x02\n        /* \"#utility.yul\":20061:20072   */\n      mul\n        /* \"#utility.yul\":20055:20059   */\n      dup3\n        /* \"#utility.yul\":20052:20073   */\n      or\n        /* \"#utility.yul\":20044:20073   */\n      swap1\n      pop\n        /* \"#utility.yul\":19784:20079   */\n      swap3\n      swap2\n      pop\n      pop\n      jump\t// out\n        /* \"#utility.yul\":20084:21479   */\n    tag_114:\n        /* \"#utility.yul\":20201:20238   */\n      tag_388\n        /* \"#utility.yul\":20234:20237   */\n      dup3\n        /* \"#utility.yul\":20201:20238   */\n      tag_132\n      jump\t// in\n    tag_388:\n        /* \"#utility.yul\":20303:20321   */\n      0xffffffffffffffff\n        /* \"#utility.yul\":20295:20301   */\n      dup2\n        /* \"#utility.yul\":20292:20322   */\n      gt\n        /* \"#utility.yul\":20289:20345   */\n      iszero\n      tag_389\n      jumpi\n        /* \"#utility.yul\":20325:20343   */\n      tag_390\n      tag_152\n      jump\t// in\n    tag_390:\n        /* \"#utility.yul\":20289:20345   */\n    tag_389:\n        /* \"#utility.yul\":20369:20407   */\n      tag_391\n        /* \"#utility.yul\":20401:20405   */\n      dup3\n        /* \"#utility.yul\":20395:20406   */\n      sload\n        /* \"#utility.yul\":20369:20407   */\n      tag_55\n      jump\t// in\n    tag_391:\n        /* \"#utility.yul\":20454:20521   */\n      tag_392\n        /* \"#utility.yul\":20514:20520   */\n      dup3\n        /* \"#utility.yul\":20506:20512   */\n      dup3\n        /* \"#utility.yul\":20500:20504   */\n      dup6\n        /* \"#utility.yul\":20454:20521   */\n      tag_180\n      jump\t// in\n    tag_392:\n        /* \"#utility.yul\":20548:20549   */\n      0x00\n        /* \"#utility.yul\":20572:20576   */\n      0x20\n        /* \"#utility.yul\":20559:20576   */\n      swap1\n      pop\n        /* \"#utility.yul\":20604:20606   */\n      0x1f\n        /* \"#utility.yul\":20596:20602   */\n      dup4\n        /* \"#utility.yul\":20593:20607   */\n      gt\n        /* \"#utility.yul\":20621:20622   */\n      0x01\n        /* \"#utility.yul\":20616:21234   */\n      dup2\n      eq\n      tag_394\n      jumpi\n        /* \"#utility.yul\":21278:21279   */\n      0x00\n        /* \"#utility.yul\":21295:21301   */\n      dup5\n        /* \"#utility.yul\":21292:21369   */\n      iszero\n      tag_395\n      jumpi\n        /* \"#utility.yul\":21344:21353   */\n      dup3\n        /* \"#utility.yul\":21339:21342   */\n      dup8\n        /* \"#utility.yul\":21335:21354   */\n      add\n        /* \"#utility.yul\":21329:21355   */\n      mload\n        /* \"#utility.yul\":21320:21355   */\n      swap1\n      pop\n        /* \"#utility.yul\":21292:21369   */\n    tag_395:\n        /* \"#utility.yul\":21395:21462   */\n      tag_396\n        /* \"#utility.yul\":21455:21461   */\n      dup6\n        /* \"#utility.yul\":21448:21453   */\n      dup3\n        /* \"#utility.yul\":21395:21462   */\n      tag_183\n      jump\t// in\n    tag_396:\n        /* \"#utility.yul\":21389:21393   */\n      dup7\n        /* \"#utility.yul\":21382:21463   */\n      sstore\n        /* \"#utility.yul\":21251:21473   */\n      pop\n        /* \"#utility.yul\":20586:21473   */\n      jump(tag_393)\n        /* \"#utility.yul\":20616:21234   */\n    tag_394:\n        /* \"#utility.yul\":20668:20672   */\n      0x1f\n        /* \"#utility.yul\":20664:20673   */\n      not\n        /* \"#utility.yul\":20656:20662   */\n      dup5\n        /* \"#utility.yul\":20652:20674   */\n      and\n        /* \"#utility.yul\":20702:20739   */\n      tag_397\n        /* \"#utility.yul\":20734:20738   */\n      dup7\n        /* \"#utility.yul\":20702:20739   */\n      tag_169\n      jump\t// in\n    tag_397:\n        /* \"#utility.yul\":20761:20762   */\n      0x00\n        /* \"#utility.yul\":20775:20983   */\n    tag_398:\n        /* \"#utility.yul\":20789:20796   */\n      dup3\n        /* \"#utility.yul\":20786:20787   */\n      dup2\n        /* \"#utility.yul\":20783:20797   */\n      lt\n        /* \"#utility.yul\":20775:20983   */\n      iszero\n      tag_400\n      jumpi\n        /* \"#utility.yul\":20868:20877   */\n      dup5\n        /* \"#utility.yul\":20863:20866   */\n      dup10\n        /* \"#utility.yul\":20859:20878   */\n      add\n        /* \"#utility.yul\":20853:20879   */\n      mload\n        /* \"#utility.yul\":20845:20851   */\n      dup3\n        /* \"#utility.yul\":20838:20880   */\n      sstore\n        /* \"#utility.yul\":20919:20920   */\n      0x01\n        /* \"#utility.yul\":20911:20917   */\n      dup3\n        /* \"#utility.yul\":20907:20921   */\n      add\n        /* \"#utility.yul\":20897:20921   */\n      swap2\n      pop\n        /* \"#utility.yul\":20966:20968   */\n      0x20\n        /* \"#utility.yul\":20955:20964   */\n      dup6\n        /* \"#utility.yul\":20951:20969   */\n      add\n        /* \"#utility.yul\":20938:20969   */\n      swap5\n      pop\n        /* \"#utility.yul\":20812:20816   */\n      0x20\n        /* \"#utility.yul\":20809:20810   */\n      dup2\n        /* \"#utility.yul\":20805:20817   */\n      add\n        /* \"#utility.yul\":20800:20817   */\n      swap1\n      pop\n        /* \"#utility.yul\":20775:20983   */\n      jump(tag_398)\n    tag_400:\n        /* \"#utility.yul\":21011:21017   */\n      dup7\n        /* \"#utility.yul\":21002:21009   */\n      dup4\n        /* \"#utility.yul\":20999:21018   */\n      lt\n        /* \"#utility.yul\":20996:21175   */\n      iszero\n      tag_401\n      jumpi\n        /* \"#utility.yul\":21069:21078   */\n      dup5\n        /* \"#utility.yul\":21064:21067   */\n      dup10\n        /* \"#utility.yul\":21060:21079   */\n      add\n        /* \"#utility.yul\":21054:21080   */\n      mload\n        /* \"#utility.yul\":21112:21160   */\n      tag_402\n        /* \"#utility.yul\":21154:21158   */\n      0x1f\n        /* \"#utility.yul\":21146:21152   */\n      dup10\n        /* \"#utility.yul\":21142:21159   */\n      and\n        /* \"#utility.yul\":21131:21140   */\n      dup3\n        /* \"#utility.yul\":21112:21160   */\n      tag_182\n      jump\t// in\n    tag_402:\n        /* \"#utility.yul\":21104:21110   */\n      dup4\n        /* \"#utility.yul\":21097:21161   */\n      sstore\n        /* \"#utility.yul\":21019:21175   */\n      pop\n        /* \"#utility.yul\":20996:21175   */\n    tag_401:\n        /* \"#utility.yul\":21221:21222   */\n      0x01\n        /* \"#utility.yul\":21217:21218   */\n      0x02\n        /* \"#utility.yul\":21209:21215   */\n      dup9\n        /* \"#utility.yul\":21205:21219   */\n      mul\n        /* \"#utility.yul\":21201:21223   */\n      add\n        /* \"#utility.yul\":21195:21199   */\n      dup9\n        /* \"#utility.yul\":21188:21224   */\n      sstore\n        /* \"#utility.yul\":20623:21234   */\n      pop\n      pop\n      pop\n        /* \"#utility.yul\":20586:21473   */\n    tag_393:\n      pop\n        /* \"#utility.yul\":20176:21479   */\n      pop\n      pop\n      pop\n        /* \"#utility.yul\":20084:21479   */\n      pop\n      pop\n      jump\t// out\n        /* \"#utility.yul\":21485:21661   */\n    tag_184:\n        /* \"#utility.yul\":21625:21653   */\n      0x4865792c20596f7520617265206e6f7420746865204f776e6572000000000000\n        /* \"#utility.yul\":21621:21622   */\n      0x00\n        /* \"#utility.yul\":21613:21619   */\n      dup3\n        /* \"#utility.yul\":21609:21623   */\n      add\n        /* \"#utility.yul\":21602:21654   */\n      mstore\n        /* \"#utility.yul\":21485:21661   */\n      pop\n      jump\t// out\n        /* \"#utility.yul\":21667:22033   */\n    tag_185:\n        /* \"#utility.yul\":21809:21812   */\n      0x00\n        /* \"#utility.yul\":21830:21897   */\n      tag_405\n        /* \"#utility.yul\":21894:21896   */\n      0x1a\n        /* \"#utility.yul\":21889:21892   */\n      dup4\n        /* \"#utility.yul\":21830:21897   */\n      tag_133\n      jump\t// in\n    tag_405:\n        /* \"#utility.yul\":21823:21897   */\n      swap2\n      pop\n        /* \"#utility.yul\":21906:21999   */\n      tag_406\n        /* \"#utility.yul\":21995:21998   */\n      dup3\n        /* \"#utility.yul\":21906:21999   */\n      tag_184\n      jump\t// in\n    tag_406:\n        /* \"#utility.yul\":22024:22026   */\n      0x20\n        /* \"#utility.yul\":22019:22022   */\n      dup3\n        /* \"#utility.yul\":22015:22027   */\n      add\n        /* \"#utility.yul\":22008:22027   */\n      swap1\n      pop\n        /* \"#utility.yul\":21667:22033   */\n      swap2\n      swap1\n      pop\n      jump\t// out\n        /* \"#utility.yul\":22039:22458   */\n    tag_118:\n        /* \"#utility.yul\":22205:22209   */\n      0x00\n        /* \"#utility.yul\":22243:22245   */\n      0x20\n        /* \"#utility.yul\":22232:22241   */\n      dup3\n        /* \"#utility.yul\":22228:22246   */\n      add\n        /* \"#utility.yul\":22220:22246   */\n      swap1\n      pop\n        /* \"#utility.yul\":22292:22301   */\n      dup2\n        /* \"#utility.yul\":22286:22290   */\n      dup2\n        /* \"#utility.yul\":22282:22302   */\n      sub\n        /* \"#utility.yul\":22278:22279   */\n      0x00\n        /* \"#utility.yul\":22267:22276   */\n      dup4\n        /* \"#utility.yul\":22263:22280   */\n      add\n        /* \"#utility.yul\":22256:22303   */\n      mstore\n        /* \"#utility.yul\":22320:22451   */\n      tag_408\n        /* \"#utility.yul\":22446:22450   */\n      dup2\n        /* \"#utility.yul\":22320:22451   */\n      tag_185\n      jump\t// in\n    tag_408:\n        /* \"#utility.yul\":22312:22451   */\n      swap1\n      pop\n        /* \"#utility.yul\":22039:22458   */\n      swap2\n      swap1\n      pop\n      jump\t// out\n\n    auxdata: 0xa26469706673582212206d983c223343398adb035e4288a2daadea33d4526a2066a8eb27d2952505aab464736f6c634300081a0033\n}\n",
				"bytecode": {
					"linkReferences": {},
					"object": "608060405260dc5f806101000a81548161ffff021916908361ffff160217905550348015602a575f80fd5b503360025f6101000a81548173ffffffffffffffffffffffffffffffffffffffff021916908373ffffffffffffffffffffffffffffffffffffffff1602179055506116c8806100785f395ff3fe608060405234801561000f575f80fd5b5060043610610091575f3560e01c8063633782161161006457806363378216146101485780636eb10797146101645780637c9cd2bc146101825780638cde680b1461019e5780638da5cb5b146101ba57610091565b806305a1b4a914610095578063112f54e3146100c957806312e7ee1c146100fc5780633d9b569f1461012c575b5f80fd5b6100af60048036038101906100aa9190610bfe565b6101d8565b6040516100c0959493929190610cca565b60405180910390f35b6100e360048036038101906100de9190610bfe565b6102c9565b6040516100f39493929190610d22565b60405180910390f35b61011660048036038101906101119190610d6c565b61045f565b6040516101239190610f2b565b60405180910390f35b61014660048036038101906101419190610bfe565b6105fa565b005b610162600480360381019061015d9190610bfe565b6107b0565b005b61016c6108c6565b6040516101799190610f67565b60405180910390f35b61019c600480360381019061019791906110ac565b6108d7565b005b6101b860048036038101906101b3919061111d565b610a8e565b005b6101c2610b3b565b6040516101cf9190611148565b60405180910390f35b6001602052815f5260405f2081815481106101f1575f80fd5b905f5260205f2090600502015f9150915050805f015490806001015f9054906101000a900473ffffffffffffffffffffffffffffffffffffffff169080600201805461023c9061118e565b80601f01602080910402602001604051908101604052809291908181526020018280546102689061118e565b80156102b35780601f1061028a576101008083540402835291602001916102b3565b820191905f5260205f20905b81548152906001019060200180831161029657829003601f168201915b5050505050908060030154908060040154905085565b5f60605f805f60015f8873ffffffffffffffffffffffffffffffffffffffff1673ffffffffffffffffffffffffffffffffffffffff1681526020019081526020015f20868154811061031e5761031d6111be565b5b905f5260205f2090600502016040518060a00160405290815f8201548152602001600182015f9054906101000a900473ffffffffffffffffffffffffffffffffffffffff1673ffffffffffffffffffffffffffffffffffffffff1673ffffffffffffffffffffffffffffffffffffffff1681526020016002820180546103a39061118e565b80601f01602080910402602001604051908101604052809291908181526020018280546103cf9061118e565b801561041a5780601f106103f15761010080835404028352916020019161041a565b820191905f5260205f20905b8154815290600101906020018083116103fd57829003601f168201915b50505050508152602001600382015481526020016004820154815250509050806020015181604001518260600151836080015194509450945094505092959194509250565b606060015f8373ffffffffffffffffffffffffffffffffffffffff1673ffffffffffffffffffffffffffffffffffffffff1681526020019081526020015f20805480602002602001604051908101604052809291908181526020015f905b828210156105ef578382905f5260205f2090600502016040518060a00160405290815f8201548152602001600182015f9054906101000a900473ffffffffffffffffffffffffffffffffffffffff1673ffffffffffffffffffffffffffffffffffffffff1673ffffffffffffffffffffffffffffffffffffffff16815260200160028201805461054c9061118e565b80601f01602080910402602001604051908101604052809291908181526020018280546105789061118e565b80156105c35780601f1061059a576101008083540402835291602001916105c3565b820191905f5260205f20905b8154815290600101906020018083116105a657829003601f168201915b5050505050815260200160038201548152602001600482015481525050815260200190600101906104bd565b505050509050919050565b8060015f8473ffffffffffffffffffffffffffffffffffffffff1673ffffffffffffffffffffffffffffffffffffffff1681526020019081526020015f20828154811061064a576106496111be565b5b905f5260205f2090600502015f015414610699576040517f08c379a000000000000000000000000000000000000000000000000000000000815260040161069090611235565b60405180910390fd5b5f60015f8473ffffffffffffffffffffffffffffffffffffffff1673ffffffffffffffffffffffffffffffffffffffff1681526020019081526020015f2082815481106106e9576106e86111be565b5b905f5260205f2090600502016004015411610739576040517f08c379a00000000000000000000000000000000000000000000000000000000081526004016107309061129d565b60405180910390fd5b60015f8373ffffffffffffffffffffffffffffffffffffffff1673ffffffffffffffffffffffffffffffffffffffff1681526020019081526020015f208181548110610788576107876111be565b5b905f5260205f2090600502016004015f8154809291906107a7906112e8565b91905055505050565b8060015f8473ffffffffffffffffffffffffffffffffffffffff1673ffffffffffffffffffffffffffffffffffffffff1681526020019081526020015f208281548110610800576107ff6111be565b5b905f5260205f2090600502015f01541461084f576040517f08c379a000000000000000000000000000000000000000000000000000000000815260040161084690611235565b60405180910390fd5b60015f8373ffffffffffffffffffffffffffffffffffffffff1673ffffffffffffffffffffffffffffffffffffffff1681526020019081526020015f20818154811061089e5761089d6111be565b5b905f5260205f2090600502016004015f8154809291906108bd9061130f565b91905055505050565b5f8054906101000a900461ffff1681565b5f8054906101000a900461ffff1661ffff168151111561092c576040517f08c379a0000000000000000000000000000000000000000000000000000000008152600401610923906113a0565b60405180910390fd5b5f6040518060a0016040528060015f3373ffffffffffffffffffffffffffffffffffffffff1673ffffffffffffffffffffffffffffffffffffffff1681526020019081526020015f208054905081526020013373ffffffffffffffffffffffffffffffffffffffff1681526020018381526020014281526020015f815250905060015f3373ffffffffffffffffffffffffffffffffffffffff1673ffffffffffffffffffffffffffffffffffffffff1681526020019081526020015f2081908060018154018082558091505060019003905f5260205f2090600502015f909190919091505f820151815f01556020820151816001015f6101000a81548173ffffffffffffffffffffffffffffffffffffffff021916908373ffffffffffffffffffffffffffffffffffffffff1602179055506040820151816002019081610a73919061155b565b50606082015181600301556080820151816004015550505050565b60025f9054906101000a900473ffffffffffffffffffffffffffffffffffffffff1673ffffffffffffffffffffffffffffffffffffffff163373ffffffffffffffffffffffffffffffffffffffff1614610b1d576040517f08c379a0000000000000000000000000000000000000000000000000000000008152600401610b1490611674565b60405180910390fd5b805f806101000a81548161ffff021916908361ffff16021790555050565b60025f9054906101000a900473ffffffffffffffffffffffffffffffffffffffff1681565b5f604051905090565b5f80fd5b5f80fd5b5f73ffffffffffffffffffffffffffffffffffffffff82169050919050565b5f610b9a82610b71565b9050919050565b610baa81610b90565b8114610bb4575f80fd5b50565b5f81359050610bc581610ba1565b92915050565b5f819050919050565b610bdd81610bcb565b8114610be7575f80fd5b50565b5f81359050610bf881610bd4565b92915050565b5f8060408385031215610c1457610c13610b69565b5b5f610c2185828601610bb7565b9250506020610c3285828601610bea565b9150509250929050565b610c4581610bcb565b82525050565b610c5481610b90565b82525050565b5f81519050919050565b5f82825260208201905092915050565b8281835e5f83830152505050565b5f601f19601f8301169050919050565b5f610c9c82610c5a565b610ca68185610c64565b9350610cb6818560208601610c74565b610cbf81610c82565b840191505092915050565b5f60a082019050610cdd5f830188610c3c565b610cea6020830187610c4b565b8181036040830152610cfc8186610c92565b9050610d0b6060830185610c3c565b610d186080830184610c3c565b9695505050505050565b5f608082019050610d355f830187610c4b565b8181036020830152610d478186610c92565b9050610d566040830185610c3c565b610d636060830184610c3c565b95945050505050565b5f60208284031215610d8157610d80610b69565b5b5f610d8e84828501610bb7565b91505092915050565b5f81519050919050565b5f82825260208201905092915050565b5f819050602082019050919050565b610dc981610bcb565b82525050565b610dd881610b90565b82525050565b5f82825260208201905092915050565b5f610df882610c5a565b610e028185610dde565b9350610e12818560208601610c74565b610e1b81610c82565b840191505092915050565b5f60a083015f830151610e3b5f860182610dc0565b506020830151610e4e6020860182610dcf565b5060408301518482036040860152610e668282610dee565b9150506060830151610e7b6060860182610dc0565b506080830151610e8e6080860182610dc0565b508091505092915050565b5f610ea48383610e26565b905092915050565b5f602082019050919050565b5f610ec282610d97565b610ecc8185610da1565b935083602082028501610ede85610db1565b805f5b85811015610f195784840389528151610efa8582610e99565b9450610f0583610eac565b925060208a01995050600181019050610ee1565b50829750879550505050505092915050565b5f6020820190508181035f830152610f438184610eb8565b905092915050565b5f61ffff82169050919050565b610f6181610f4b565b82525050565b5f602082019050610f7a5f830184610f58565b92915050565b5f80fd5b5f80fd5b7f4e487b71000000000000000000000000000000000000000000000000000000005f52604160045260245ffd5b610fbe82610c82565b810181811067ffffffffffffffff82111715610fdd57610fdc610f88565b5b80604052505050565b5f610fef610b60565b9050610ffb8282610fb5565b919050565b5f67ffffffffffffffff82111561101a57611019610f88565b5b61102382610c82565b9050602081019050919050565b828183375f83830152505050565b5f61105061104b84611000565b610fe6565b90508281526020810184848401111561106c5761106b610f84565b5b611077848285611030565b509392505050565b5f82601f83011261109357611092610f80565b5b81356110a384826020860161103e565b91505092915050565b5f602082840312156110c1576110c0610b69565b5b5f82013567ffffffffffffffff8111156110de576110dd610b6d565b5b6110ea8482850161107f565b91505092915050565b6110fc81610f4b565b8114611106575f80fd5b50565b5f81359050611117816110f3565b92915050565b5f6020828403121561113257611131610b69565b5b5f61113f84828501611109565b91505092915050565b5f60208201905061115b5f830184610c4b565b92915050565b7f4e487b71000000000000000000000000000000000000000000000000000000005f52602260045260245ffd5b5f60028204905060018216806111a557607f821691505b6020821081036111b8576111b7611161565b5b50919050565b7f4e487b71000000000000000000000000000000000000000000000000000000005f52603260045260245ffd5b7f547765657420646f65736e7420657869737473000000000000000000000000005f82015250565b5f61121f601383610c64565b915061122a826111eb565b602082019050919050565b5f6020820190508181035f83015261124c81611213565b9050919050565b7f547765657420686173206e6f206c696b657300000000000000000000000000005f82015250565b5f611287601283610c64565b915061129282611253565b602082019050919050565b5f6020820190508181035f8301526112b48161127b565b9050919050565b7f4e487b71000000000000000000000000000000000000000000000000000000005f52601160045260245ffd5b5f6112f282610bcb565b91505f8203611304576113036112bb565b5b600182039050919050565b5f61131982610bcb565b91507fffffffffffffffffffffffffffffffffffffffffffffffffffffffffffffffff820361134b5761134a6112bb565b5b600182019050919050565b7f547765657420697320746f6f6f6f6f206c6f6e672062726f74686572210000005f82015250565b5f61138a601d83610c64565b915061139582611356565b602082019050919050565b5f6020820190508181035f8301526113b78161137e565b9050919050565b5f819050815f5260205f209050919050565b5f6020601f8301049050919050565b5f82821b905092915050565b5f6008830261141a7fffffffffffffffffffffffffffffffffffffffffffffffffffffffffffffffff826113df565b61142486836113df565b95508019841693508086168417925050509392505050565b5f819050919050565b5f61145f61145a61145584610bcb565b61143c565b610bcb565b9050919050565b5f819050919050565b61147883611445565b61148c61148482611466565b8484546113eb565b825550505050565b5f90565b6114a0611494565b6114ab81848461146f565b505050565b5b818110156114ce576114c35f82611498565b6001810190506114b1565b5050565b601f821115611513576114e4816113be565b6114ed846113d0565b810160208510156114fc578190505b611510611508856113d0565b8301826114b0565b50505b505050565b5f82821c905092915050565b5f6115335f1984600802611518565b1980831691505092915050565b5f61154b8383611524565b9150826002028217905092915050565b61156482610c5a565b67ffffffffffffffff81111561157d5761157c610f88565b5b611587825461118e565b6115928282856114d2565b5f60209050601f8311600181146115c3575f84156115b1578287015190505b6115bb8582611540565b865550611622565b601f1984166115d1866113be565b5f5b828110156115f8578489015182556001820191506020850194506020810190506115d3565b868310156116155784890151611611601f891682611524565b8355505b6001600288020188555050505b505050505050565b7f4865792c20596f7520617265206e6f7420746865204f776e65720000000000005f82015250565b5f61165e601a83610c64565b91506116698261162a565b602082019050919050565b5f6020820190508181035f83015261168b81611652565b905091905056fea26469706673582212206d983c223343398adb035e4288a2daadea33d4526a2066a8eb27d2952505aab464736f6c634300081a0033",
					"opcodes": "PUSH1 0x80 PUSH1 0x40 MSTORE PUSH1 0xDC PUSH0 DUP1 PUSH2 0x100 EXP DUP2 SLOAD DUP2 PUSH2 0xFFFF MUL NOT AND SWAP1 DUP4 PUSH2 0xFFFF AND MUL OR SWAP1 SSTORE POP CALLVALUE DUP1 ISZERO PUSH1 0x2A JUMPI PUSH0 DUP1 REVERT JUMPDEST POP CALLER PUSH1 0x2 PUSH0 PUSH2 0x100 EXP DUP2 SLOAD DUP2 PUSH20 0xFFFFFFFFFFFFFFFFFFFFFFFFFFFFFFFFFFFFFFFF MUL NOT AND SWAP1 DUP4 PUSH20 0xFFFFFFFFFFFFFFFFFFFFFFFFFFFFFFFFFFFFFFFF AND MUL OR SWAP1 SSTORE POP PUSH2 0x16C8 DUP1 PUSH2 0x78 PUSH0 CODECOPY PUSH0 RETURN INVALID PUSH1 0x80 PUSH1 0x40 MSTORE CALLVALUE DUP1 ISZERO PUSH2 0xF JUMPI PUSH0 DUP1 REVERT JUMPDEST POP PUSH1 0x4 CALLDATASIZE LT PUSH2 0x91 JUMPI PUSH0 CALLDATALOAD PUSH1 0xE0 SHR DUP1 PUSH4 0x63378216 GT PUSH2 0x64 JUMPI DUP1 PUSH4 0x63378216 EQ PUSH2 0x148 JUMPI DUP1 PUSH4 0x6EB10797 EQ PUSH2 0x164 JUMPI DUP1 PUSH4 0x7C9CD2BC EQ PUSH2 0x182 JUMPI DUP1 PUSH4 0x8CDE680B EQ PUSH2 0x19E JUMPI DUP1 PUSH4 0x8DA5CB5B EQ PUSH2 0x1BA JUMPI PUSH2 0x91 JUMP JUMPDEST DUP1 PUSH4 0x5A1B4A9 EQ PUSH2 0x95 JUMPI DUP1 PUSH4 0x112F54E3 EQ PUSH2 0xC9 JUMPI DUP1 PUSH4 0x12E7EE1C EQ PUSH2 0xFC JUMPI DUP1 PUSH4 0x3D9B569F EQ PUSH2 0x12C JUMPI JUMPDEST PUSH0 DUP1 REVERT JUMPDEST PUSH2 0xAF PUSH1 0x4 DUP1 CALLDATASIZE SUB DUP2 ADD SWAP1 PUSH2 0xAA SWAP2 SWAP1 PUSH2 0xBFE JUMP JUMPDEST PUSH2 0x1D8 JUMP JUMPDEST PUSH1 0x40 MLOAD PUSH2 0xC0 SWAP6 SWAP5 SWAP4 SWAP3 SWAP2 SWAP1 PUSH2 0xCCA JUMP JUMPDEST PUSH1 0x40 MLOAD DUP1 SWAP2 SUB SWAP1 RETURN JUMPDEST PUSH2 0xE3 PUSH1 0x4 DUP1 CALLDATASIZE SUB DUP2 ADD SWAP1 PUSH2 0xDE SWAP2 SWAP1 PUSH2 0xBFE JUMP JUMPDEST PUSH2 0x2C9 JUMP JUMPDEST PUSH1 0x40 MLOAD PUSH2 0xF3 SWAP5 SWAP4 SWAP3 SWAP2 SWAP1 PUSH2 0xD22 JUMP JUMPDEST PUSH1 0x40 MLOAD DUP1 SWAP2 SUB SWAP1 RETURN JUMPDEST PUSH2 0x116 PUSH1 0x4 DUP1 CALLDATASIZE SUB DUP2 ADD SWAP1 PUSH2 0x111 SWAP2 SWAP1 PUSH2 0xD6C JUMP JUMPDEST PUSH2 0x45F JUMP JUMPDEST PUSH1 0x40 MLOAD PUSH2 0x123 SWAP2 SWAP1 PUSH2 0xF2B JUMP JUMPDEST PUSH1 0x40 MLOAD DUP1 SWAP2 SUB SWAP1 RETURN JUMPDEST PUSH2 0x146 PUSH1 0x4 DUP1 CALLDATASIZE SUB DUP2 ADD SWAP1 PUSH2 0x141 SWAP2 SWAP1 PUSH2 0xBFE JUMP JUMPDEST PUSH2 0x5FA JUMP JUMPDEST STOP JUMPDEST PUSH2 0x162 PUSH1 0x4 DUP1 CALLDATASIZE SUB DUP2 ADD SWAP1 PUSH2 0x15D SWAP2 SWAP1 PUSH2 0xBFE JUMP JUMPDEST PUSH2 0x7B0 JUMP JUMPDEST STOP JUMPDEST PUSH2 0x16C PUSH2 0x8C6 JUMP JUMPDEST PUSH1 0x40 MLOAD PUSH2 0x179 SWAP2 SWAP1 PUSH2 0xF67 JUMP JUMPDEST PUSH1 0x40 MLOAD DUP1 SWAP2 SUB SWAP1 RETURN JUMPDEST PUSH2 0x19C PUSH1 0x4 DUP1 CALLDATASIZE SUB DUP2 ADD SWAP1 PUSH2 0x197 SWAP2 SWAP1 PUSH2 0x10AC JUMP JUMPDEST PUSH2 0x8D7 JUMP JUMPDEST STOP JUMPDEST PUSH2 0x1B8 PUSH1 0x4 DUP1 CALLDATASIZE SUB DUP2 ADD SWAP1 PUSH2 0x1B3 SWAP2 SWAP1 PUSH2 0x111D JUMP JUMPDEST PUSH2 0xA8E JUMP JUMPDEST STOP JUMPDEST PUSH2 0x1C2 PUSH2 0xB3B JUMP JUMPDEST PUSH1 0x40 MLOAD PUSH2 0x1CF SWAP2 SWAP1 PUSH2 0x1148 JUMP JUMPDEST PUSH1 0x40 MLOAD DUP1 SWAP2 SUB SWAP1 RETURN JUMPDEST PUSH1 0x1 PUSH1 0x20 MSTORE DUP2 PUSH0 MSTORE PUSH1 0x40 PUSH0 KECCAK256 DUP2 DUP2 SLOAD DUP2 LT PUSH2 0x1F1 JUMPI PUSH0 DUP1 REVERT JUMPDEST SWAP1 PUSH0 MSTORE PUSH1 0x20 PUSH0 KECCAK256 SWAP1 PUSH1 0x5 MUL ADD PUSH0 SWAP2 POP SWAP2 POP POP DUP1 PUSH0 ADD SLOAD SWAP1 DUP1 PUSH1 0x1 ADD PUSH0 SWAP1 SLOAD SWAP1 PUSH2 0x100 EXP SWAP1 DIV PUSH20 0xFFFFFFFFFFFFFFFFFFFFFFFFFFFFFFFFFFFFFFFF AND SWAP1 DUP1 PUSH1 0x2 ADD DUP1 SLOAD PUSH2 0x23C SWAP1 PUSH2 0x118E JUMP JUMPDEST DUP1 PUSH1 0x1F ADD PUSH1 0x20 DUP1 SWAP2 DIV MUL PUSH1 0x20 ADD PUSH1 0x40 MLOAD SWAP1 DUP2 ADD PUSH1 0x40 MSTORE DUP1 SWAP3 SWAP2 SWAP1 DUP2 DUP2 MSTORE PUSH1 0x20 ADD DUP3 DUP1 SLOAD PUSH2 0x268 SWAP1 PUSH2 0x118E JUMP JUMPDEST DUP1 ISZERO PUSH2 0x2B3 JUMPI DUP1 PUSH1 0x1F LT PUSH2 0x28A JUMPI PUSH2 0x100 DUP1 DUP4 SLOAD DIV MUL DUP4 MSTORE SWAP2 PUSH1 0x20 ADD SWAP2 PUSH2 0x2B3 JUMP JUMPDEST DUP3 ADD SWAP2 SWAP1 PUSH0 MSTORE PUSH1 0x20 PUSH0 KECCAK256 SWAP1 JUMPDEST DUP2 SLOAD DUP2 MSTORE SWAP1 PUSH1 0x1 ADD SWAP1 PUSH1 0x20 ADD DUP1 DUP4 GT PUSH2 0x296 JUMPI DUP3 SWAP1 SUB PUSH1 0x1F AND DUP3 ADD SWAP2 JUMPDEST POP POP POP POP POP SWAP1 DUP1 PUSH1 0x3 ADD SLOAD SWAP1 DUP1 PUSH1 0x4 ADD SLOAD SWAP1 POP DUP6 JUMP JUMPDEST PUSH0 PUSH1 0x60 PUSH0 DUP1 PUSH0 PUSH1 0x1 PUSH0 DUP9 PUSH20 0xFFFFFFFFFFFFFFFFFFFFFFFFFFFFFFFFFFFFFFFF AND PUSH20 0xFFFFFFFFFFFFFFFFFFFFFFFFFFFFFFFFFFFFFFFF AND DUP2 MSTORE PUSH1 0x20 ADD SWAP1 DUP2 MSTORE PUSH1 0x20 ADD PUSH0 KECCAK256 DUP7 DUP2 SLOAD DUP2 LT PUSH2 0x31E JUMPI PUSH2 0x31D PUSH2 0x11BE JUMP JUMPDEST JUMPDEST SWAP1 PUSH0 MSTORE PUSH1 0x20 PUSH0 KECCAK256 SWAP1 PUSH1 0x5 MUL ADD PUSH1 0x40 MLOAD DUP1 PUSH1 0xA0 ADD PUSH1 0x40 MSTORE SWAP1 DUP2 PUSH0 DUP3 ADD SLOAD DUP2 MSTORE PUSH1 0x20 ADD PUSH1 0x1 DUP3 ADD PUSH0 SWAP1 SLOAD SWAP1 PUSH2 0x100 EXP SWAP1 DIV PUSH20 0xFFFFFFFFFFFFFFFFFFFFFFFFFFFFFFFFFFFFFFFF AND PUSH20 0xFFFFFFFFFFFFFFFFFFFFFFFFFFFFFFFFFFFFFFFF AND PUSH20 0xFFFFFFFFFFFFFFFFFFFFFFFFFFFFFFFFFFFFFFFF AND DUP2 MSTORE PUSH1 0x20 ADD PUSH1 0x2 DUP3 ADD DUP1 SLOAD PUSH2 0x3A3 SWAP1 PUSH2 0x118E JUMP JUMPDEST DUP1 PUSH1 0x1F ADD PUSH1 0x20 DUP1 SWAP2 DIV MUL PUSH1 0x20 ADD PUSH1 0x40 MLOAD SWAP1 DUP2 ADD PUSH1 0x40 MSTORE DUP1 SWAP3 SWAP2 SWAP1 DUP2 DUP2 MSTORE PUSH1 0x20 ADD DUP3 DUP1 SLOAD PUSH2 0x3CF SWAP1 PUSH2 0x118E JUMP JUMPDEST DUP1 ISZERO PUSH2 0x41A JUMPI DUP1 PUSH1 0x1F LT PUSH2 0x3F1 JUMPI PUSH2 0x100 DUP1 DUP4 SLOAD DIV MUL DUP4 MSTORE SWAP2 PUSH1 0x20 ADD SWAP2 PUSH2 0x41A JUMP JUMPDEST DUP3 ADD SWAP2 SWAP1 PUSH0 MSTORE PUSH1 0x20 PUSH0 KECCAK256 SWAP1 JUMPDEST DUP2 SLOAD DUP2 MSTORE SWAP1 PUSH1 0x1 ADD SWAP1 PUSH1 0x20 ADD DUP1 DUP4 GT PUSH2 0x3FD JUMPI DUP3 SWAP1 SUB PUSH1 0x1F AND DUP3 ADD SWAP2 JUMPDEST POP POP POP POP POP DUP2 MSTORE PUSH1 0x20 ADD PUSH1 0x3 DUP3 ADD SLOAD DUP2 MSTORE PUSH1 0x20 ADD PUSH1 0x4 DUP3 ADD SLOAD DUP2 MSTORE POP POP SWAP1 POP DUP1 PUSH1 0x20 ADD MLOAD DUP2 PUSH1 0x40 ADD MLOAD DUP3 PUSH1 0x60 ADD MLOAD DUP4 PUSH1 0x80 ADD MLOAD SWAP5 POP SWAP5 POP SWAP5 POP SWAP5 POP POP SWAP3 SWAP6 SWAP2 SWAP5 POP SWAP3 POP JUMP JUMPDEST PUSH1 0x60 PUSH1 0x1 PUSH0 DUP4 PUSH20 0xFFFFFFFFFFFFFFFFFFFFFFFFFFFFFFFFFFFFFFFF AND PUSH20 0xFFFFFFFFFFFFFFFFFFFFFFFFFFFFFFFFFFFFFFFF AND DUP2 MSTORE PUSH1 0x20 ADD SWAP1 DUP2 MSTORE PUSH1 0x20 ADD PUSH0 KECCAK256 DUP1 SLOAD DUP1 PUSH1 0x20 MUL PUSH1 0x20 ADD PUSH1 0x40 MLOAD SWAP1 DUP2 ADD PUSH1 0x40 MSTORE DUP1 SWAP3 SWAP2 SWAP1 DUP2 DUP2 MSTORE PUSH1 0x20 ADD PUSH0 SWAP1 JUMPDEST DUP3 DUP3 LT ISZERO PUSH2 0x5EF JUMPI DUP4 DUP3 SWAP1 PUSH0 MSTORE PUSH1 0x20 PUSH0 KECCAK256 SWAP1 PUSH1 0x5 MUL ADD PUSH1 0x40 MLOAD DUP1 PUSH1 0xA0 ADD PUSH1 0x40 MSTORE SWAP1 DUP2 PUSH0 DUP3 ADD SLOAD DUP2 MSTORE PUSH1 0x20 ADD PUSH1 0x1 DUP3 ADD PUSH0 SWAP1 SLOAD SWAP1 PUSH2 0x100 EXP SWAP1 DIV PUSH20 0xFFFFFFFFFFFFFFFFFFFFFFFFFFFFFFFFFFFFFFFF AND PUSH20 0xFFFFFFFFFFFFFFFFFFFFFFFFFFFFFFFFFFFFFFFF AND PUSH20 0xFFFFFFFFFFFFFFFFFFFFFFFFFFFFFFFFFFFFFFFF AND DUP2 MSTORE PUSH1 0x20 ADD PUSH1 0x2 DUP3 ADD DUP1 SLOAD PUSH2 0x54C SWAP1 PUSH2 0x118E JUMP JUMPDEST DUP1 PUSH1 0x1F ADD PUSH1 0x20 DUP1 SWAP2 DIV MUL PUSH1 0x20 ADD PUSH1 0x40 MLOAD SWAP1 DUP2 ADD PUSH1 0x40 MSTORE DUP1 SWAP3 SWAP2 SWAP1 DUP2 DUP2 MSTORE PUSH1 0x20 ADD DUP3 DUP1 SLOAD PUSH2 0x578 SWAP1 PUSH2 0x118E JUMP JUMPDEST DUP1 ISZERO PUSH2 0x5C3 JUMPI DUP1 PUSH1 0x1F LT PUSH2 0x59A JUMPI PUSH2 0x100 DUP1 DUP4 SLOAD DIV MUL DUP4 MSTORE SWAP2 PUSH1 0x20 ADD SWAP2 PUSH2 0x5C3 JUMP JUMPDEST DUP3 ADD SWAP2 SWAP1 PUSH0 MSTORE PUSH1 0x20 PUSH0 KECCAK256 SWAP1 JUMPDEST DUP2 SLOAD DUP2 MSTORE SWAP1 PUSH1 0x1 ADD SWAP1 PUSH1 0x20 ADD DUP1 DUP4 GT PUSH2 0x5A6 JUMPI DUP3 SWAP1 SUB PUSH1 0x1F AND DUP3 ADD SWAP2 JUMPDEST POP POP POP POP POP DUP2 MSTORE PUSH1 0x20 ADD PUSH1 0x3 DUP3 ADD SLOAD DUP2 MSTORE PUSH1 0x20 ADD PUSH1 0x4 DUP3 ADD SLOAD DUP2 MSTORE POP POP DUP2 MSTORE PUSH1 0x20 ADD SWAP1 PUSH1 0x1 ADD SWAP1 PUSH2 0x4BD JUMP JUMPDEST POP POP POP POP SWAP1 POP SWAP2 SWAP1 POP JUMP JUMPDEST DUP1 PUSH1 0x1 PUSH0 DUP5 PUSH20 0xFFFFFFFFFFFFFFFFFFFFFFFFFFFFFFFFFFFFFFFF AND PUSH20 0xFFFFFFFFFFFFFFFFFFFFFFFFFFFFFFFFFFFFFFFF AND DUP2 MSTORE PUSH1 0x20 ADD SWAP1 DUP2 MSTORE PUSH1 0x20 ADD PUSH0 KECCAK256 DUP3 DUP2 SLOAD DUP2 LT PUSH2 0x64A JUMPI PUSH2 0x649 PUSH2 0x11BE JUMP JUMPDEST JUMPDEST SWAP1 PUSH0 MSTORE PUSH1 0x20 PUSH0 KECCAK256 SWAP1 PUSH1 0x5 MUL ADD PUSH0 ADD SLOAD EQ PUSH2 0x699 JUMPI PUSH1 0x40 MLOAD PUSH32 0x8C379A000000000000000000000000000000000000000000000000000000000 DUP2 MSTORE PUSH1 0x4 ADD PUSH2 0x690 SWAP1 PUSH2 0x1235 JUMP JUMPDEST PUSH1 0x40 MLOAD DUP1 SWAP2 SUB SWAP1 REVERT JUMPDEST PUSH0 PUSH1 0x1 PUSH0 DUP5 PUSH20 0xFFFFFFFFFFFFFFFFFFFFFFFFFFFFFFFFFFFFFFFF AND PUSH20 0xFFFFFFFFFFFFFFFFFFFFFFFFFFFFFFFFFFFFFFFF AND DUP2 MSTORE PUSH1 0x20 ADD SWAP1 DUP2 MSTORE PUSH1 0x20 ADD PUSH0 KECCAK256 DUP3 DUP2 SLOAD DUP2 LT PUSH2 0x6E9 JUMPI PUSH2 0x6E8 PUSH2 0x11BE JUMP JUMPDEST JUMPDEST SWAP1 PUSH0 MSTORE PUSH1 0x20 PUSH0 KECCAK256 SWAP1 PUSH1 0x5 MUL ADD PUSH1 0x4 ADD SLOAD GT PUSH2 0x739 JUMPI PUSH1 0x40 MLOAD PUSH32 0x8C379A000000000000000000000000000000000000000000000000000000000 DUP2 MSTORE PUSH1 0x4 ADD PUSH2 0x730 SWAP1 PUSH2 0x129D JUMP JUMPDEST PUSH1 0x40 MLOAD DUP1 SWAP2 SUB SWAP1 REVERT JUMPDEST PUSH1 0x1 PUSH0 DUP4 PUSH20 0xFFFFFFFFFFFFFFFFFFFFFFFFFFFFFFFFFFFFFFFF AND PUSH20 0xFFFFFFFFFFFFFFFFFFFFFFFFFFFFFFFFFFFFFFFF AND DUP2 MSTORE PUSH1 0x20 ADD SWAP1 DUP2 MSTORE PUSH1 0x20 ADD PUSH0 KECCAK256 DUP2 DUP2 SLOAD DUP2 LT PUSH2 0x788 JUMPI PUSH2 0x787 PUSH2 0x11BE JUMP JUMPDEST JUMPDEST SWAP1 PUSH0 MSTORE PUSH1 0x20 PUSH0 KECCAK256 SWAP1 PUSH1 0x5 MUL ADD PUSH1 0x4 ADD PUSH0 DUP2 SLOAD DUP1 SWAP3 SWAP2 SWAP1 PUSH2 0x7A7 SWAP1 PUSH2 0x12E8 JUMP JUMPDEST SWAP2 SWAP1 POP SSTORE POP POP POP JUMP JUMPDEST DUP1 PUSH1 0x1 PUSH0 DUP5 PUSH20 0xFFFFFFFFFFFFFFFFFFFFFFFFFFFFFFFFFFFFFFFF AND PUSH20 0xFFFFFFFFFFFFFFFFFFFFFFFFFFFFFFFFFFFFFFFF AND DUP2 MSTORE PUSH1 0x20 ADD SWAP1 DUP2 MSTORE PUSH1 0x20 ADD PUSH0 KECCAK256 DUP3 DUP2 SLOAD DUP2 LT PUSH2 0x800 JUMPI PUSH2 0x7FF PUSH2 0x11BE JUMP JUMPDEST JUMPDEST SWAP1 PUSH0 MSTORE PUSH1 0x20 PUSH0 KECCAK256 SWAP1 PUSH1 0x5 MUL ADD PUSH0 ADD SLOAD EQ PUSH2 0x84F JUMPI PUSH1 0x40 MLOAD PUSH32 0x8C379A000000000000000000000000000000000000000000000000000000000 DUP2 MSTORE PUSH1 0x4 ADD PUSH2 0x846 SWAP1 PUSH2 0x1235 JUMP JUMPDEST PUSH1 0x40 MLOAD DUP1 SWAP2 SUB SWAP1 REVERT JUMPDEST PUSH1 0x1 PUSH0 DUP4 PUSH20 0xFFFFFFFFFFFFFFFFFFFFFFFFFFFFFFFFFFFFFFFF AND PUSH20 0xFFFFFFFFFFFFFFFFFFFFFFFFFFFFFFFFFFFFFFFF AND DUP2 MSTORE PUSH1 0x20 ADD SWAP1 DUP2 MSTORE PUSH1 0x20 ADD PUSH0 KECCAK256 DUP2 DUP2 SLOAD DUP2 LT PUSH2 0x89E JUMPI PUSH2 0x89D PUSH2 0x11BE JUMP JUMPDEST JUMPDEST SWAP1 PUSH0 MSTORE PUSH1 0x20 PUSH0 KECCAK256 SWAP1 PUSH1 0x5 MUL ADD PUSH1 0x4 ADD PUSH0 DUP2 SLOAD DUP1 SWAP3 SWAP2 SWAP1 PUSH2 0x8BD SWAP1 PUSH2 0x130F JUMP JUMPDEST SWAP2 SWAP1 POP SSTORE POP POP POP JUMP JUMPDEST PUSH0 DUP1 SLOAD SWAP1 PUSH2 0x100 EXP SWAP1 DIV PUSH2 0xFFFF AND DUP2 JUMP JUMPDEST PUSH0 DUP1 SLOAD SWAP1 PUSH2 0x100 EXP SWAP1 DIV PUSH2 0xFFFF AND PUSH2 0xFFFF AND DUP2 MLOAD GT ISZERO PUSH2 0x92C JUMPI PUSH1 0x40 MLOAD PUSH32 0x8C379A000000000000000000000000000000000000000000000000000000000 DUP2 MSTORE PUSH1 0x4 ADD PUSH2 0x923 SWAP1 PUSH2 0x13A0 JUMP JUMPDEST PUSH1 0x40 MLOAD DUP1 SWAP2 SUB SWAP1 REVERT JUMPDEST PUSH0 PUSH1 0x40 MLOAD DUP1 PUSH1 0xA0 ADD PUSH1 0x40 MSTORE DUP1 PUSH1 0x1 PUSH0 CALLER PUSH20 0xFFFFFFFFFFFFFFFFFFFFFFFFFFFFFFFFFFFFFFFF AND PUSH20 0xFFFFFFFFFFFFFFFFFFFFFFFFFFFFFFFFFFFFFFFF AND DUP2 MSTORE PUSH1 0x20 ADD SWAP1 DUP2 MSTORE PUSH1 0x20 ADD PUSH0 KECCAK256 DUP1 SLOAD SWAP1 POP DUP2 MSTORE PUSH1 0x20 ADD CALLER PUSH20 0xFFFFFFFFFFFFFFFFFFFFFFFFFFFFFFFFFFFFFFFF AND DUP2 MSTORE PUSH1 0x20 ADD DUP4 DUP2 MSTORE PUSH1 0x20 ADD TIMESTAMP DUP2 MSTORE PUSH1 0x20 ADD PUSH0 DUP2 MSTORE POP SWAP1 POP PUSH1 0x1 PUSH0 CALLER PUSH20 0xFFFFFFFFFFFFFFFFFFFFFFFFFFFFFFFFFFFFFFFF AND PUSH20 0xFFFFFFFFFFFFFFFFFFFFFFFFFFFFFFFFFFFFFFFF AND DUP2 MSTORE PUSH1 0x20 ADD SWAP1 DUP2 MSTORE PUSH1 0x20 ADD PUSH0 KECCAK256 DUP2 SWAP1 DUP1 PUSH1 0x1 DUP2 SLOAD ADD DUP1 DUP3 SSTORE DUP1 SWAP2 POP POP PUSH1 0x1 SWAP1 SUB SWAP1 PUSH0 MSTORE PUSH1 0x20 PUSH0 KECCAK256 SWAP1 PUSH1 0x5 MUL ADD PUSH0 SWAP1 SWAP2 SWAP1 SWAP2 SWAP1 SWAP2 POP PUSH0 DUP3 ADD MLOAD DUP2 PUSH0 ADD SSTORE PUSH1 0x20 DUP3 ADD MLOAD DUP2 PUSH1 0x1 ADD PUSH0 PUSH2 0x100 EXP DUP2 SLOAD DUP2 PUSH20 0xFFFFFFFFFFFFFFFFFFFFFFFFFFFFFFFFFFFFFFFF MUL NOT AND SWAP1 DUP4 PUSH20 0xFFFFFFFFFFFFFFFFFFFFFFFFFFFFFFFFFFFFFFFF AND MUL OR SWAP1 SSTORE POP PUSH1 0x40 DUP3 ADD MLOAD DUP2 PUSH1 0x2 ADD SWAP1 DUP2 PUSH2 0xA73 SWAP2 SWAP1 PUSH2 0x155B JUMP JUMPDEST POP PUSH1 0x60 DUP3 ADD MLOAD DUP2 PUSH1 0x3 ADD SSTORE PUSH1 0x80 DUP3 ADD MLOAD DUP2 PUSH1 0x4 ADD SSTORE POP POP POP POP JUMP JUMPDEST PUSH1 0x2 PUSH0 SWAP1 SLOAD SWAP1 PUSH2 0x100 EXP SWAP1 DIV PUSH20 0xFFFFFFFFFFFFFFFFFFFFFFFFFFFFFFFFFFFFFFFF AND PUSH20 0xFFFFFFFFFFFFFFFFFFFFFFFFFFFFFFFFFFFFFFFF AND CALLER PUSH20 0xFFFFFFFFFFFFFFFFFFFFFFFFFFFFFFFFFFFFFFFF AND EQ PUSH2 0xB1D JUMPI PUSH1 0x40 MLOAD PUSH32 0x8C379A000000000000000000000000000000000000000000000000000000000 DUP2 MSTORE PUSH1 0x4 ADD PUSH2 0xB14 SWAP1 PUSH2 0x1674 JUMP JUMPDEST PUSH1 0x40 MLOAD DUP1 SWAP2 SUB SWAP1 REVERT JUMPDEST DUP1 PUSH0 DUP1 PUSH2 0x100 EXP DUP2 SLOAD DUP2 PUSH2 0xFFFF MUL NOT AND SWAP1 DUP4 PUSH2 0xFFFF AND MUL OR SWAP1 SSTORE POP POP JUMP JUMPDEST PUSH1 0x2 PUSH0 SWAP1 SLOAD SWAP1 PUSH2 0x100 EXP SWAP1 DIV PUSH20 0xFFFFFFFFFFFFFFFFFFFFFFFFFFFFFFFFFFFFFFFF AND DUP2 JUMP JUMPDEST PUSH0 PUSH1 0x40 MLOAD SWAP1 POP SWAP1 JUMP JUMPDEST PUSH0 DUP1 REVERT JUMPDEST PUSH0 DUP1 REVERT JUMPDEST PUSH0 PUSH20 0xFFFFFFFFFFFFFFFFFFFFFFFFFFFFFFFFFFFFFFFF DUP3 AND SWAP1 POP SWAP2 SWAP1 POP JUMP JUMPDEST PUSH0 PUSH2 0xB9A DUP3 PUSH2 0xB71 JUMP JUMPDEST SWAP1 POP SWAP2 SWAP1 POP JUMP JUMPDEST PUSH2 0xBAA DUP2 PUSH2 0xB90 JUMP JUMPDEST DUP2 EQ PUSH2 0xBB4 JUMPI PUSH0 DUP1 REVERT JUMPDEST POP JUMP JUMPDEST PUSH0 DUP2 CALLDATALOAD SWAP1 POP PUSH2 0xBC5 DUP2 PUSH2 0xBA1 JUMP JUMPDEST SWAP3 SWAP2 POP POP JUMP JUMPDEST PUSH0 DUP2 SWAP1 POP SWAP2 SWAP1 POP JUMP JUMPDEST PUSH2 0xBDD DUP2 PUSH2 0xBCB JUMP JUMPDEST DUP2 EQ PUSH2 0xBE7 JUMPI PUSH0 DUP1 REVERT JUMPDEST POP JUMP JUMPDEST PUSH0 DUP2 CALLDATALOAD SWAP1 POP PUSH2 0xBF8 DUP2 PUSH2 0xBD4 JUMP JUMPDEST SWAP3 SWAP2 POP POP JUMP JUMPDEST PUSH0 DUP1 PUSH1 0x40 DUP4 DUP6 SUB SLT ISZERO PUSH2 0xC14 JUMPI PUSH2 0xC13 PUSH2 0xB69 JUMP JUMPDEST JUMPDEST PUSH0 PUSH2 0xC21 DUP6 DUP3 DUP7 ADD PUSH2 0xBB7 JUMP JUMPDEST SWAP3 POP POP PUSH1 0x20 PUSH2 0xC32 DUP6 DUP3 DUP7 ADD PUSH2 0xBEA JUMP JUMPDEST SWAP2 POP POP SWAP3 POP SWAP3 SWAP1 POP JUMP JUMPDEST PUSH2 0xC45 DUP2 PUSH2 0xBCB JUMP JUMPDEST DUP3 MSTORE POP POP JUMP JUMPDEST PUSH2 0xC54 DUP2 PUSH2 0xB90 JUMP JUMPDEST DUP3 MSTORE POP POP JUMP JUMPDEST PUSH0 DUP2 MLOAD SWAP1 POP SWAP2 SWAP1 POP JUMP JUMPDEST PUSH0 DUP3 DUP3 MSTORE PUSH1 0x20 DUP3 ADD SWAP1 POP SWAP3 SWAP2 POP POP JUMP JUMPDEST DUP3 DUP2 DUP4 MCOPY PUSH0 DUP4 DUP4 ADD MSTORE POP POP POP JUMP JUMPDEST PUSH0 PUSH1 0x1F NOT PUSH1 0x1F DUP4 ADD AND SWAP1 POP SWAP2 SWAP1 POP JUMP JUMPDEST PUSH0 PUSH2 0xC9C DUP3 PUSH2 0xC5A JUMP JUMPDEST PUSH2 0xCA6 DUP2 DUP6 PUSH2 0xC64 JUMP JUMPDEST SWAP4 POP PUSH2 0xCB6 DUP2 DUP6 PUSH1 0x20 DUP7 ADD PUSH2 0xC74 JUMP JUMPDEST PUSH2 0xCBF DUP2 PUSH2 0xC82 JUMP JUMPDEST DUP5 ADD SWAP2 POP POP SWAP3 SWAP2 POP POP JUMP JUMPDEST PUSH0 PUSH1 0xA0 DUP3 ADD SWAP1 POP PUSH2 0xCDD PUSH0 DUP4 ADD DUP9 PUSH2 0xC3C JUMP JUMPDEST PUSH2 0xCEA PUSH1 0x20 DUP4 ADD DUP8 PUSH2 0xC4B JUMP JUMPDEST DUP2 DUP2 SUB PUSH1 0x40 DUP4 ADD MSTORE PUSH2 0xCFC DUP2 DUP7 PUSH2 0xC92 JUMP JUMPDEST SWAP1 POP PUSH2 0xD0B PUSH1 0x60 DUP4 ADD DUP6 PUSH2 0xC3C JUMP JUMPDEST PUSH2 0xD18 PUSH1 0x80 DUP4 ADD DUP5 PUSH2 0xC3C JUMP JUMPDEST SWAP7 SWAP6 POP POP POP POP POP POP JUMP JUMPDEST PUSH0 PUSH1 0x80 DUP3 ADD SWAP1 POP PUSH2 0xD35 PUSH0 DUP4 ADD DUP8 PUSH2 0xC4B JUMP JUMPDEST DUP2 DUP2 SUB PUSH1 0x20 DUP4 ADD MSTORE PUSH2 0xD47 DUP2 DUP7 PUSH2 0xC92 JUMP JUMPDEST SWAP1 POP PUSH2 0xD56 PUSH1 0x40 DUP4 ADD DUP6 PUSH2 0xC3C JUMP JUMPDEST PUSH2 0xD63 PUSH1 0x60 DUP4 ADD DUP5 PUSH2 0xC3C JUMP JUMPDEST SWAP6 SWAP5 POP POP POP POP POP JUMP JUMPDEST PUSH0 PUSH1 0x20 DUP3 DUP5 SUB SLT ISZERO PUSH2 0xD81 JUMPI PUSH2 0xD80 PUSH2 0xB69 JUMP JUMPDEST JUMPDEST PUSH0 PUSH2 0xD8E DUP5 DUP3 DUP6 ADD PUSH2 0xBB7 JUMP JUMPDEST SWAP2 POP POP SWAP3 SWAP2 POP POP JUMP JUMPDEST PUSH0 DUP2 MLOAD SWAP1 POP SWAP2 SWAP1 POP JUMP JUMPDEST PUSH0 DUP3 DUP3 MSTORE PUSH1 0x20 DUP3 ADD SWAP1 POP SWAP3 SWAP2 POP POP JUMP JUMPDEST PUSH0 DUP2 SWAP1 POP PUSH1 0x20 DUP3 ADD SWAP1 POP SWAP2 SWAP1 POP JUMP JUMPDEST PUSH2 0xDC9 DUP2 PUSH2 0xBCB JUMP JUMPDEST DUP3 MSTORE POP POP JUMP JUMPDEST PUSH2 0xDD8 DUP2 PUSH2 0xB90 JUMP JUMPDEST DUP3 MSTORE POP POP JUMP JUMPDEST PUSH0 DUP3 DUP3 MSTORE PUSH1 0x20 DUP3 ADD SWAP1 POP SWAP3 SWAP2 POP POP JUMP JUMPDEST PUSH0 PUSH2 0xDF8 DUP3 PUSH2 0xC5A JUMP JUMPDEST PUSH2 0xE02 DUP2 DUP6 PUSH2 0xDDE JUMP JUMPDEST SWAP4 POP PUSH2 0xE12 DUP2 DUP6 PUSH1 0x20 DUP7 ADD PUSH2 0xC74 JUMP JUMPDEST PUSH2 0xE1B DUP2 PUSH2 0xC82 JUMP JUMPDEST DUP5 ADD SWAP2 POP POP SWAP3 SWAP2 POP POP JUMP JUMPDEST PUSH0 PUSH1 0xA0 DUP4 ADD PUSH0 DUP4 ADD MLOAD PUSH2 0xE3B PUSH0 DUP7 ADD DUP3 PUSH2 0xDC0 JUMP JUMPDEST POP PUSH1 0x20 DUP4 ADD MLOAD PUSH2 0xE4E PUSH1 0x20 DUP7 ADD DUP3 PUSH2 0xDCF JUMP JUMPDEST POP PUSH1 0x40 DUP4 ADD MLOAD DUP5 DUP3 SUB PUSH1 0x40 DUP7 ADD MSTORE PUSH2 0xE66 DUP3 DUP3 PUSH2 0xDEE JUMP JUMPDEST SWAP2 POP POP PUSH1 0x60 DUP4 ADD MLOAD PUSH2 0xE7B PUSH1 0x60 DUP7 ADD DUP3 PUSH2 0xDC0 JUMP JUMPDEST POP PUSH1 0x80 DUP4 ADD MLOAD PUSH2 0xE8E PUSH1 0x80 DUP7 ADD DUP3 PUSH2 0xDC0 JUMP JUMPDEST POP DUP1 SWAP2 POP POP SWAP3 SWAP2 POP POP JUMP JUMPDEST PUSH0 PUSH2 0xEA4 DUP4 DUP4 PUSH2 0xE26 JUMP JUMPDEST SWAP1 POP SWAP3 SWAP2 POP POP JUMP JUMPDEST PUSH0 PUSH1 0x20 DUP3 ADD SWAP1 POP SWAP2 SWAP1 POP JUMP JUMPDEST PUSH0 PUSH2 0xEC2 DUP3 PUSH2 0xD97 JUMP JUMPDEST PUSH2 0xECC DUP2 DUP6 PUSH2 0xDA1 JUMP JUMPDEST SWAP4 POP DUP4 PUSH1 0x20 DUP3 MUL DUP6 ADD PUSH2 0xEDE DUP6 PUSH2 0xDB1 JUMP JUMPDEST DUP1 PUSH0 JUMPDEST DUP6 DUP2 LT ISZERO PUSH2 0xF19 JUMPI DUP5 DUP5 SUB DUP10 MSTORE DUP2 MLOAD PUSH2 0xEFA DUP6 DUP3 PUSH2 0xE99 JUMP JUMPDEST SWAP5 POP PUSH2 0xF05 DUP4 PUSH2 0xEAC JUMP JUMPDEST SWAP3 POP PUSH1 0x20 DUP11 ADD SWAP10 POP POP PUSH1 0x1 DUP2 ADD SWAP1 POP PUSH2 0xEE1 JUMP JUMPDEST POP DUP3 SWAP8 POP DUP8 SWAP6 POP POP POP POP POP POP SWAP3 SWAP2 POP POP JUMP JUMPDEST PUSH0 PUSH1 0x20 DUP3 ADD SWAP1 POP DUP2 DUP2 SUB PUSH0 DUP4 ADD MSTORE PUSH2 0xF43 DUP2 DUP5 PUSH2 0xEB8 JUMP JUMPDEST SWAP1 POP SWAP3 SWAP2 POP POP JUMP JUMPDEST PUSH0 PUSH2 0xFFFF DUP3 AND SWAP1 POP SWAP2 SWAP1 POP JUMP JUMPDEST PUSH2 0xF61 DUP2 PUSH2 0xF4B JUMP JUMPDEST DUP3 MSTORE POP POP JUMP JUMPDEST PUSH0 PUSH1 0x20 DUP3 ADD SWAP1 POP PUSH2 0xF7A PUSH0 DUP4 ADD DUP5 PUSH2 0xF58 JUMP JUMPDEST SWAP3 SWAP2 POP POP JUMP JUMPDEST PUSH0 DUP1 REVERT JUMPDEST PUSH0 DUP1 REVERT JUMPDEST PUSH32 0x4E487B7100000000000000000000000000000000000000000000000000000000 PUSH0 MSTORE PUSH1 0x41 PUSH1 0x4 MSTORE PUSH1 0x24 PUSH0 REVERT JUMPDEST PUSH2 0xFBE DUP3 PUSH2 0xC82 JUMP JUMPDEST DUP2 ADD DUP2 DUP2 LT PUSH8 0xFFFFFFFFFFFFFFFF DUP3 GT OR ISZERO PUSH2 0xFDD JUMPI PUSH2 0xFDC PUSH2 0xF88 JUMP JUMPDEST JUMPDEST DUP1 PUSH1 0x40 MSTORE POP POP POP JUMP JUMPDEST PUSH0 PUSH2 0xFEF PUSH2 0xB60 JUMP JUMPDEST SWAP1 POP PUSH2 0xFFB DUP3 DUP3 PUSH2 0xFB5 JUMP JUMPDEST SWAP2 SWAP1 POP JUMP JUMPDEST PUSH0 PUSH8 0xFFFFFFFFFFFFFFFF DUP3 GT ISZERO PUSH2 0x101A JUMPI PUSH2 0x1019 PUSH2 0xF88 JUMP JUMPDEST JUMPDEST PUSH2 0x1023 DUP3 PUSH2 0xC82 JUMP JUMPDEST SWAP1 POP PUSH1 0x20 DUP2 ADD SWAP1 POP SWAP2 SWAP1 POP JUMP JUMPDEST DUP3 DUP2 DUP4 CALLDATACOPY PUSH0 DUP4 DUP4 ADD MSTORE POP POP POP JUMP JUMPDEST PUSH0 PUSH2 0x1050 PUSH2 0x104B DUP5 PUSH2 0x1000 JUMP JUMPDEST PUSH2 0xFE6 JUMP JUMPDEST SWAP1 POP DUP3 DUP2 MSTORE PUSH1 0x20 DUP2 ADD DUP5 DUP5 DUP5 ADD GT ISZERO PUSH2 0x106C JUMPI PUSH2 0x106B PUSH2 0xF84 JUMP JUMPDEST JUMPDEST PUSH2 0x1077 DUP5 DUP3 DUP6 PUSH2 0x1030 JUMP JUMPDEST POP SWAP4 SWAP3 POP POP POP JUMP JUMPDEST PUSH0 DUP3 PUSH1 0x1F DUP4 ADD SLT PUSH2 0x1093 JUMPI PUSH2 0x1092 PUSH2 0xF80 JUMP JUMPDEST JUMPDEST DUP2 CALLDATALOAD PUSH2 0x10A3 DUP5 DUP3 PUSH1 0x20 DUP7 ADD PUSH2 0x103E JUMP JUMPDEST SWAP2 POP POP SWAP3 SWAP2 POP POP JUMP JUMPDEST PUSH0 PUSH1 0x20 DUP3 DUP5 SUB SLT ISZERO PUSH2 0x10C1 JUMPI PUSH2 0x10C0 PUSH2 0xB69 JUMP JUMPDEST JUMPDEST PUSH0 DUP3 ADD CALLDATALOAD PUSH8 0xFFFFFFFFFFFFFFFF DUP2 GT ISZERO PUSH2 0x10DE JUMPI PUSH2 0x10DD PUSH2 0xB6D JUMP JUMPDEST JUMPDEST PUSH2 0x10EA DUP5 DUP3 DUP6 ADD PUSH2 0x107F JUMP JUMPDEST SWAP2 POP POP SWAP3 SWAP2 POP POP JUMP JUMPDEST PUSH2 0x10FC DUP2 PUSH2 0xF4B JUMP JUMPDEST DUP2 EQ PUSH2 0x1106 JUMPI PUSH0 DUP1 REVERT JUMPDEST POP JUMP JUMPDEST PUSH0 DUP2 CALLDATALOAD SWAP1 POP PUSH2 0x1117 DUP2 PUSH2 0x10F3 JUMP JUMPDEST SWAP3 SWAP2 POP POP JUMP JUMPDEST PUSH0 PUSH1 0x20 DUP3 DUP5 SUB SLT ISZERO PUSH2 0x1132 JUMPI PUSH2 0x1131 PUSH2 0xB69 JUMP JUMPDEST JUMPDEST PUSH0 PUSH2 0x113F DUP5 DUP3 DUP6 ADD PUSH2 0x1109 JUMP JUMPDEST SWAP2 POP POP SWAP3 SWAP2 POP POP JUMP JUMPDEST PUSH0 PUSH1 0x20 DUP3 ADD SWAP1 POP PUSH2 0x115B PUSH0 DUP4 ADD DUP5 PUSH2 0xC4B JUMP JUMPDEST SWAP3 SWAP2 POP POP JUMP JUMPDEST PUSH32 0x4E487B7100000000000000000000000000000000000000000000000000000000 PUSH0 MSTORE PUSH1 0x22 PUSH1 0x4 MSTORE PUSH1 0x24 PUSH0 REVERT JUMPDEST PUSH0 PUSH1 0x2 DUP3 DIV SWAP1 POP PUSH1 0x1 DUP3 AND DUP1 PUSH2 0x11A5 JUMPI PUSH1 0x7F DUP3 AND SWAP2 POP JUMPDEST PUSH1 0x20 DUP3 LT DUP2 SUB PUSH2 0x11B8 JUMPI PUSH2 0x11B7 PUSH2 0x1161 JUMP JUMPDEST JUMPDEST POP SWAP2 SWAP1 POP JUMP JUMPDEST PUSH32 0x4E487B7100000000000000000000000000000000000000000000000000000000 PUSH0 MSTORE PUSH1 0x32 PUSH1 0x4 MSTORE PUSH1 0x24 PUSH0 REVERT JUMPDEST PUSH32 0x547765657420646F65736E742065786973747300000000000000000000000000 PUSH0 DUP3 ADD MSTORE POP JUMP JUMPDEST PUSH0 PUSH2 0x121F PUSH1 0x13 DUP4 PUSH2 0xC64 JUMP JUMPDEST SWAP2 POP PUSH2 0x122A DUP3 PUSH2 0x11EB JUMP JUMPDEST PUSH1 0x20 DUP3 ADD SWAP1 POP SWAP2 SWAP1 POP JUMP JUMPDEST PUSH0 PUSH1 0x20 DUP3 ADD SWAP1 POP DUP2 DUP2 SUB PUSH0 DUP4 ADD MSTORE PUSH2 0x124C DUP2 PUSH2 0x1213 JUMP JUMPDEST SWAP1 POP SWAP2 SWAP1 POP JUMP JUMPDEST PUSH32 0x547765657420686173206E6F206C696B65730000000000000000000000000000 PUSH0 DUP3 ADD MSTORE POP JUMP JUMPDEST PUSH0 PUSH2 0x1287 PUSH1 0x12 DUP4 PUSH2 0xC64 JUMP JUMPDEST SWAP2 POP PUSH2 0x1292 DUP3 PUSH2 0x1253 JUMP JUMPDEST PUSH1 0x20 DUP3 ADD SWAP1 POP SWAP2 SWAP1 POP JUMP JUMPDEST PUSH0 PUSH1 0x20 DUP3 ADD SWAP1 POP DUP2 DUP2 SUB PUSH0 DUP4 ADD MSTORE PUSH2 0x12B4 DUP2 PUSH2 0x127B JUMP JUMPDEST SWAP1 POP SWAP2 SWAP1 POP JUMP JUMPDEST PUSH32 0x4E487B7100000000000000000000000000000000000000000000000000000000 PUSH0 MSTORE PUSH1 0x11 PUSH1 0x4 MSTORE PUSH1 0x24 PUSH0 REVERT JUMPDEST PUSH0 PUSH2 0x12F2 DUP3 PUSH2 0xBCB JUMP JUMPDEST SWAP2 POP PUSH0 DUP3 SUB PUSH2 0x1304 JUMPI PUSH2 0x1303 PUSH2 0x12BB JUMP JUMPDEST JUMPDEST PUSH1 0x1 DUP3 SUB SWAP1 POP SWAP2 SWAP1 POP JUMP JUMPDEST PUSH0 PUSH2 0x1319 DUP3 PUSH2 0xBCB JUMP JUMPDEST SWAP2 POP PUSH32 0xFFFFFFFFFFFFFFFFFFFFFFFFFFFFFFFFFFFFFFFFFFFFFFFFFFFFFFFFFFFFFFFF DUP3 SUB PUSH2 0x134B JUMPI PUSH2 0x134A PUSH2 0x12BB JUMP JUMPDEST JUMPDEST PUSH1 0x1 DUP3 ADD SWAP1 POP SWAP2 SWAP1 POP JUMP JUMPDEST PUSH32 0x547765657420697320746F6F6F6F6F206C6F6E672062726F7468657221000000 PUSH0 DUP3 ADD MSTORE POP JUMP JUMPDEST PUSH0 PUSH2 0x138A PUSH1 0x1D DUP4 PUSH2 0xC64 JUMP JUMPDEST SWAP2 POP PUSH2 0x1395 DUP3 PUSH2 0x1356 JUMP JUMPDEST PUSH1 0x20 DUP3 ADD SWAP1 POP SWAP2 SWAP1 POP JUMP JUMPDEST PUSH0 PUSH1 0x20 DUP3 ADD SWAP1 POP DUP2 DUP2 SUB PUSH0 DUP4 ADD MSTORE PUSH2 0x13B7 DUP2 PUSH2 0x137E JUMP JUMPDEST SWAP1 POP SWAP2 SWAP1 POP JUMP JUMPDEST PUSH0 DUP2 SWAP1 POP DUP2 PUSH0 MSTORE PUSH1 0x20 PUSH0 KECCAK256 SWAP1 POP SWAP2 SWAP1 POP JUMP JUMPDEST PUSH0 PUSH1 0x20 PUSH1 0x1F DUP4 ADD DIV SWAP1 POP SWAP2 SWAP1 POP JUMP JUMPDEST PUSH0 DUP3 DUP3 SHL SWAP1 POP SWAP3 SWAP2 POP POP JUMP JUMPDEST PUSH0 PUSH1 0x8 DUP4 MUL PUSH2 0x141A PUSH32 0xFFFFFFFFFFFFFFFFFFFFFFFFFFFFFFFFFFFFFFFFFFFFFFFFFFFFFFFFFFFFFFFF DUP3 PUSH2 0x13DF JUMP JUMPDEST PUSH2 0x1424 DUP7 DUP4 PUSH2 0x13DF JUMP JUMPDEST SWAP6 POP DUP1 NOT DUP5 AND SWAP4 POP DUP1 DUP7 AND DUP5 OR SWAP3 POP POP POP SWAP4 SWAP3 POP POP POP JUMP JUMPDEST PUSH0 DUP2 SWAP1 POP SWAP2 SWAP1 POP JUMP JUMPDEST PUSH0 PUSH2 0x145F PUSH2 0x145A PUSH2 0x1455 DUP5 PUSH2 0xBCB JUMP JUMPDEST PUSH2 0x143C JUMP JUMPDEST PUSH2 0xBCB JUMP JUMPDEST SWAP1 POP SWAP2 SWAP1 POP JUMP JUMPDEST PUSH0 DUP2 SWAP1 POP SWAP2 SWAP1 POP JUMP JUMPDEST PUSH2 0x1478 DUP4 PUSH2 0x1445 JUMP JUMPDEST PUSH2 0x148C PUSH2 0x1484 DUP3 PUSH2 0x1466 JUMP JUMPDEST DUP5 DUP5 SLOAD PUSH2 0x13EB JUMP JUMPDEST DUP3 SSTORE POP POP POP POP JUMP JUMPDEST PUSH0 SWAP1 JUMP JUMPDEST PUSH2 0x14A0 PUSH2 0x1494 JUMP JUMPDEST PUSH2 0x14AB DUP2 DUP5 DUP5 PUSH2 0x146F JUMP JUMPDEST POP POP POP JUMP JUMPDEST JUMPDEST DUP2 DUP2 LT ISZERO PUSH2 0x14CE JUMPI PUSH2 0x14C3 PUSH0 DUP3 PUSH2 0x1498 JUMP JUMPDEST PUSH1 0x1 DUP2 ADD SWAP1 POP PUSH2 0x14B1 JUMP JUMPDEST POP POP JUMP JUMPDEST PUSH1 0x1F DUP3 GT ISZERO PUSH2 0x1513 JUMPI PUSH2 0x14E4 DUP2 PUSH2 0x13BE JUMP JUMPDEST PUSH2 0x14ED DUP5 PUSH2 0x13D0 JUMP JUMPDEST DUP2 ADD PUSH1 0x20 DUP6 LT ISZERO PUSH2 0x14FC JUMPI DUP2 SWAP1 POP JUMPDEST PUSH2 0x1510 PUSH2 0x1508 DUP6 PUSH2 0x13D0 JUMP JUMPDEST DUP4 ADD DUP3 PUSH2 0x14B0 JUMP JUMPDEST POP POP JUMPDEST POP POP POP JUMP JUMPDEST PUSH0 DUP3 DUP3 SHR SWAP1 POP SWAP3 SWAP2 POP POP JUMP JUMPDEST PUSH0 PUSH2 0x1533 PUSH0 NOT DUP5 PUSH1 0x8 MUL PUSH2 0x1518 JUMP JUMPDEST NOT DUP1 DUP4 AND SWAP2 POP POP SWAP3 SWAP2 POP POP JUMP JUMPDEST PUSH0 PUSH2 0x154B DUP4 DUP4 PUSH2 0x1524 JUMP JUMPDEST SWAP2 POP DUP3 PUSH1 0x2 MUL DUP3 OR SWAP1 POP SWAP3 SWAP2 POP POP JUMP JUMPDEST PUSH2 0x1564 DUP3 PUSH2 0xC5A JUMP JUMPDEST PUSH8 0xFFFFFFFFFFFFFFFF DUP2 GT ISZERO PUSH2 0x157D JUMPI PUSH2 0x157C PUSH2 0xF88 JUMP JUMPDEST JUMPDEST PUSH2 0x1587 DUP3 SLOAD PUSH2 0x118E JUMP JUMPDEST PUSH2 0x1592 DUP3 DUP3 DUP6 PUSH2 0x14D2 JUMP JUMPDEST PUSH0 PUSH1 0x20 SWAP1 POP PUSH1 0x1F DUP4 GT PUSH1 0x1 DUP2 EQ PUSH2 0x15C3 JUMPI PUSH0 DUP5 ISZERO PUSH2 0x15B1 JUMPI DUP3 DUP8 ADD MLOAD SWAP1 POP JUMPDEST PUSH2 0x15BB DUP6 DUP3 PUSH2 0x1540 JUMP JUMPDEST DUP7 SSTORE POP PUSH2 0x1622 JUMP JUMPDEST PUSH1 0x1F NOT DUP5 AND PUSH2 0x15D1 DUP7 PUSH2 0x13BE JUMP JUMPDEST PUSH0 JUMPDEST DUP3 DUP2 LT ISZERO PUSH2 0x15F8 JUMPI DUP5 DUP10 ADD MLOAD DUP3 SSTORE PUSH1 0x1 DUP3 ADD SWAP2 POP PUSH1 0x20 DUP6 ADD SWAP5 POP PUSH1 0x20 DUP2 ADD SWAP1 POP PUSH2 0x15D3 JUMP JUMPDEST DUP7 DUP4 LT ISZERO PUSH2 0x1615 JUMPI DUP5 DUP10 ADD MLOAD PUSH2 0x1611 PUSH1 0x1F DUP10 AND DUP3 PUSH2 0x1524 JUMP JUMPDEST DUP4 SSTORE POP JUMPDEST PUSH1 0x1 PUSH1 0x2 DUP9 MUL ADD DUP9 SSTORE POP POP POP JUMPDEST POP POP POP POP POP POP JUMP JUMPDEST PUSH32 0x4865792C20596F7520617265206E6F7420746865204F776E6572000000000000 PUSH0 DUP3 ADD MSTORE POP JUMP JUMPDEST PUSH0 PUSH2 0x165E PUSH1 0x1A DUP4 PUSH2 0xC64 JUMP JUMPDEST SWAP2 POP PUSH2 0x1669 DUP3 PUSH2 0x162A JUMP JUMPDEST PUSH1 0x20 DUP3 ADD SWAP1 POP SWAP2 SWAP1 POP JUMP JUMPDEST PUSH0 PUSH1 0x20 DUP3 ADD SWAP1 POP DUP2 DUP2 SUB PUSH0 DUP4 ADD MSTORE PUSH2 0x168B DUP2 PUSH2 0x1652 JUMP JUMPDEST SWAP1 POP SWAP2 SWAP1 POP JUMP INVALID LOG2 PUSH5 0x6970667358 0x22 SLT KECCAK256 PUSH14 0x983C223343398ADB035E4288A2DA 0xAD 0xEA CALLER 0xD4 MSTORE PUSH11 0x2066A8EB27D2952505AAB4 PUSH5 0x736F6C6343 STOP ADDMOD BYTE STOP CALLER "
				},
				"gasEstimates": {
					"creation": {
						"codeDepositCost": "1166400",
						"executionCost": "49743",
						"totalCost": "1216143"
					},
					"external": {
						"MAX_TWEET_LENGTH()": "2485",
						"changeTweetLenght(uint16)": "26908",
						"createTweet(string)": "infinite",
						"getAllTweets(address)": "infinite",
						"getTweet(address,uint256)": "infinite",
						"likeTweet(address,uint256)": "infinite",
						"owner()": "2596",
						"tweets(address,uint256)": "infinite",
						"unlikeTweet(address,uint256)": "infinite"
					}
				},
				"methodIdentifiers": {
					"MAX_TWEET_LENGTH()": "6eb10797",
					"changeTweetLenght(uint16)": "8cde680b",
					"createTweet(string)": "7c9cd2bc",
					"getAllTweets(address)": "12e7ee1c",
					"getTweet(address,uint256)": "112f54e3",
					"likeTweet(address,uint256)": "63378216",
					"owner()": "8da5cb5b",
					"tweets(address,uint256)": "05a1b4a9",
					"unlikeTweet(address,uint256)": "3d9b569f"
				}
			},
			"storageLayout": {
				"storage": [
					{
						"astId": 4,
						"contract": "contracts/Twitter.sol:Twitter",
						"label": "MAX_TWEET_LENGTH",
						"offset": 0,
						"slot": "0",
						"type": "t_uint16"
					},
					{
						"astId": 21,
						"contract": "contracts/Twitter.sol:Twitter",
						"label": "tweets",
						"offset": 0,
						"slot": "1",
						"type": "t_mapping(t_address,t_array(t_struct(Tweet)15_storage)dyn_storage)"
					},
					{
						"astId": 23,
						"contract": "contracts/Twitter.sol:Twitter",
						"label": "owner",
						"offset": 0,
						"slot": "2",
						"type": "t_address"
					}
				],
				"types": {
					"t_address": {
						"encoding": "inplace",
						"label": "address",
						"numberOfBytes": "20"
					},
					"t_array(t_struct(Tweet)15_storage)dyn_storage": {
						"base": "t_struct(Tweet)15_storage",
						"encoding": "dynamic_array",
						"label": "struct Twitter.Tweet[]",
						"numberOfBytes": "32"
					},
					"t_mapping(t_address,t_array(t_struct(Tweet)15_storage)dyn_storage)": {
						"encoding": "mapping",
						"key": "t_address",
						"label": "mapping(address => struct Twitter.Tweet[])",
						"numberOfBytes": "32",
						"value": "t_array(t_struct(Tweet)15_storage)dyn_storage"
					},
					"t_string_storage": {
						"encoding": "bytes",
						"label": "string",
						"numberOfBytes": "32"
					},
					"t_struct(Tweet)15_storage": {
						"encoding": "inplace",
						"label": "struct Twitter.Tweet",
						"members": [
							{
								"astId": 6,
								"contract": "contracts/Twitter.sol:Twitter",
								"label": "id",
								"offset": 0,
								"slot": "0",
								"type": "t_uint256"
							},
							{
								"astId": 8,
								"contract": "contracts/Twitter.sol:Twitter",
								"label": "author",
								"offset": 0,
								"slot": "1",
								"type": "t_address"
							},
							{
								"astId": 10,
								"contract": "contracts/Twitter.sol:Twitter",
								"label": "content",
								"offset": 0,
								"slot": "2",
								"type": "t_string_storage"
							},
							{
								"astId": 12,
								"contract": "contracts/Twitter.sol:Twitter",
								"label": "timestamp",
								"offset": 0,
								"slot": "3",
								"type": "t_uint256"
							},
							{
								"astId": 14,
								"contract": "contracts/Twitter.sol:Twitter",
								"label": "likes",
								"offset": 0,
								"slot": "4",
								"type": "t_uint256"
							}
						],
						"numberOfBytes": "160"
					},
					"t_uint16": {
						"encoding": "inplace",
						"label": "uint16",
						"numberOfBytes": "2"
					},
					"t_uint256": {
						"encoding": "inplace",
						"label": "uint256",
						"numberOfBytes": "32"
					}
				}
			},
			"userdoc": {
				"kind": "user",
				"methods": {},
				"version": 1
			}
		}
	}
}